{
  "_format": "hh-sol-artifact-1",
  "contractName": "CryptoMarket",
  "sourceName": "contracts/markets/CryptoMarket.sol",
  "abi": [
    {
      "inputs": [
        {
          "internalType": "address",
          "name": "_gateway",
          "type": "address"
        },
        {
          "internalType": "address",
          "name": "_factory",
          "type": "address"
        },
        {
          "internalType": "address",
          "name": "_creator",
          "type": "address"
        },
        {
          "components": [
            {
              "internalType": "bytes32",
              "name": "assetName",
              "type": "bytes32"
            },
            {
              "internalType": "address",
              "name": "assetFeed",
              "type": "address"
            },
            {
              "internalType": "uint8",
              "name": "decimals",
              "type": "uint8"
            },
            {
              "internalType": "enum MarketLibrary.AssetFeedType",
              "name": "assetFeedType",
              "type": "uint8"
            },
            {
              "internalType": "bool",
              "name": "active",
              "type": "bool"
            }
          ],
          "internalType": "struct MarketLibrary.Asset",
          "name": "_asset",
          "type": "tuple"
        },
        {
          "components": [
            {
              "internalType": "uint256",
              "name": "creationTime",
              "type": "uint256"
            },
            {
              "internalType": "uint256",
              "name": "tradingEndTime",
              "type": "uint256"
            },
            {
              "internalType": "uint256",
              "name": "waitingEndTime",
              "type": "uint256"
            },
            {
              "internalType": "uint256",
              "name": "reportingEndTime",
              "type": "uint256"
            },
            {
              "internalType": "uint256",
              "name": "disputeEndTime",
              "type": "uint256"
            }
          ],
          "internalType": "struct MarketLibrary.MarketTime",
          "name": "_marketTime",
          "type": "tuple"
        },
        {
          "components": [
            {
              "internalType": "uint256",
              "name": "upper",
              "type": "uint256"
            },
            {
              "internalType": "uint256",
              "name": "lower",
              "type": "uint256"
            },
            {
              "internalType": "uint256",
              "name": "staked",
              "type": "uint256"
            },
            {
              "internalType": "uint256",
              "name": "participants",
              "type": "uint256"
            },
            {
              "internalType": "uint256",
              "name": "positions",
              "type": "uint256"
            },
            {
              "internalType": "uint256",
              "name": "rewards",
              "type": "uint256"
            }
          ],
          "internalType": "struct MarketLibrary.Pool[]",
          "name": "_pools",
          "type": "tuple[]"
        },
        {
          "internalType": "uint256",
          "name": "_LC",
          "type": "uint256"
        }
      ],
      "stateMutability": "nonpayable",
      "type": "constructor"
    },
    {
      "anonymous": false,
      "inputs": [
        {
          "indexed": true,
          "internalType": "address",
          "name": "user",
          "type": "address"
        },
        {
          "indexed": true,
          "internalType": "uint8",
          "name": "prediction",
          "type": "uint8"
        },
        {
          "indexed": false,
          "internalType": "uint256",
          "name": "positions",
          "type": "uint256"
        },
        {
          "indexed": false,
          "internalType": "uint256",
          "name": "amount",
          "type": "uint256"
        },
        {
          "indexed": true,
          "internalType": "uint256",
          "name": "date",
          "type": "uint256"
        }
      ],
      "name": "PredictionPlaced",
      "type": "event"
    },
    {
      "inputs": [
        {
          "internalType": "address",
          "name": "_user",
          "type": "address"
        }
      ],
      "name": "claimReturns",
      "outputs": [
        {
          "internalType": "uint256",
          "name": "",
          "type": "uint256"
        }
      ],
      "stateMutability": "nonpayable",
      "type": "function"
    },
    {
      "inputs": [],
      "name": "getAsset",
      "outputs": [
        {
          "components": [
            {
              "internalType": "bytes32",
              "name": "assetName",
              "type": "bytes32"
            },
            {
              "internalType": "address",
              "name": "assetFeed",
              "type": "address"
            },
            {
              "internalType": "uint8",
              "name": "decimals",
              "type": "uint8"
            },
            {
              "internalType": "enum MarketLibrary.AssetFeedType",
              "name": "assetFeedType",
              "type": "uint8"
            },
            {
              "internalType": "bool",
              "name": "active",
              "type": "bool"
            }
          ],
          "internalType": "struct MarketLibrary.Asset",
          "name": "",
          "type": "tuple"
        }
      ],
      "stateMutability": "view",
      "type": "function"
    },
    {
      "inputs": [],
      "name": "getMarket",
      "outputs": [
        {
          "components": [
            {
              "internalType": "address",
              "name": "marketAddress",
              "type": "address"
            },
            {
              "components": [
                {
                  "internalType": "bytes32",
                  "name": "assetName",
                  "type": "bytes32"
                },
                {
                  "internalType": "address",
                  "name": "assetFeed",
                  "type": "address"
                },
                {
                  "internalType": "uint8",
                  "name": "decimals",
                  "type": "uint8"
                },
                {
                  "internalType": "enum MarketLibrary.AssetFeedType",
                  "name": "assetFeedType",
                  "type": "uint8"
                },
                {
                  "internalType": "bool",
                  "name": "active",
                  "type": "bool"
                }
              ],
              "internalType": "struct MarketLibrary.Asset",
              "name": "asset",
              "type": "tuple"
            },
            {
              "components": [
                {
                  "internalType": "uint256",
                  "name": "creationTime",
                  "type": "uint256"
                },
                {
                  "internalType": "uint256",
                  "name": "tradingEndTime",
                  "type": "uint256"
                },
                {
                  "internalType": "uint256",
                  "name": "waitingEndTime",
                  "type": "uint256"
                },
                {
                  "internalType": "uint256",
                  "name": "reportingEndTime",
                  "type": "uint256"
                },
                {
                  "internalType": "uint256",
                  "name": "disputeEndTime",
                  "type": "uint256"
                }
              ],
              "internalType": "struct MarketLibrary.MarketTime",
              "name": "time",
              "type": "tuple"
            },
            {
              "components": [
                {
                  "internalType": "uint256",
                  "name": "upper",
                  "type": "uint256"
                },
                {
                  "internalType": "uint256",
                  "name": "lower",
                  "type": "uint256"
                },
                {
                  "internalType": "uint256",
                  "name": "staked",
                  "type": "uint256"
                },
                {
                  "internalType": "uint256",
                  "name": "participants",
                  "type": "uint256"
                },
                {
                  "internalType": "uint256",
                  "name": "positions",
                  "type": "uint256"
                },
                {
                  "internalType": "uint256",
                  "name": "rewards",
                  "type": "uint256"
                }
              ],
              "internalType": "struct MarketLibrary.Pool[]",
              "name": "pools",
              "type": "tuple[]"
            },
            {
              "internalType": "enum MarketLibrary.Phase",
              "name": "phase",
              "type": "uint8"
            }
          ],
          "internalType": "struct MarketLibrary.MarketResponse",
          "name": "",
          "type": "tuple"
        }
      ],
      "stateMutability": "view",
      "type": "function"
    },
    {
      "inputs": [],
      "name": "getMarketEntity",
      "outputs": [
        {
          "internalType": "address",
          "name": "",
          "type": "address"
        },
        {
          "internalType": "address",
          "name": "",
          "type": "address"
        },
        {
          "internalType": "address",
          "name": "",
          "type": "address"
        },
        {
          "internalType": "address",
          "name": "",
          "type": "address"
        }
      ],
      "stateMutability": "view",
      "type": "function"
    },
    {
      "inputs": [],
      "name": "getMarketPhase",
      "outputs": [
        {
          "internalType": "enum MarketLibrary.Phase",
          "name": "",
          "type": "uint8"
        }
      ],
      "stateMutability": "view",
      "type": "function"
    },
    {
      "inputs": [],
      "name": "getMarketTime",
      "outputs": [
        {
          "components": [
            {
              "internalType": "uint256",
              "name": "creationTime",
              "type": "uint256"
            },
            {
              "internalType": "uint256",
              "name": "tradingEndTime",
              "type": "uint256"
            },
            {
              "internalType": "uint256",
              "name": "waitingEndTime",
              "type": "uint256"
            },
            {
              "internalType": "uint256",
              "name": "reportingEndTime",
              "type": "uint256"
            },
            {
              "internalType": "uint256",
              "name": "disputeEndTime",
              "type": "uint256"
            }
          ],
          "internalType": "struct MarketLibrary.MarketTime",
          "name": "",
          "type": "tuple"
        }
      ],
      "stateMutability": "view",
      "type": "function"
    },
    {
      "inputs": [
        {
          "internalType": "address",
          "name": "_user",
          "type": "address"
        }
      ],
      "name": "getMarketUser",
      "outputs": [
        {
          "components": [
            {
              "internalType": "uint24",
              "name": "numberOfPredictions",
              "type": "uint24"
            },
            {
              "internalType": "bool",
              "name": "rewardClaimed",
              "type": "bool"
            },
            {
              "internalType": "bool",
              "name": "boostModeApplied",
              "type": "bool"
            },
            {
              "components": [
                {
                  "internalType": "uint256",
                  "name": "positions",
                  "type": "uint256"
                },
                {
                  "internalType": "uint256",
                  "name": "amount",
                  "type": "uint256"
                },
                {
                  "internalType": "uint8",
                  "name": "leverage",
                  "type": "uint8"
                }
              ],
              "internalType": "struct MarketLibrary.Prediction[]",
              "name": "predictions",
              "type": "tuple[]"
            },
            {
              "internalType": "address",
              "name": "user",
              "type": "address"
            }
          ],
          "internalType": "struct MarketLibrary.MarketUserResponse",
          "name": "",
          "type": "tuple"
        }
      ],
      "stateMutability": "view",
      "type": "function"
    },
    {
      "inputs": [
        {
          "internalType": "address",
          "name": "_user",
          "type": "address"
        }
      ],
      "name": "getMarketUserData",
      "outputs": [
        {
          "components": [
            {
              "internalType": "uint24",
              "name": "numberOfPredictions",
              "type": "uint24"
            },
            {
              "internalType": "bool",
              "name": "rewardClaimed",
              "type": "bool"
            },
            {
              "internalType": "bool",
              "name": "boostModeApplied",
              "type": "bool"
            },
            {
              "components": [
                {
                  "internalType": "uint256",
                  "name": "positions",
                  "type": "uint256"
                },
                {
                  "internalType": "uint256",
                  "name": "amount",
                  "type": "uint256"
                },
                {
                  "internalType": "uint8",
                  "name": "leverage",
                  "type": "uint8"
                }
              ],
              "internalType": "struct MarketLibrary.Prediction[]",
              "name": "predictions",
              "type": "tuple[]"
            },
            {
              "internalType": "address",
              "name": "user",
              "type": "address"
            }
          ],
          "internalType": "struct MarketLibrary.MarketUserResponse",
          "name": "",
          "type": "tuple"
        },
        {
          "components": [
            {
              "internalType": "address",
              "name": "marketAddress",
              "type": "address"
            },
            {
              "components": [
                {
                  "internalType": "bytes32",
                  "name": "assetName",
                  "type": "bytes32"
                },
                {
                  "internalType": "address",
                  "name": "assetFeed",
                  "type": "address"
                },
                {
                  "internalType": "uint8",
                  "name": "decimals",
                  "type": "uint8"
                },
                {
                  "internalType": "enum MarketLibrary.AssetFeedType",
                  "name": "assetFeedType",
                  "type": "uint8"
                },
                {
                  "internalType": "bool",
                  "name": "active",
                  "type": "bool"
                }
              ],
              "internalType": "struct MarketLibrary.Asset",
              "name": "asset",
              "type": "tuple"
            },
            {
              "components": [
                {
                  "internalType": "uint256",
                  "name": "creationTime",
                  "type": "uint256"
                },
                {
                  "internalType": "uint256",
                  "name": "tradingEndTime",
                  "type": "uint256"
                },
                {
                  "internalType": "uint256",
                  "name": "waitingEndTime",
                  "type": "uint256"
                },
                {
                  "internalType": "uint256",
                  "name": "reportingEndTime",
                  "type": "uint256"
                },
                {
                  "internalType": "uint256",
                  "name": "disputeEndTime",
                  "type": "uint256"
                }
              ],
              "internalType": "struct MarketLibrary.MarketTime",
              "name": "time",
              "type": "tuple"
            },
            {
              "components": [
                {
                  "internalType": "uint256",
                  "name": "upper",
                  "type": "uint256"
                },
                {
                  "internalType": "uint256",
                  "name": "lower",
                  "type": "uint256"
                },
                {
                  "internalType": "uint256",
                  "name": "staked",
                  "type": "uint256"
                },
                {
                  "internalType": "uint256",
                  "name": "participants",
                  "type": "uint256"
                },
                {
                  "internalType": "uint256",
                  "name": "positions",
                  "type": "uint256"
                },
                {
                  "internalType": "uint256",
                  "name": "rewards",
                  "type": "uint256"
                }
              ],
              "internalType": "struct MarketLibrary.Pool[]",
              "name": "pools",
              "type": "tuple[]"
            },
            {
              "internalType": "enum MarketLibrary.Phase",
              "name": "phase",
              "type": "uint8"
            }
          ],
          "internalType": "struct MarketLibrary.MarketResponse",
          "name": "",
          "type": "tuple"
        }
      ],
      "stateMutability": "view",
      "type": "function"
    },
    {
      "inputs": [],
      "name": "getMarketUsers",
      "outputs": [
        {
          "components": [
            {
              "internalType": "uint24",
              "name": "numberOfPredictions",
              "type": "uint24"
            },
            {
              "internalType": "bool",
              "name": "rewardClaimed",
              "type": "bool"
            },
            {
              "internalType": "bool",
              "name": "boostModeApplied",
              "type": "bool"
            },
            {
              "components": [
                {
                  "internalType": "uint256",
                  "name": "positions",
                  "type": "uint256"
                },
                {
                  "internalType": "uint256",
                  "name": "amount",
                  "type": "uint256"
                },
                {
                  "internalType": "uint8",
                  "name": "leverage",
                  "type": "uint8"
                }
              ],
              "internalType": "struct MarketLibrary.Prediction[]",
              "name": "predictions",
              "type": "tuple[]"
            },
            {
              "internalType": "address",
              "name": "user",
              "type": "address"
            }
          ],
          "internalType": "struct MarketLibrary.MarketUserResponse[]",
          "name": "",
          "type": "tuple[]"
        }
      ],
      "stateMutability": "view",
      "type": "function"
    },
    {
      "inputs": [
        {
          "internalType": "uint8",
          "name": "_prediction",
          "type": "uint8"
        }
      ],
      "name": "getPoolPrice",
      "outputs": [
        {
          "internalType": "uint64",
          "name": "",
          "type": "uint64"
        }
      ],
      "stateMutability": "view",
      "type": "function"
    },
    {
      "inputs": [],
      "name": "getPoolsPrice",
      "outputs": [
        {
          "internalType": "uint64[]",
          "name": "",
          "type": "uint64[]"
        }
      ],
      "stateMutability": "view",
      "type": "function"
    },
    {
      "inputs": [
        {
          "internalType": "uint8",
          "name": "_prediction",
          "type": "uint8"
        },
        {
          "internalType": "uint256",
          "name": "_amount",
          "type": "uint256"
        },
        {
          "internalType": "uint8",
          "name": "_leverage",
          "type": "uint8"
        }
      ],
      "name": "getPositions",
      "outputs": [
        {
          "internalType": "uint64",
          "name": "",
          "type": "uint64"
        }
      ],
      "stateMutability": "view",
      "type": "function"
    },
    {
      "inputs": [],
      "name": "getRewards",
      "outputs": [
        {
          "components": [
            {
              "internalType": "uint256",
              "name": "creator",
              "type": "uint256"
            },
            {
              "internalType": "uint256",
              "name": "platform",
              "type": "uint256"
            },
            {
              "internalType": "uint256",
              "name": "settler",
              "type": "uint256"
            },
            {
              "internalType": "uint256",
              "name": "users",
              "type": "uint256"
            }
          ],
          "internalType": "struct CryptoMarket.Rewards",
          "name": "",
          "type": "tuple"
        }
      ],
      "stateMutability": "view",
      "type": "function"
    },
    {
      "inputs": [],
      "name": "getTotalPools",
      "outputs": [
        {
          "internalType": "uint8",
          "name": "",
          "type": "uint8"
        }
      ],
      "stateMutability": "view",
      "type": "function"
    },
    {
      "inputs": [],
      "name": "getTotalRewards",
      "outputs": [
        {
          "internalType": "uint256",
          "name": "",
          "type": "uint256"
        }
      ],
      "stateMutability": "view",
      "type": "function"
    },
    {
      "inputs": [],
      "name": "getTotalStaked",
      "outputs": [
        {
          "internalType": "uint256",
          "name": "",
          "type": "uint256"
        }
      ],
      "stateMutability": "view",
      "type": "function"
    },
    {
      "inputs": [
        {
          "internalType": "address",
          "name": "_user",
          "type": "address"
        }
      ],
      "name": "getUserTotalReturns",
      "outputs": [
        {
          "internalType": "uint256",
          "name": "",
          "type": "uint256"
        }
      ],
      "stateMutability": "view",
      "type": "function"
    },
    {
      "inputs": [],
      "name": "getWinningPool",
      "outputs": [
        {
          "internalType": "uint8",
          "name": "",
          "type": "uint8"
        }
      ],
      "stateMutability": "view",
      "type": "function"
    },
    {
      "inputs": [
        {
          "internalType": "uint80",
          "name": "_roundId",
          "type": "uint80"
        }
      ],
      "name": "getWinningPoolOracle",
      "outputs": [
        {
          "internalType": "uint8",
          "name": "",
          "type": "uint8"
        }
      ],
      "stateMutability": "view",
      "type": "function"
    },
    {
      "inputs": [
        {
          "internalType": "address",
          "name": "_user",
          "type": "address"
        },
        {
          "internalType": "uint8",
          "name": "_prediction",
          "type": "uint8"
        },
        {
          "internalType": "uint256",
          "name": "_amount",
          "type": "uint256"
        },
        {
          "internalType": "uint8",
          "name": "_leverage",
          "type": "uint8"
        }
      ],
      "name": "placePrediction",
      "outputs": [
        {
          "internalType": "uint256",
          "name": "",
          "type": "uint256"
        },
        {
          "internalType": "bool",
          "name": "",
          "type": "bool"
        }
      ],
      "stateMutability": "nonpayable",
      "type": "function"
    },
    {
      "inputs": [
        {
          "internalType": "address",
          "name": "_settler",
          "type": "address"
        },
        {
          "internalType": "uint80",
          "name": "_roundId",
          "type": "uint80"
        }
      ],
      "name": "settleMarket",
      "outputs": [],
      "stateMutability": "nonpayable",
      "type": "function"
    }
  ],
  "bytecode": "0x60806040526000805460ff191690553480156200001b57600080fd5b506040516200290b3803806200290b8339810160408190526200003e91620003a9565b825160015560208084015160029081556040808601516003556060808701516004556080870151600555601280546001600160a01b03808e166001600160a01b031992831617909255601380548d8416908316179055601080548c841690831617905589516006908155958a015160078054958c015160ff16600160a01b0260ff60a01b1992909416959092169490941793909316178083559088015188949390929160ff60a81b191690600160a81b9084908111156200010f57634e487b7160e01b600052602160045260246000fd5b02179055506080919091015160019091018054911515600160b01b0260ff60b01b19909216919091179055600a81905560005b82518160ff161015620001e8576008838260ff16815181106200017557634e487b7160e01b600052603260045260246000fd5b6020908102919091018101518254600181810185556000948552938390208251600690920201908155918101519282019290925560408201516002820155606082015160038201556080820151600482015560a09091015160059091015580620001df8162000509565b91505062000142565b505051600b805460ff191660ff909216919091179055506200054c9350505050565b80516001600160a01b03811681146200022257600080fd5b919050565b600082601f83011262000238578081fd5b815160206001600160401b038083111562000257576200025762000536565b620002668283850201620004dd565b8381528281019086840160c0808702890186018a101562000285578788fd5b875b87811015620003075781838c0312156200029f578889fd5b604080518381018181108982111715620002bd57620002bd62000536565b82528451815288850151898201528482015191810191909152606080850151908201526080808501519082015260a080850151908201528552938601939181019160010162000287565b50919998505050505050505050565b805180151581146200022257600080fd5b8051600381106200022257600080fd5b600060a0828403121562000349578081fd5b60405160a081016001600160401b03811182821017156200036e576200036e62000536565b806040525080915082518152602083015160208201526040830151604082015260608301516060820152608083015160808201525092915050565b60008060008060008060008789036101e0811215620003c6578384fd5b620003d1896200020a565b9750620003e160208a016200020a565b9650620003f160408a016200020a565b955060a0605f198201121562000405578384fd5b5060405160a081016001600160401b0380821183831017156200042c576200042c62000536565b8160405260608b015183526200044560808c016200020a565b602084015260a08b0151915060ff8216821462000460578586fd5b8160408401526200047460c08c0162000327565b60608401526200048760e08c0162000316565b60808401528296506200049f8c6101008d0162000337565b95506101a08b0151925080831115620004b6578485fd5b5050620004c68a828b0162000227565b9250506101c0880151905092959891949750929550565b6040518181016001600160401b038111828210171562000501576200050162000536565b604052919050565b600060ff821660ff8114156200052d57634e487b7160e01b82526011600452602482fd5b60010192915050565b634e487b7160e01b600052604160045260246000fd5b6123af806200055c6000396000f3fe608060405234801561001057600080fd5b50600436106101775760003560e01c80635cf40a96116100d8578063a022da161161008c578063d3ffe67a11610066578063d3ffe67a14610328578063e627f2db14610330578063f1be16791461033857610177565b8063a022da16146102df578063ac2bfe6d146102f2578063b71150101461030757610177565b80637e75bf0a116100bd5780637e75bf0a146102925780638df60083146102b2578063997add44146102ca57610177565b80635cf40a961461027757806375f47da51461028a57610177565b80632074ba4c1161012f57806349dc91d21161011457806349dc91d21461022d578063558a04ae1461024d5780635c222bad1461026257610177565b80632074ba4c146101f8578063343036271461021857610177565b806316af44531161016057806316af4453146101af5780631c059196146101c25780631f85230b146101e357610177565b80630572b0cc1461017c5780630917e7761461019a575b600080fd5b61018461034d565b6040516101919190612225565b60405180910390f35b6101a2610383565b6040516101919190612250565b6101a26101bd366004611b93565b6103f7565b6101d56101d0366004611bdf565b6104de565b604051610191929190612259565b6101eb61080a565b6040516101919190611f5c565b61020b610206366004611d01565b610901565b6040516101919190612283565b610220610963565b60405161019191906121d6565b61024061023b366004611ce7565b6109a0565b6040516101919190612298565b610255610a3c565b604051610191919061200a565b61026a610c6b565b60405161019191906121b5565b6101a2610285366004611b93565b610d17565b610240610e75565b6102a56102a0366004611b93565b610e7e565b60405161019191906121e4565b6102ba610fde565b6040516101919493929190611f31565b6102d2611003565b6040516101919190611fbc565b61020b6102ed366004611ccd565b6110c5565b610305610300366004611bad565b6111d0565b005b61031a610315366004611b93565b611275565b6040516101919291906121f7565b61024061129f565b6101a26112a5565b610340611324565b60405161019191906121c3565b610355611a37565b5060408051608081018252600c548152600d546020820152600e5491810191909152600f5460608201525b90565b600080805b60085460ff821610156103f1576103dd60088260ff16815481106103bc57634e487b7160e01b600052603260045260246000fd5b906000526020600020906006020160020154836114d790919063ffffffff16565b9150806103e981612356565b915050610388565b50905090565b6000600580610404610a3c565b600581111561042357634e487b7160e01b600052602160045260246000fd5b1461042d57600080fd5b6012546001600160a01b0316331461044457600080fd5b6001600160a01b03831660009081526009602052604090205460ff16156104865760405162461bcd60e51b815260040161047d906120d9565b60405180910390fd5b600061049184610d17565b9050600081116104b35760405162461bcd60e51b815260040161047d9061206b565b6001600160a01b0384166000908152600960205260409020805460ff19166001179055915050919050565b60125460009081906001600160a01b031633146104fa57600080fd5b600080610505610a3c565b600581111561052457634e487b7160e01b600052602160045260246000fd5b1461052e57600080fd5b60085460ff8716108015610540575060015b61055c5760405162461bcd60e51b815260040161047d906120a2565b6105678488886114ec565b6105835760405162461bcd60e51b815260040161047d9061217e565b6000610590878787610901565b67ffffffffffffffff1690506105e5600160088960ff16815481106105c557634e487b7160e01b600052603260045260246000fd5b9060005260206000209060060201600301546114d790919063ffffffff16565b60088860ff168154811061060957634e487b7160e01b600052603260045260246000fd5b9060005260206000209060060201600301819055506106668660088960ff168154811061064657634e487b7160e01b600052603260045260246000fd5b9060005260206000209060060201600201546114d790919063ffffffff16565b60088860ff168154811061068a57634e487b7160e01b600052603260045260246000fd5b9060005260206000209060060201600201819055506106e78160088960ff16815481106106c757634e487b7160e01b600052603260045260246000fd5b9060005260206000209060060201600401546114d790919063ffffffff16565b60088860ff168154811061070b57634e487b7160e01b600052603260045260246000fd5b906000526020600020906006020160040181905550610730868660ff16600a546115a5565b60088860ff168154811061075457634e487b7160e01b600052603260045260246000fd5b60009182526020808320600692909202909101600501929092556001600160a01b038a1681526009909152604090205462010000900462ffffff161580156107ef57601480546001810182556000919091527fce6d7b5282bd9a3661ae061feed1dbda4e52ab073b1f9285be6e155d9c38d4ec01805473ffffffffffffffffffffffffffffffffffffffff19166001600160a01b038b161790555b6107fc89898989866115c8565b909890975095505050505050565b60145460609060009067ffffffffffffffff81111561083957634e487b7160e01b600052604160045260246000fd5b60405190808252806020026020018201604052801561087257816020015b61085f611a5f565b8152602001906001900390816108575790505b50905060005b6014548110156103f1576108c3601060040182815481106108a957634e487b7160e01b600052603260045260246000fd5b6000918252602090912001546001600160a01b0316610e7e565b8282815181106108e357634e487b7160e01b600052603260045260246000fd5b602002602001018190525080806108f99061233b565b915050610878565b600060058260ff1611156109275760405162461bcd60e51b815260040161047d90612110565b6000610932856110c5565b9050600061095767ffffffffffffffff83166109518760ff8816611685565b90611691565b925050505b9392505050565b61096b611a8c565b506040805160a08101825260015481526002546020820152600354918101919091526004546060820152600554608082015290565b60075460035460405163883200ed60e01b815260009283926001600160a01b039091169163883200ed916109d8918790600401612269565b604080518083038186803b1580156109ef57600080fd5b505afa158015610a03573d6000803e3d6000fd5b505050506040513d601f19601f82011682018060405250810190610a279190611caa565b509050610a338161169d565b9150505b919050565b6000428160005460ff166005811115610a6557634e487b7160e01b600052602160045260246000fd5b148015610a7457506002548111155b15610ac157610ab76040518060400160405280600a81526020017f696e2054726164696e670000000000000000000000000000000000000000000081525061174d565b6000915050610380565b6000805460ff166005811115610ae757634e487b7160e01b600052602160045260246000fd5b148015610af5575060025481115b8015610b0357506003548111155b15610b5057610b466040518060400160405280600a81526020017f696e2077616974696e670000000000000000000000000000000000000000000081525061174d565b6001915050610380565b6000805460ff166005811115610b7657634e487b7160e01b600052602160045260246000fd5b148015610b84575060035481115b8015610b9257506004548111155b15610bdf57610bd56040518060400160405280600c81526020017f696e207265706f7274696e67000000000000000000000000000000000000000081525061174d565b6002915050610380565b6000805460ff166005811115610c0557634e487b7160e01b600052602160045260246000fd5b148015610c13575060045481115b15610c6057610c566040518060400160405280600881526020017f73657474656c656400000000000000000000000000000000000000000000000081525061174d565b6004915050610380565b505060005460ff1690565b610c73611abb565b6040805160a0810182526006805482526007546001600160a01b038116602084015260ff600160a01b8204811694840194909452919290916060840191600160a81b909104166002811115610cd857634e487b7160e01b600052602160045260246000fd5b6002811115610cf757634e487b7160e01b600052602160045260246000fd5b815260019190910154600160b01b900460ff161515602090910152919050565b6001600160a01b0380821660008181526009602052604081206010549193909284929091161415610d5357600c54610d509082906114d7565b90505b6011546001600160a01b0385811691161415610d7a57600e54610d779082906114d7565b90505b60005b60085460ff82161015610e6d5760ff80821660008181526001860160205260409020600b549092161415610e21576000610df6826000015460088560ff1681548110610dd957634e487b7160e01b600052603260045260246000fd5b906000526020600020906006020160040154600c600301546117a8565b9050610e1981610e138460010154876114d790919063ffffffff16565b906114d7565b935050610e5a565b60018101546002820154600a54610e5792610e5092610e459260ff909116906115a5565b6001840154906117b8565b84906114d7565b92505b5080610e6581612356565b915050610d7d565b509392505050565b600b5460ff1690565b610e86611a5f565b6001600160a01b038216600090815260096020526040812060085490919067ffffffffffffffff811115610eca57634e487b7160e01b600052604160045260246000fd5b604051908082528060200260200182016040528015610f0357816020015b610ef0611aea565b815260200190600190039081610ee85790505b50905060005b60085460ff82161015610f915760ff8082166000818152600180870160209081526040928390208351606081018552815481529281015491830191909152600201549093169083015283518491908110610f7357634e487b7160e01b600052603260045260246000fd5b60200260200101819052508080610f8990612356565b915050610f09565b506040805160a081018252925462010000810462ffffff16845260ff808216151560208601526101009091041615159083015260608201526001600160a01b039290921660808301525090565b6012546013546010546011546001600160a01b03938416949284169391821692911690565b60085460609060009067ffffffffffffffff81111561103257634e487b7160e01b600052604160045260246000fd5b60405190808252806020026020018201604052801561105b578160200160208202803683370190505b50905060005b60085460ff821610156103f157611077816110c5565b828260ff168151811061109a57634e487b7160e01b600052603260045260246000fd5b67ffffffffffffffff90921660209283029190910190910152806110bd81612356565b915050611061565b60085460009060ff83161080156110da575060015b6110f65760405162461bcd60e51b815260040161047d906120a2565b6001546000906111079042906117b8565b60015460025491925060009161111c916117b8565b9050600061112e6001610e13876117c4565b9050600061114b61113f8484611685565b61095186612710611685565b905060006111ae611164600161115f610383565b611896565b61095161271060088b60ff168154811061118e57634e487b7160e01b600052603260045260246000fd5b90600052602060002090600602016002015461168590919063ffffffff16565b905060006111c46305f5e100610e138486611685565b98975050505050505050565b6004806111db610a3c565b60058111156111fa57634e487b7160e01b600052602160045260246000fd5b1461120457600080fd5b6013546001600160a01b0316331461121b57600080fd5b611224826109a0565b600b805460ff191660ff929092169190911790556011805473ffffffffffffffffffffffffffffffffffffffff19166001600160a01b0385161790556112686118ad565b6112706119d2565b505050565b61127d611a5f565b611285611b0e565b61128e83610e7e565b611296611324565b91509150915091565b60085490565b60008060005b60085460ff821610156103f157600b5460ff8281169116146113125761130f60088260ff16815481106112ee57634e487b7160e01b600052603260045260246000fd5b906000526020600020906006020160050154836114d790919063ffffffff16565b91505b8061131c81612356565b9150506112ab565b61132c611b0e565b6040805160a08082018352308252825190810183526006805482526007546001600160a01b03811660208481019190915260ff600160a01b83048116968501969096529394938501936060840191600160a81b90041660028111156113a157634e487b7160e01b600052602160045260246000fd5b60028111156113c057634e487b7160e01b600052602160045260246000fd5b8152600191820154600160b01b900460ff1615156020918201529183526040805160a08101825291548252600254828401526003548282015260045460608301526005546080830152838301919091526008805482518185028101850184528181529290940193919290919060009084015b828210156114a057838290600052602060002090600602016040518060c0016040529081600082015481526020016001820154815260200160028201548152602001600382015481526020016004820154815260200160058201548152505081526020019060010190611432565b5050505081526020016114b1610a3c565b60058111156114d057634e487b7160e01b600052602160045260246000fd5b9052905090565b60006114e382846122cd565b90505b92915050565b600060ff84161580611501575060058460ff16115b1561150e5750600061095c565b6001600160a01b03831660009081526009602052604090205462010000900462ffffff1661153e5750600161095c565b6001600160a01b038316600090815260096020908152604080832060ff8087168552600190910190925290912060028101549091161580159061158b5750600281015460ff868116911614155b1561159a57600091505061095c565b506001949350505050565b60006115c06064610951846115ba8888611685565b90611685565b949350505050565b6001600160a01b03851660009081526009602052604090208054600191906002906115ff90849062010000900462ffffff166122a6565b825462ffffff9182166101009390930a9283029190920219909116179055506001600160a01b038516600090815260096020908152604080832060ff881684526001019091529020805461165390836114d7565b8155600181015461166490856114d7565b6001820155600201805460ff191660ff939093169290921790915550505050565b60006114e38284612305565b60006114e382846122e5565b600080805b60085460ff8216116117465760088160ff16815481106116d257634e487b7160e01b600052603260045260246000fd5b90600052602060002090600602016001015484118015611727575060088160ff168154811061171157634e487b7160e01b600052603260045260246000fd5b9060005260206000209060060201600001548411155b1561173457809150611746565b8061173e81612356565b9150506116a2565b5092915050565b6117a5816040516024016117619190612018565b60408051601f198184030181529190526020810180517bffffffffffffffffffffffffffffffffffffffffffffffffffffffff1663104c13eb60e21b179052611a16565b50565b60006115c0836109518487611685565b60006114e38284612324565b600080600660010160009054906101000a90046001600160a01b03166001600160a01b0316638e15f4736040518163ffffffff1660e01b815260040160206040518083038186803b15801561181857600080fd5b505afa15801561182c573d6000803e3d6000fd5b505050506040513d601f19601f820116820180604052508101906118509190611c92565b9050600061185d8261169d565b90508060ff168460ff1611156118865761187d60ff8581169083166117b8565b92505050610a37565b6115c060ff8281169086166117b8565b6000818310156118a657816114e3565b5090919050565b6012546040805163db8d55f160e01b815290516000926001600160a01b03169163db8d55f1916004808301926060929190829003018186803b1580156118f257600080fd5b505afa158015611906573d6000803e3d6000fd5b505050506040513d601f19601f8201168201806040525081019061192a9190611c2b565b905060006119366112a5565b9050600081116119585760405162461bcd60e51b815260040161047d90612147565b815161196e90620186a090610951908490611685565b600c55604082015161198a90620186a090610951908490611685565b600d5560208201516119a690620186a090610951908490611685565b600e819055600d54600c546119cb926119c4929091610e13916114d7565b82906117b8565b600f555050565b6004806119dd610a3c565b60058111156119fc57634e487b7160e01b600052602160045260246000fd5b14611a0657600080fd5b506000805460ff19166005179055565b80516a636f6e736f6c652e6c6f67602083016000808483855afa5050505050565b6040518060800160405280600081526020016000815260200160008152602001600081525090565b6040805160a081018252600080825260208201819052918101829052606080820152608081019190915290565b6040518060a0016040528060008152602001600081526020016000815260200160008152602001600081525090565b6040805160a0810182526000808252602082018190529181018290529060608201908152600060209091015290565b60405180606001604052806000815260200160008152602001600060ff1681525090565b6040518060a0016040528060006001600160a01b03168152602001611b31611abb565b8152602001611b3e611a8c565b8152606060208201526040016000905290565b80356001600160a01b0381168114610a3757600080fd5b803560ff81168114610a3757600080fd5b803569ffffffffffffffffffff81168114610a3757600080fd5b600060208284031215611ba4578081fd5b6114e382611b51565b60008060408385031215611bbf578081fd5b611bc883611b51565b9150611bd660208401611b79565b90509250929050565b60008060008060808587031215611bf4578182fd5b611bfd85611b51565b9350611c0b60208601611b68565b925060408501359150611c2060608601611b68565b905092959194509250565b600060608284031215611c3c578081fd5b6040516060810181811067ffffffffffffffff82111715611c6b57634e487b7160e01b83526041600452602483fd5b80604052508251815260208301516020820152604083015160408201528091505092915050565b600060208284031215611ca3578081fd5b5051919050565b60008060408385031215611cbc578182fd5b505080516020909101519092909150565b600060208284031215611cde578081fd5b6114e382611b68565b600060208284031215611cf8578081fd5b6114e382611b79565b600080600060608486031215611d15578283fd5b611d1e84611b68565b925060208401359150611d3360408501611b68565b90509250925092565b6001600160a01b03169052565b60068110611d5957611d5961238c565b9052565b805182526001600160a01b03602082015116602083015260ff6040820151166040830152606081015160038110611d9657611d9661238c565b60608301526080908101511515910152565b60006101a08084016001600160a01b038451168552602080850151611dcf82880182611d5d565b5060408086015160c0611de4818a0183611e70565b6060888101516101608b01979097528651958690526101c08a019685019590925087905b80821015611e565786518051895286810151878a015285810151868a015284810151858a0152608080820151908a015260a09081015190890152968201969585019560019190910190611e08565b505050505050506080830151610e6d610180860182611d49565b80518252602081015160208301526040810151604083015260608101516060830152608081015160808301525050565b600060a0830162ffffff835116845260208084015115158186015260408085015115158187015260608086015160a08289015284815180875260c08a01915085830196508792505b80831015611f1c57865180518352868101518784015285015160ff1685830152958501956001929092019190830190611ee8565b50608088015195506111c460808a0187611d3c565b6001600160a01b03948516815292841660208401529083166040830152909116606082015260800190565b6000602080830181845280855180835260408601915060408482028701019250838701855b82811015611faf57603f19888603018452611f9d858351611ea0565b94509285019290850190600101611f81565b5092979650505050505050565b6020808252825182820181905260009190848201906040850190845b81811015611ffe57835167ffffffffffffffff1683529284019291840191600101611fd8565b50909695505050505050565b602081016114e68284611d49565b6000602080835283518082850152825b8181101561204457858101830151858201604001528201612028565b818111156120555783604083870101525b50601f01601f1916929092016040019392505050565b60208082526013908201527f6e6f2d726577617264732d746f2d63616c696d00000000000000000000000000604082015260600190565b6020808252601a908201527f43727970746f4d61726b65743a3a696e76616c69642d706f6f6c000000000000604082015260600190565b60208082526017908201527f726577617264732d616c72656164792d636c61696d6564000000000000000000604082015260600190565b60208082526010908201527f696e76616c69642d6c6576657261676500000000000000000000000000000000604082015260600190565b6020808252600f908201527f696e76616c69642d726577617264730000000000000000000000000000000000604082015260600190565b6020808252601e908201527f43727970746f4d61726b65743a3a696e76616c69642d6c657665726167650000604082015260600190565b60a081016114e68284611d5d565b6000602082526114e36020830184611da8565b60a081016114e68284611e70565b6000602082526114e36020830184611ea0565b60006040825261220a6040830185611ea0565b828103602084015261221c8185611da8565b95945050505050565b8151815260208083015190820152604080830151908201526060918201519181019190915260800190565b90815260200190565b9182521515602082015260400190565b91825269ffffffffffffffffffff16602082015260400190565b67ffffffffffffffff91909116815260200190565b60ff91909116815260200190565b600062ffffff8083168185168083038211156122c4576122c4612376565b01949350505050565b600082198211156122e0576122e0612376565b500190565b60008261230057634e487b7160e01b81526012600452602481fd5b500490565b600081600019048311821515161561231f5761231f612376565b500290565b60008282101561233657612336612376565b500390565b600060001982141561234f5761234f612376565b5060010190565b600060ff821660ff81141561236d5761236d612376565b60010192915050565b634e487b7160e01b600052601160045260246000fd5b634e487b7160e01b600052602160045260246000fdfea164736f6c6343000800000a",
  "linkReferences": {},
  "deployedLinkReferences": {}
}