{
  "_format": "hh-sol-artifact-1",
  "contractName": "Gateway",
  "sourceName": "contracts/Gateway.sol",
  "abi": [
    {
      "inputs": [
        {
          "internalType": "uint8",
          "name": "_maxNumberOfClaims",
          "type": "uint8"
        },
        {
          "internalType": "address",
          "name": "_multiSig",
          "type": "address"
        }
      ],
      "stateMutability": "nonpayable",
      "type": "constructor"
    },
    {
      "anonymous": false,
      "inputs": [
        {
          "indexed": false,
          "internalType": "address",
          "name": "account",
          "type": "address"
        }
      ],
      "name": "Paused",
      "type": "event"
    },
    {
      "anonymous": false,
      "inputs": [
        {
          "indexed": false,
          "internalType": "address",
          "name": "account",
          "type": "address"
        }
      ],
      "name": "Unpaused",
      "type": "event"
    },
    {
      "inputs": [
        {
          "internalType": "address[]",
          "name": "_markets",
          "type": "address[]"
        }
      ],
      "name": "claimBatchReturns",
      "outputs": [],
      "stateMutability": "nonpayable",
      "type": "function"
    },
    {
      "inputs": [
        {
          "internalType": "address",
          "name": "_market",
          "type": "address"
        }
      ],
      "name": "claimReturns",
      "outputs": [],
      "stateMutability": "nonpayable",
      "type": "function"
    },
    {
      "inputs": [],
      "name": "maxNumberOfClaims",
      "outputs": [
        {
          "internalType": "uint8",
          "name": "",
          "type": "uint8"
        }
      ],
      "stateMutability": "view",
      "type": "function"
    },
    {
      "inputs": [],
      "name": "owner",
      "outputs": [
        {
          "internalType": "address",
          "name": "",
          "type": "address"
        }
      ],
      "stateMutability": "view",
      "type": "function"
    },
    {
      "inputs": [],
      "name": "pause",
      "outputs": [],
      "stateMutability": "nonpayable",
      "type": "function"
    },
    {
      "inputs": [],
      "name": "paused",
      "outputs": [
        {
          "internalType": "bool",
          "name": "",
          "type": "bool"
        }
      ],
      "stateMutability": "view",
      "type": "function"
    },
    {
      "inputs": [
        {
          "internalType": "address",
          "name": "_market",
          "type": "address"
        },
        {
          "internalType": "uint8",
          "name": "_prediction",
          "type": "uint8"
        },
        {
          "internalType": "uint256",
          "name": "_amount",
          "type": "uint256"
        },
        {
          "internalType": "uint8",
          "name": "_leverage",
          "type": "uint8"
        }
      ],
      "name": "placePrediction",
      "outputs": [],
      "stateMutability": "nonpayable",
      "type": "function"
    },
    {
      "inputs": [
        {
          "internalType": "address",
          "name": "_market",
          "type": "address"
        },
        {
          "internalType": "uint80",
          "name": "_roundId",
          "type": "uint80"
        }
      ],
      "name": "settleMarket",
      "outputs": [],
      "stateMutability": "nonpayable",
      "type": "function"
    },
    {
      "inputs": [
        {
          "internalType": "address",
          "name": "_market",
          "type": "address"
        },
        {
          "internalType": "uint256",
          "name": "_winningPrice",
          "type": "uint256"
        }
      ],
      "name": "settleMarketExternal",
      "outputs": [],
      "stateMutability": "nonpayable",
      "type": "function"
    },
    {
      "inputs": [],
      "name": "unpause",
      "outputs": [],
      "stateMutability": "nonpayable",
      "type": "function"
    }
  ],
  "bytecode": "0x60a060405234801561001057600080fd5b50604051610d43380380610d4383398101604081905261002f91610066565b60016000819055805461ffff191661010060ff94909416939093029290921790915560601b6001600160601b0319166080526100af565b60008060408385031215610078578182fd5b825160ff81168114610088578283fd5b60208401519092506001600160a01b03811681146100a4578182fd5b809150509250929050565b60805160601c610c616100e260003960008181610561015281816105a90152818161069401526106c80152610c616000f3fe608060405234801561001057600080fd5b50600436106100be5760003560e01c80635c975abb116100765780638456cb591161005b5780638456cb591461014c5780638da5cb5b14610154578063ac2bfe6d14610169576100be565b80635c975abb1461012457806375300ba214610139576100be565b80631c059196116100a75780631c059196146100eb578063378681b7146100fe5780633f4ba83a1461011c576100be565b806308be11bb146100c357806316af4453146100d8575b600080fd5b6100d66100d136600461094c565b61017c565b005b6100d66100e636600461084e565b6102d1565b6100d66100f93660046108fe565b6103a5565b610106610548565b6040516101139190610bf1565b60405180910390f35b6100d6610556565b61012c610595565b6040516101139190610b0a565b6100d661014736600461088d565b61059e565b6100d6610689565b61015c6106c6565b6040516101139190610a68565b6100d66101773660046108b8565b6106ea565b600260005414156101a85760405162461bcd60e51b815260040161019f90610bba565b60405180910390fd5b60026000556101b5610595565b156101d25760405162461bcd60e51b815260040161019f90610b4c565b60018054906101000a900460ff1660ff16815110156102035760405162461bcd60e51b815260040161019f90610b83565b60005b81518110156102c85781818151811061022f57634e487b7160e01b600052603260045260246000fd5b60200260200101516001600160a01b03166316af4453336040518263ffffffff1660e01b81526004016102629190610a68565b6040805180830381600087803b15801561027b57600080fd5b505af115801561028f573d6000803e3d6000fd5b505050506040513d601f19601f820116820180604052508101906102b39190610a45565b505080806102c090610bff565b915050610206565b50506001600055565b600260005414156102f45760405162461bcd60e51b815260040161019f90610bba565b6002600055610301610595565b1561031e5760405162461bcd60e51b815260040161019f90610b4c565b6040516316af445360e01b81526001600160a01b038216906316af44539061034a903390600401610a68565b6040805180830381600087803b15801561036357600080fd5b505af1158015610377573d6000803e3d6000fd5b505050506040513d601f19601f8201168201806040525081019061039b9190610a45565b5050600160005550565b6103ad610595565b156103ca5760405162461bcd60e51b815260040161019f90610b4c565b836001600160a01b0316633fe494676040518163ffffffff1660e01b815260040160206040518083038186803b15801561040357600080fd5b505afa158015610417573d6000803e3d6000fd5b505050506040513d601f19601f8201168201806040525081019061043b9190610871565b6001600160a01b03166323b872dd3386856040518463ffffffff1660e01b815260040161046a93929190610a7c565b602060405180830381600087803b15801561048457600080fd5b505af1158015610498573d6000803e3d6000fd5b505050506040513d601f19601f820116820180604052508101906104bc9190610a0d565b50604051630e02c8cb60e11b81526001600160a01b03851690631c059196906104ef903390879087908790600401610ade565b602060405180830381600087803b15801561050957600080fd5b505af115801561051d573d6000803e3d6000fd5b505050506040513d601f19601f820116820180604052508101906105419190610a2d565b5050505050565b600154610100900460ff1681565b336001600160a01b037f0000000000000000000000000000000000000000000000000000000000000000161461058b57600080fd5b610593610765565b565b60015460ff1690565b336001600160a01b037f000000000000000000000000000000000000000000000000000000000000000016146105d357600080fd5b600260005414156105f65760405162461bcd60e51b815260040161019f90610bba565b6002600055610603610595565b156106205760405162461bcd60e51b815260040161019f90610b4c565b604051633a9805d160e11b81526001600160a01b038316906375300ba29061064e9033908590600401610aa0565b600060405180830381600087803b15801561066857600080fd5b505af115801561067c573d6000803e3d6000fd5b5050600160005550505050565b336001600160a01b037f000000000000000000000000000000000000000000000000000000000000000016146106be57600080fd5b6105936107d3565b7f000000000000000000000000000000000000000000000000000000000000000081565b6002600054141561070d5760405162461bcd60e51b815260040161019f90610bba565b600260005561071a610595565b156107375760405162461bcd60e51b815260040161019f90610b4c565b60405163ac2bfe6d60e01b81526001600160a01b0383169063ac2bfe6d9061064e9033908590600401610ab9565b61076d610595565b6107895760405162461bcd60e51b815260040161019f90610b15565b6001805460ff191690557f5db9ee0a495bf2e6ff9c91a7834c1ba4fdd244a5e8aa4e537bd38aeae4b073aa6107bc610829565b6040516107c99190610a68565b60405180910390a1565b6107db610595565b156107f85760405162461bcd60e51b815260040161019f90610b4c565b6001805460ff1916811790557f62e78cea01bee320cd4e420270b5ea74000d11b0c9f74754ebdbfc544b05a2586107bc5b3390565b803561083881610c3c565b919050565b803560ff8116811461083857600080fd5b60006020828403121561085f578081fd5b813561086a81610c3c565b9392505050565b600060208284031215610882578081fd5b815161086a81610c3c565b6000806040838503121561089f578081fd5b82356108aa81610c3c565b946020939093013593505050565b600080604083850312156108ca578182fd5b82356108d581610c3c565b9150602083013569ffffffffffffffffffff811681146108f3578182fd5b809150509250929050565b60008060008060808587031215610913578182fd5b843561091e81610c3c565b935061092c6020860161083d565b9250604085013591506109416060860161083d565b905092959194509250565b6000602080838503121561095e578182fd5b823567ffffffffffffffff80821115610975578384fd5b818501915085601f830112610988578384fd5b81358181111561099a5761099a610c26565b838102604051858282010181811085821117156109b9576109b9610c26565b604052828152858101935084860182860187018a10156109d7578788fd5b8795505b83861015610a00576109ec8161082d565b8552600195909501949386019386016109db565b5098975050505050505050565b600060208284031215610a1e578081fd5b8151801515811461086a578182fd5b600060208284031215610a3e578081fd5b5051919050565b60008060408385031215610a57578182fd5b505080516020909101519092909150565b6001600160a01b0391909116815260200190565b6001600160a01b039384168152919092166020820152604081019190915260600190565b6001600160a01b03929092168252602082015260400190565b6001600160a01b0392909216825269ffffffffffffffffffff16602082015260400190565b6001600160a01b0394909416845260ff9283166020850152604084019190915216606082015260800190565b901515815260200190565b60208082526014908201527f5061757361626c653a206e6f7420706175736564000000000000000000000000604082015260600190565b60208082526010908201527f5061757361626c653a2070617573656400000000000000000000000000000000604082015260600190565b60208082526019908201527f746f6f2d6d616e792d636c61696d732d72657175657374656400000000000000604082015260600190565b6020808252601f908201527f5265656e7472616e637947756172643a207265656e7472616e742063616c6c00604082015260600190565b60ff91909116815260200190565b6000600019821415610c1f57634e487b7160e01b81526011600452602481fd5b5060010190565b634e487b7160e01b600052604160045260246000fd5b6001600160a01b0381168114610c5157600080fd5b5056fea164736f6c6343000800000a",
  "linkReferences": {},
  "deployedLinkReferences": {}
}