{
  "_format": "hh-sol-artifact-1",
  "contractName": "Gateway",
  "sourceName": "contracts/Gateway.sol",
  "abi": [
    {
      "inputs": [
        {
          "internalType": "uint8",
          "name": "_maxNumberOfClaims",
          "type": "uint8"
        },
        {
          "internalType": "address",
          "name": "_multiSig",
          "type": "address"
        }
      ],
      "stateMutability": "nonpayable",
      "type": "constructor"
    },
    {
      "anonymous": false,
      "inputs": [
        {
          "indexed": false,
          "internalType": "address",
          "name": "account",
          "type": "address"
        }
      ],
      "name": "Paused",
      "type": "event"
    },
    {
      "anonymous": false,
      "inputs": [
        {
          "indexed": false,
          "internalType": "address",
          "name": "account",
          "type": "address"
        }
      ],
      "name": "Unpaused",
      "type": "event"
    },
    {
      "inputs": [
        {
          "internalType": "address[]",
          "name": "_markets",
          "type": "address[]"
        }
      ],
      "name": "claimBatchReturns",
      "outputs": [],
      "stateMutability": "nonpayable",
      "type": "function"
    },
    {
      "inputs": [
        {
          "internalType": "address",
          "name": "_market",
          "type": "address"
        }
      ],
      "name": "claimReturns",
      "outputs": [],
      "stateMutability": "nonpayable",
      "type": "function"
    },
    {
      "inputs": [],
      "name": "maxNumberOfClaims",
      "outputs": [
        {
          "internalType": "uint8",
          "name": "",
          "type": "uint8"
        }
      ],
      "stateMutability": "view",
      "type": "function"
    },
    {
      "inputs": [],
      "name": "owner",
      "outputs": [
        {
          "internalType": "address",
          "name": "",
          "type": "address"
        }
      ],
      "stateMutability": "view",
      "type": "function"
    },
    {
      "inputs": [],
      "name": "pause",
      "outputs": [],
      "stateMutability": "nonpayable",
      "type": "function"
    },
    {
      "inputs": [],
      "name": "paused",
      "outputs": [
        {
          "internalType": "bool",
          "name": "",
          "type": "bool"
        }
      ],
      "stateMutability": "view",
      "type": "function"
    },
    {
      "inputs": [
        {
          "internalType": "address",
          "name": "_market",
          "type": "address"
        },
        {
          "internalType": "uint8",
          "name": "_prediction",
          "type": "uint8"
        },
        {
          "internalType": "uint256",
          "name": "_amount",
          "type": "uint256"
        },
        {
          "internalType": "uint8",
          "name": "_leverage",
          "type": "uint8"
        }
      ],
      "name": "placePrediction",
      "outputs": [],
      "stateMutability": "nonpayable",
      "type": "function"
    },
    {
      "inputs": [
        {
          "internalType": "address",
          "name": "_market",
          "type": "address"
        },
        {
          "internalType": "uint80",
          "name": "_roundId",
          "type": "uint80"
        }
      ],
      "name": "settleMarket",
      "outputs": [],
      "stateMutability": "nonpayable",
      "type": "function"
    },
    {
      "inputs": [
        {
          "internalType": "address",
          "name": "_market",
          "type": "address"
        },
        {
          "internalType": "uint256",
          "name": "_winningPrice",
          "type": "uint256"
        }
      ],
      "name": "settleMarketExternal",
      "outputs": [],
      "stateMutability": "nonpayable",
      "type": "function"
    },
    {
      "inputs": [],
      "name": "unpause",
      "outputs": [],
      "stateMutability": "nonpayable",
      "type": "function"
    }
  ],
  "bytecode": "0x60a060405234801561001057600080fd5b50604051610bdc380380610bdc83398101604081905261002f91610066565b60016000819055805461ffff191661010060ff94909416939093029290921790915560601b6001600160601b0319166080526100af565b60008060408385031215610078578182fd5b825160ff81168114610088578283fd5b60208401519092506001600160a01b03811681146100a4578182fd5b809150509250929050565b60805160601c610afa6100e26000396000818161046e015281816104b6015281816105a101526105d50152610afa6000f3fe608060405234801561001057600080fd5b50600436106100be5760003560e01c80635c975abb116100765780638456cb591161005b5780638456cb591461014c5780638da5cb5b14610154578063ac2bfe6d14610169576100be565b80635c975abb1461012457806375300ba214610139576100be565b80631c059196116100a75780631c059196146100eb578063378681b7146100fe5780633f4ba83a1461011c576100be565b806308be11bb146100c357806316af4453146100d8575b600080fd5b6100d66100d1366004610841565b61017c565b005b6100d66100e6366004610767565b6102d1565b6100d66100f93660046107f5565b6103a5565b610106610455565b6040516101139190610aa2565b60405180910390f35b6100d6610463565b61012c6104a2565b60405161011391906109bb565b6100d6610147366004610788565b6104ab565b6100d6610596565b61015c6105d3565b604051610113919061093d565b6100d66101773660046107b1565b6105f7565b600260005414156101a85760405162461bcd60e51b815260040161019f90610a6b565b60405180910390fd5b60026000556101b56104a2565b156101d25760405162461bcd60e51b815260040161019f906109fd565b60018054906101000a900460ff1660ff16815110156102035760405162461bcd60e51b815260040161019f90610a34565b60005b81518110156102c85781818151811061022f57634e487b7160e01b600052603260045260246000fd5b60200260200101516001600160a01b03166316af4453336040518263ffffffff1660e01b8152600401610262919061093d565b6040805180830381600087803b15801561027b57600080fd5b505af115801561028f573d6000803e3d6000fd5b505050506040513d601f19601f820116820180604052508101906102b3919061091a565b505080806102c090610ab0565b915050610206565b50506001600055565b600260005414156102f45760405162461bcd60e51b815260040161019f90610a6b565b60026000556103016104a2565b1561031e5760405162461bcd60e51b815260040161019f906109fd565b6040516316af445360e01b81526001600160a01b038216906316af44539061034a90339060040161093d565b6040805180830381600087803b15801561036357600080fd5b505af1158015610377573d6000803e3d6000fd5b505050506040513d601f19601f8201168201806040525081019061039b919061091a565b5050600160005550565b6103ad6104a2565b156103ca5760405162461bcd60e51b815260040161019f906109fd565b604051630e02c8cb60e11b81526001600160a01b03851690631c059196906103fc90339087908790879060040161098f565b602060405180830381600087803b15801561041657600080fd5b505af115801561042a573d6000803e3d6000fd5b505050506040513d601f19601f8201168201806040525081019061044e9190610902565b5050505050565b600154610100900460ff1681565b336001600160a01b037f0000000000000000000000000000000000000000000000000000000000000000161461049857600080fd5b6104a0610672565b565b60015460ff1690565b336001600160a01b037f000000000000000000000000000000000000000000000000000000000000000016146104e057600080fd5b600260005414156105035760405162461bcd60e51b815260040161019f90610a6b565b60026000556105106104a2565b1561052d5760405162461bcd60e51b815260040161019f906109fd565b604051633a9805d160e11b81526001600160a01b038316906375300ba29061055b9033908590600401610951565b600060405180830381600087803b15801561057557600080fd5b505af1158015610589573d6000803e3d6000fd5b5050600160005550505050565b336001600160a01b037f000000000000000000000000000000000000000000000000000000000000000016146105cb57600080fd5b6104a06106e0565b7f000000000000000000000000000000000000000000000000000000000000000081565b6002600054141561061a5760405162461bcd60e51b815260040161019f90610a6b565b60026000556106276104a2565b156106445760405162461bcd60e51b815260040161019f906109fd565b60405163ac2bfe6d60e01b81526001600160a01b0383169063ac2bfe6d9061055b903390859060040161096a565b61067a6104a2565b6106965760405162461bcd60e51b815260040161019f906109c6565b6001805460ff191690557f5db9ee0a495bf2e6ff9c91a7834c1ba4fdd244a5e8aa4e537bd38aeae4b073aa6106c9610736565b6040516106d6919061093d565b60405180910390a1565b6106e86104a2565b156107055760405162461bcd60e51b815260040161019f906109fd565b6001805460ff1916811790557f62e78cea01bee320cd4e420270b5ea74000d11b0c9f74754ebdbfc544b05a2586106c95b3390565b80356001600160a01b038116811461075157600080fd5b919050565b803560ff8116811461075157600080fd5b600060208284031215610778578081fd5b6107818261073a565b9392505050565b6000806040838503121561079a578081fd5b6107a38361073a565b946020939093013593505050565b600080604083850312156107c3578182fd5b6107cc8361073a565b9150602083013569ffffffffffffffffffff811681146107ea578182fd5b809150509250929050565b6000806000806080858703121561080a578182fd5b6108138561073a565b935061082160208601610756565b92506040850135915061083660608601610756565b905092959194509250565b60006020808385031215610853578182fd5b823567ffffffffffffffff8082111561086a578384fd5b818501915085601f83011261087d578384fd5b81358181111561088f5761088f610ad7565b838102604051858282010181811085821117156108ae576108ae610ad7565b604052828152858101935084860182860187018a10156108cc578788fd5b8795505b838610156108f5576108e18161073a565b8552600195909501949386019386016108d0565b5098975050505050505050565b600060208284031215610913578081fd5b5051919050565b6000806040838503121561092c578182fd5b505080516020909101519092909150565b6001600160a01b0391909116815260200190565b6001600160a01b03929092168252602082015260400190565b6001600160a01b0392909216825269ffffffffffffffffffff16602082015260400190565b6001600160a01b0394909416845260ff9283166020850152604084019190915216606082015260800190565b901515815260200190565b60208082526014908201527f5061757361626c653a206e6f7420706175736564000000000000000000000000604082015260600190565b60208082526010908201527f5061757361626c653a2070617573656400000000000000000000000000000000604082015260600190565b60208082526019908201527f746f6f2d6d616e792d636c61696d732d72657175657374656400000000000000604082015260600190565b6020808252601f908201527f5265656e7472616e637947756172643a207265656e7472616e742063616c6c00604082015260600190565b60ff91909116815260200190565b6000600019821415610ad057634e487b7160e01b81526011600452602481fd5b5060010190565b634e487b7160e01b600052604160045260246000fdfea164736f6c6343000800000a",
  "linkReferences": {},
  "deployedLinkReferences": {}
}