{
  "_format": "hh-sol-artifact-1",
  "contractName": "KoalaToken",
  "sourceName": "contracts/core/KoalaToken.sol",
  "abi": [
    {
      "inputs": [
        {
          "internalType": "string",
          "name": "_name",
          "type": "string"
        },
        {
          "internalType": "string",
          "name": "_symbol",
          "type": "string"
        },
        {
          "internalType": "uint256",
          "name": "_totalSupply",
          "type": "uint256"
        }
      ],
      "stateMutability": "nonpayable",
      "type": "constructor"
    },
    {
      "anonymous": false,
      "inputs": [
        {
          "indexed": true,
          "internalType": "address",
          "name": "owner",
          "type": "address"
        },
        {
          "indexed": true,
          "internalType": "address",
          "name": "spender",
          "type": "address"
        },
        {
          "indexed": false,
          "internalType": "uint256",
          "name": "value",
          "type": "uint256"
        }
      ],
      "name": "Approval",
      "type": "event"
    },
    {
      "anonymous": false,
      "inputs": [
        {
          "indexed": false,
          "internalType": "address",
          "name": "account",
          "type": "address"
        }
      ],
      "name": "Paused",
      "type": "event"
    },
    {
      "anonymous": false,
      "inputs": [
        {
          "indexed": true,
          "internalType": "bytes32",
          "name": "role",
          "type": "bytes32"
        },
        {
          "indexed": true,
          "internalType": "bytes32",
          "name": "previousAdminRole",
          "type": "bytes32"
        },
        {
          "indexed": true,
          "internalType": "bytes32",
          "name": "newAdminRole",
          "type": "bytes32"
        }
      ],
      "name": "RoleAdminChanged",
      "type": "event"
    },
    {
      "anonymous": false,
      "inputs": [
        {
          "indexed": true,
          "internalType": "bytes32",
          "name": "role",
          "type": "bytes32"
        },
        {
          "indexed": true,
          "internalType": "address",
          "name": "account",
          "type": "address"
        },
        {
          "indexed": true,
          "internalType": "address",
          "name": "sender",
          "type": "address"
        }
      ],
      "name": "RoleGranted",
      "type": "event"
    },
    {
      "anonymous": false,
      "inputs": [
        {
          "indexed": true,
          "internalType": "bytes32",
          "name": "role",
          "type": "bytes32"
        },
        {
          "indexed": true,
          "internalType": "address",
          "name": "account",
          "type": "address"
        },
        {
          "indexed": true,
          "internalType": "address",
          "name": "sender",
          "type": "address"
        }
      ],
      "name": "RoleRevoked",
      "type": "event"
    },
    {
      "anonymous": false,
      "inputs": [
        {
          "indexed": true,
          "internalType": "address",
          "name": "from",
          "type": "address"
        },
        {
          "indexed": true,
          "internalType": "address",
          "name": "to",
          "type": "address"
        },
        {
          "indexed": false,
          "internalType": "uint256",
          "name": "value",
          "type": "uint256"
        }
      ],
      "name": "Transfer",
      "type": "event"
    },
    {
      "anonymous": false,
      "inputs": [
        {
          "indexed": false,
          "internalType": "address",
          "name": "account",
          "type": "address"
        }
      ],
      "name": "Unpaused",
      "type": "event"
    },
    {
      "inputs": [],
      "name": "DEFAULT_ADMIN_ROLE",
      "outputs": [
        {
          "internalType": "bytes32",
          "name": "",
          "type": "bytes32"
        }
      ],
      "stateMutability": "view",
      "type": "function"
    },
    {
      "inputs": [],
      "name": "MINTER_ROLE",
      "outputs": [
        {
          "internalType": "bytes32",
          "name": "",
          "type": "bytes32"
        }
      ],
      "stateMutability": "view",
      "type": "function"
    },
    {
      "inputs": [],
      "name": "PAUSER_ROLE",
      "outputs": [
        {
          "internalType": "bytes32",
          "name": "",
          "type": "bytes32"
        }
      ],
      "stateMutability": "view",
      "type": "function"
    },
    {
      "inputs": [
        {
          "internalType": "address",
          "name": "owner",
          "type": "address"
        },
        {
          "internalType": "address",
          "name": "spender",
          "type": "address"
        }
      ],
      "name": "allowance",
      "outputs": [
        {
          "internalType": "uint256",
          "name": "",
          "type": "uint256"
        }
      ],
      "stateMutability": "view",
      "type": "function"
    },
    {
      "inputs": [
        {
          "internalType": "address",
          "name": "spender",
          "type": "address"
        },
        {
          "internalType": "uint256",
          "name": "amount",
          "type": "uint256"
        }
      ],
      "name": "approve",
      "outputs": [
        {
          "internalType": "bool",
          "name": "",
          "type": "bool"
        }
      ],
      "stateMutability": "nonpayable",
      "type": "function"
    },
    {
      "inputs": [
        {
          "internalType": "address",
          "name": "account",
          "type": "address"
        }
      ],
      "name": "balanceOf",
      "outputs": [
        {
          "internalType": "uint256",
          "name": "",
          "type": "uint256"
        }
      ],
      "stateMutability": "view",
      "type": "function"
    },
    {
      "inputs": [
        {
          "internalType": "uint256",
          "name": "amount",
          "type": "uint256"
        }
      ],
      "name": "burn",
      "outputs": [],
      "stateMutability": "nonpayable",
      "type": "function"
    },
    {
      "inputs": [
        {
          "internalType": "address",
          "name": "account",
          "type": "address"
        },
        {
          "internalType": "uint256",
          "name": "amount",
          "type": "uint256"
        }
      ],
      "name": "burnFrom",
      "outputs": [],
      "stateMutability": "nonpayable",
      "type": "function"
    },
    {
      "inputs": [],
      "name": "cap",
      "outputs": [
        {
          "internalType": "uint256",
          "name": "",
          "type": "uint256"
        }
      ],
      "stateMutability": "view",
      "type": "function"
    },
    {
      "inputs": [],
      "name": "decimals",
      "outputs": [
        {
          "internalType": "uint8",
          "name": "",
          "type": "uint8"
        }
      ],
      "stateMutability": "view",
      "type": "function"
    },
    {
      "inputs": [
        {
          "internalType": "address",
          "name": "spender",
          "type": "address"
        },
        {
          "internalType": "uint256",
          "name": "subtractedValue",
          "type": "uint256"
        }
      ],
      "name": "decreaseAllowance",
      "outputs": [
        {
          "internalType": "bool",
          "name": "",
          "type": "bool"
        }
      ],
      "stateMutability": "nonpayable",
      "type": "function"
    },
    {
      "inputs": [
        {
          "internalType": "bytes32",
          "name": "role",
          "type": "bytes32"
        }
      ],
      "name": "getRoleAdmin",
      "outputs": [
        {
          "internalType": "bytes32",
          "name": "",
          "type": "bytes32"
        }
      ],
      "stateMutability": "view",
      "type": "function"
    },
    {
      "inputs": [
        {
          "internalType": "bytes32",
          "name": "role",
          "type": "bytes32"
        },
        {
          "internalType": "uint256",
          "name": "index",
          "type": "uint256"
        }
      ],
      "name": "getRoleMember",
      "outputs": [
        {
          "internalType": "address",
          "name": "",
          "type": "address"
        }
      ],
      "stateMutability": "view",
      "type": "function"
    },
    {
      "inputs": [
        {
          "internalType": "bytes32",
          "name": "role",
          "type": "bytes32"
        }
      ],
      "name": "getRoleMemberCount",
      "outputs": [
        {
          "internalType": "uint256",
          "name": "",
          "type": "uint256"
        }
      ],
      "stateMutability": "view",
      "type": "function"
    },
    {
      "inputs": [
        {
          "internalType": "bytes32",
          "name": "role",
          "type": "bytes32"
        },
        {
          "internalType": "address",
          "name": "account",
          "type": "address"
        }
      ],
      "name": "grantRole",
      "outputs": [],
      "stateMutability": "nonpayable",
      "type": "function"
    },
    {
      "inputs": [
        {
          "internalType": "bytes32",
          "name": "role",
          "type": "bytes32"
        },
        {
          "internalType": "address",
          "name": "account",
          "type": "address"
        }
      ],
      "name": "hasRole",
      "outputs": [
        {
          "internalType": "bool",
          "name": "",
          "type": "bool"
        }
      ],
      "stateMutability": "view",
      "type": "function"
    },
    {
      "inputs": [
        {
          "internalType": "address",
          "name": "spender",
          "type": "address"
        },
        {
          "internalType": "uint256",
          "name": "addedValue",
          "type": "uint256"
        }
      ],
      "name": "increaseAllowance",
      "outputs": [
        {
          "internalType": "bool",
          "name": "",
          "type": "bool"
        }
      ],
      "stateMutability": "nonpayable",
      "type": "function"
    },
    {
      "inputs": [
        {
          "internalType": "address",
          "name": "to",
          "type": "address"
        },
        {
          "internalType": "uint256",
          "name": "amount",
          "type": "uint256"
        }
      ],
      "name": "mint",
      "outputs": [],
      "stateMutability": "nonpayable",
      "type": "function"
    },
    {
      "inputs": [],
      "name": "name",
      "outputs": [
        {
          "internalType": "string",
          "name": "",
          "type": "string"
        }
      ],
      "stateMutability": "view",
      "type": "function"
    },
    {
      "inputs": [],
      "name": "pause",
      "outputs": [],
      "stateMutability": "nonpayable",
      "type": "function"
    },
    {
      "inputs": [],
      "name": "paused",
      "outputs": [
        {
          "internalType": "bool",
          "name": "",
          "type": "bool"
        }
      ],
      "stateMutability": "view",
      "type": "function"
    },
    {
      "inputs": [
        {
          "internalType": "bytes32",
          "name": "role",
          "type": "bytes32"
        },
        {
          "internalType": "address",
          "name": "account",
          "type": "address"
        }
      ],
      "name": "renounceRole",
      "outputs": [],
      "stateMutability": "nonpayable",
      "type": "function"
    },
    {
      "inputs": [
        {
          "internalType": "bytes32",
          "name": "role",
          "type": "bytes32"
        },
        {
          "internalType": "address",
          "name": "account",
          "type": "address"
        }
      ],
      "name": "revokeRole",
      "outputs": [],
      "stateMutability": "nonpayable",
      "type": "function"
    },
    {
      "inputs": [
        {
          "internalType": "bytes4",
          "name": "interfaceId",
          "type": "bytes4"
        }
      ],
      "name": "supportsInterface",
      "outputs": [
        {
          "internalType": "bool",
          "name": "",
          "type": "bool"
        }
      ],
      "stateMutability": "view",
      "type": "function"
    },
    {
      "inputs": [],
      "name": "symbol",
      "outputs": [
        {
          "internalType": "string",
          "name": "",
          "type": "string"
        }
      ],
      "stateMutability": "view",
      "type": "function"
    },
    {
      "inputs": [],
      "name": "totalSupply",
      "outputs": [
        {
          "internalType": "uint256",
          "name": "",
          "type": "uint256"
        }
      ],
      "stateMutability": "view",
      "type": "function"
    },
    {
      "inputs": [
        {
          "internalType": "address",
          "name": "recipient",
          "type": "address"
        },
        {
          "internalType": "uint256",
          "name": "amount",
          "type": "uint256"
        }
      ],
      "name": "transfer",
      "outputs": [
        {
          "internalType": "bool",
          "name": "",
          "type": "bool"
        }
      ],
      "stateMutability": "nonpayable",
      "type": "function"
    },
    {
      "inputs": [
        {
          "internalType": "address",
          "name": "sender",
          "type": "address"
        },
        {
          "internalType": "address",
          "name": "recipient",
          "type": "address"
        },
        {
          "internalType": "uint256",
          "name": "amount",
          "type": "uint256"
        }
      ],
      "name": "transferFrom",
      "outputs": [
        {
          "internalType": "bool",
          "name": "",
          "type": "bool"
        }
      ],
      "stateMutability": "nonpayable",
      "type": "function"
    },
    {
      "inputs": [],
      "name": "unpause",
      "outputs": [],
      "stateMutability": "nonpayable",
      "type": "function"
    }
  ],
  "bytecode": "0x60a06040523480156200001157600080fd5b506040516200227138038062002271833981016040819052620000349162000400565b80838381600590805190602001906200004f929190620002af565b50805162000065906006906020840190620002af565b50505060008111620000945760405162461bcd60e51b81526004016200008b9062000470565b60405180910390fd5b6080526007805460ff19169055620000b76000620000b16200011e565b62000122565b620000e67f9f2df0fed2c77648de5860a4cc508cd0818c85b8b8a1ab4ceeef8d981c8956a6620000b16200011e565b620001157f65d7a28e3265b37a6474929f336521b332c1681b933f6cb9f3376673440d862a620000b16200011e565b505050620004fa565b3390565b6200013982826200016560201b620009261760201c565b6000828152600160209081526040909120620001609183906200093062000175821b17901c565b505050565b62000171828262000195565b5050565b60006200018c836001600160a01b0384166200021f565b90505b92915050565b620001a182826200026e565b62000171576000828152602081815260408083206001600160a01b03851684529091529020805460ff19166001179055620001db6200011e565b6001600160a01b0316816001600160a01b0316837f2f8788117e7eff1d82e926ec794901d17c78024a50270940304540a733656f0d60405160405180910390a45050565b60006200022d838362000297565b62000265575081546001818101845560008481526020808220909301849055845484825282860190935260409020919091556200018f565b5060006200018f565b6000918252602082815260408084206001600160a01b0393909316845291905290205460ff1690565b60009081526001919091016020526040902054151590565b828054620002bd90620004a7565b90600052602060002090601f016020900481019282620002e157600085556200032c565b82601f10620002fc57805160ff19168380011785556200032c565b828001600101855582156200032c579182015b828111156200032c5782518255916020019190600101906200030f565b506200033a9291506200033e565b5090565b5b808211156200033a57600081556001016200033f565b600082601f83011262000366578081fd5b81516001600160401b0380821115620003835762000383620004e4565b6040516020601f8401601f1916820181018381118382101715620003ab57620003ab620004e4565b6040528382528584018101871015620003c2578485fd5b8492505b83831015620003e55785830181015182840182015291820191620003c6565b83831115620003f657848185840101525b5095945050505050565b60008060006060848603121562000415578283fd5b83516001600160401b03808211156200042c578485fd5b6200043a8783880162000355565b9450602086015191508082111562000450578384fd5b506200045f8682870162000355565b925050604084015190509250925092565b60208082526015908201527f45524332304361707065643a2063617020697320300000000000000000000000604082015260600190565b600281046001821680620004bc57607f821691505b60208210811415620004de57634e487b7160e01b600052602260045260246000fd5b50919050565b634e487b7160e01b600052604160045260246000fd5b608051611d5b6200051660003960006105940152611d5b6000f3fe608060405234801561001057600080fd5b50600436106101cf5760003560e01c80635c975abb11610104578063a217fddf116100a2578063d539139311610071578063d539139314610398578063d547741f146103a0578063dd62ed3e146103b3578063e63ab1e9146103c6576101cf565b8063a217fddf14610357578063a457c2d71461035f578063a9059cbb14610372578063ca15c87314610385576101cf565b80638456cb59116100de5780638456cb59146103145780639010d07c1461031c57806391d148541461033c57806395d89b411461034f576101cf565b80635c975abb146102e657806370a08231146102ee57806379cc679014610301576101cf565b8063313ce56711610171578063395093511161014b57806339509351146102a55780633f4ba83a146102b857806340c10f19146102c057806342966c68146102d3576101cf565b8063313ce56714610275578063355274ea1461028a57806336568abe14610292576101cf565b806318160ddd116101ad57806318160ddd1461022557806323b872dd1461023a578063248a9ca31461024d5780632f2ff15d14610260576101cf565b806301ffc9a7146101d457806306fdde03146101fd578063095ea7b314610212575b600080fd5b6101e76101e236600461152e565b6103ce565b6040516101f491906115eb565b60405180910390f35b6102056103fb565b6040516101f491906115ff565b6101e76102203660046114aa565b61048d565b61022d6104ab565b6040516101f491906115f6565b6101e761024836600461146f565b6104b1565b61022d61025b3660046114d3565b610551565b61027361026e3660046114eb565b610566565b005b61027d61058d565b6040516101f49190611c5a565b61022d610592565b6102736102a03660046114eb565b6105b6565b6101e76102b33660046114aa565b6105d8565b610273610627565b6102736102ce3660046114aa565b610679565b6102736102e13660046114d3565b6106cf565b6101e76106e3565b61022d6102fc366004611423565b6106ec565b61027361030f3660046114aa565b610707565b610273610757565b61032f61032a36600461150d565b6107a7565b6040516101f491906115d7565b6101e761034a3660046114eb565b6107c6565b6102056107ef565b61022d6107fe565b6101e761036d3660046114aa565b610803565b6101e76103803660046114aa565b61087e565b61022d6103933660046114d3565b610892565b61022d6108a9565b6102736103ae3660046114eb565b6108cd565b61022d6103c136600461143d565b6108d7565b61022d610902565b60006001600160e01b03198216635a05180f60e01b14806103f357506103f382610945565b90505b919050565b60606005805461040a90611cfd565b80601f016020809104026020016040519081016040528092919081815260200182805461043690611cfd565b80156104835780601f1061045857610100808354040283529160200191610483565b820191906000526020600020905b81548152906001019060200180831161046657829003601f168201915b5050505050905090565b60006104a161049a61096a565b848461096e565b5060015b92915050565b60045490565b60006104be848484610a22565b6001600160a01b0384166000908152600360205260408120816104df61096a565b6001600160a01b03166001600160a01b031681526020019081526020016000205490508281101561052b5760405162461bcd60e51b815260040161052290611898565b60405180910390fd5b6105468561053761096a565b6105418685611c9f565b61096e565b506001949350505050565b60009081526020819052604090206001015490565b6105708282610b4a565b60008281526001602052604090206105889082610930565b505050565b601290565b7f000000000000000000000000000000000000000000000000000000000000000090565b6105c08282610b6e565b60008281526001602052604090206105889082610bb0565b60006104a16105e561096a565b8484600360006105f361096a565b6001600160a01b03908116825260208083019390935260409182016000908120918b16815292529020546105419190611c68565b6106537f65d7a28e3265b37a6474929f336521b332c1681b933f6cb9f3376673440d862a61034a61096a565b61066f5760405162461bcd60e51b815260040161052290611765565b610677610bc5565b565b6106a57f9f2df0fed2c77648de5860a4cc508cd0818c85b8b8a1ab4ceeef8d981c8956a661034a61096a565b6106c15760405162461bcd60e51b8152600401610522906118f5565b6106cb8282610c33565b5050565b6106e06106da61096a565b82610c3d565b50565b60075460ff1690565b6001600160a01b031660009081526002602052604090205490565b6000610715836103c161096a565b9050818110156107375760405162461bcd60e51b815260040161052290611952565b61074d8361074361096a565b6105418585611c9f565b6105888383610c3d565b6107837f65d7a28e3265b37a6474929f336521b332c1681b933f6cb9f3376673440d862a61034a61096a565b61079f5760405162461bcd60e51b815260040161052290611aaf565b610677610d23565b60008281526001602052604081206107bf9083610d7e565b9392505050565b6000918252602082815260408084206001600160a01b0393909316845291905290205460ff1690565b60606006805461040a90611cfd565b600081565b6000806003600061081261096a565b6001600160a01b039081168252602080830193909352604091820160009081209188168152925290205490508281101561085e5760405162461bcd60e51b815260040161052290611b0c565b61087461086961096a565b856105418685611c9f565b5060019392505050565b60006104a161088b61096a565b8484610a22565b60008181526001602052604081206103f390610d8a565b7f9f2df0fed2c77648de5860a4cc508cd0818c85b8b8a1ab4ceeef8d981c8956a681565b6105c08282610d95565b6001600160a01b03918216600090815260036020908152604080832093909416825291909152205490565b7f65d7a28e3265b37a6474929f336521b332c1681b933f6cb9f3376673440d862a81565b6106cb8282610db4565b60006107bf836001600160a01b038416610e39565b60006001600160e01b03198216637965db0b60e01b14806103f357506103f382610e83565b3390565b6001600160a01b0383166109945760405162461bcd60e51b815260040161052290611a6b565b6001600160a01b0382166109ba5760405162461bcd60e51b8152600401610522906117c2565b6001600160a01b0380841660008181526003602090815260408083209487168084529490915290819020849055517f8c5be1e5ebec7d5bd14f71427d1e84f3dd0314c0f7b2291e5b200ac8c7c3b92590610a159085906115f6565b60405180910390a3505050565b6001600160a01b038316610a485760405162461bcd60e51b8152600401610522906119d7565b6001600160a01b038216610a6e5760405162461bcd60e51b8152600401610522906116a9565b610a79838383610e9c565b6001600160a01b03831660009081526002602052604090205481811015610ab25760405162461bcd60e51b815260040161052290611804565b610abc8282611c9f565b6001600160a01b038086166000908152600260205260408082209390935590851681529081208054849290610af2908490611c68565b92505081905550826001600160a01b0316846001600160a01b03167fddf252ad1be2c89b69c2b068fc378daa952ba7f163c4a11628f55a4df523b3ef84604051610b3c91906115f6565b60405180910390a350505050565b610b5382610551565b610b6481610b5f61096a565b610ea7565b6105888383610db4565b610b7661096a565b6001600160a01b0316816001600160a01b031614610ba65760405162461bcd60e51b815260040161052290611b69565b6106cb8282610f0b565b60006107bf836001600160a01b038416610f8e565b610bcd6106e3565b610be95760405162461bcd60e51b8152600401610522906116ec565b6007805460ff191690557f5db9ee0a495bf2e6ff9c91a7834c1ba4fdd244a5e8aa4e537bd38aeae4b073aa610c1c61096a565b604051610c2991906115d7565b60405180910390a1565b6106cb82826110a5565b6001600160a01b038216610c635760405162461bcd60e51b815260040161052290611996565b610c6f82600083610e9c565b6001600160a01b03821660009081526002602052604090205481811015610ca85760405162461bcd60e51b815260040161052290611723565b610cb28282611c9f565b6001600160a01b03841660009081526002602052604081209190915560048054849290610ce0908490611c9f565b90915550506040516000906001600160a01b038516907fddf252ad1be2c89b69c2b068fc378daa952ba7f163c4a11628f55a4df523b3ef90610a159086906115f6565b610d2b6106e3565b15610d485760405162461bcd60e51b815260040161052290611861565b6007805460ff191660011790557f62e78cea01bee320cd4e420270b5ea74000d11b0c9f74754ebdbfc544b05a258610c1c61096a565b60006107bf83836110e8565b60006103f382611141565b610d9e82610551565b610daa81610b5f61096a565b6105888383610f0b565b610dbe82826107c6565b6106cb576000828152602081815260408083206001600160a01b03851684529091529020805460ff19166001179055610df561096a565b6001600160a01b0316816001600160a01b0316837f2f8788117e7eff1d82e926ec794901d17c78024a50270940304540a733656f0d60405160405180910390a45050565b6000610e458383611145565b610e7b575081546001818101845560008481526020808220909301849055845484825282860190935260409020919091556104a5565b5060006104a5565b6001600160e01b031981166301ffc9a760e01b14919050565b61058883838361115d565b610eb182826107c6565b6106cb57610ec9816001600160a01b0316601461118d565b610ed483602061118d565b604051602001610ee5929190611556565b60408051601f198184030181529082905262461bcd60e51b8252610522916004016115ff565b610f1582826107c6565b156106cb576000828152602081815260408083206001600160a01b03851684529091529020805460ff19169055610f4a61096a565b6001600160a01b0316816001600160a01b0316837ff6391f5c32d9c69d2a47ea670b442974b53935d1edc7fd64eb21e047a839171b60405160405180910390a45050565b6000818152600183016020526040812054801561109b576000610fb2600183611c9f565b8554909150600090610fc690600190611c9f565b90506000866000018281548110610fed57634e487b7160e01b600052603260045260246000fd5b906000526020600020015490508087600001848154811061101e57634e487b7160e01b600052603260045260246000fd5b60009182526020808320909101929092558281526001890190915260409020849055865487908061105f57634e487b7160e01b600052603160045260246000fd5b600190038181906000526020600020016000905590558660010160008781526020019081526020016000206000905560019450505050506104a5565b60009150506104a5565b6110ad610592565b816110b66104ab565b6110c09190611c68565b11156110de5760405162461bcd60e51b815260040161052290611a34565b6106cb828261134c565b8154600090821061110b5760405162461bcd60e51b815260040161052290611632565b82600001828154811061112e57634e487b7160e01b600052603260045260246000fd5b9060005260206000200154905092915050565b5490565b60009081526001919091016020526040902054151590565b611168838383610588565b6111706106e3565b156105885760405162461bcd60e51b815260040161052290611bfd565b6060600061119c836002611c80565b6111a7906002611c68565b67ffffffffffffffff8111156111cd57634e487b7160e01b600052604160045260246000fd5b6040519080825280601f01601f1916602001820160405280156111f7576020820181803683370190505b509050600360fc1b8160008151811061122057634e487b7160e01b600052603260045260246000fd5b60200101906001600160f81b031916908160001a905350600f60fb1b8160018151811061125d57634e487b7160e01b600052603260045260246000fd5b60200101906001600160f81b031916908160001a9053506000611281846002611c80565b61128c906001611c68565b90505b600181111561132d577f303132333435363738396162636465660000000000000000000000000000000085600f16601081106112db57634e487b7160e01b600052603260045260246000fd5b1a60f81b8282815181106112ff57634e487b7160e01b600052603260045260246000fd5b60200101906001600160f81b031916908160001a90535060049490941c9361132681611ce6565b905061128f565b5083156107bf5760405162461bcd60e51b815260040161052290611674565b6001600160a01b0382166113725760405162461bcd60e51b815260040161052290611bc6565b61137e60008383610e9c565b80600460008282546113909190611c68565b90915550506001600160a01b038216600090815260026020526040812080548392906113bd908490611c68565b90915550506040516001600160a01b038316906000907fddf252ad1be2c89b69c2b068fc378daa952ba7f163c4a11628f55a4df523b3ef906114009085906115f6565b60405180910390a35050565b80356001600160a01b03811681146103f657600080fd5b600060208284031215611434578081fd5b6107bf8261140c565b6000806040838503121561144f578081fd5b6114588361140c565b91506114666020840161140c565b90509250929050565b600080600060608486031215611483578081fd5b61148c8461140c565b925061149a6020850161140c565b9150604084013590509250925092565b600080604083850312156114bc578182fd5b6114c58361140c565b946020939093013593505050565b6000602082840312156114e4578081fd5b5035919050565b600080604083850312156114fd578182fd5b823591506114666020840161140c565b6000806040838503121561151f578182fd5b50508035926020909101359150565b60006020828403121561153f578081fd5b81356001600160e01b0319811681146107bf578182fd5b60007f416363657373436f6e74726f6c3a206163636f756e74200000000000000000008252835161158e816017850160208801611cb6565b7f206973206d697373696e6720726f6c652000000000000000000000000000000060179184019182015283516115cb816028840160208801611cb6565b01602801949350505050565b6001600160a01b0391909116815260200190565b901515815260200190565b90815260200190565b600060208252825180602084015261161e816040850160208701611cb6565b601f01601f19169190910160400192915050565b60208082526022908201527f456e756d657261626c655365743a20696e646578206f7574206f6620626f756e604082015261647360f01b606082015260800190565b6020808252818101527f537472696e67733a20686578206c656e67746820696e73756666696369656e74604082015260600190565b60208082526023908201527f45524332303a207472616e7366657220746f20746865207a65726f206164647260408201526265737360e81b606082015260800190565b60208082526014908201527f5061757361626c653a206e6f7420706175736564000000000000000000000000604082015260600190565b60208082526022908201527f45524332303a206275726e20616d6f756e7420657863656564732062616c616e604082015261636560f01b606082015260800190565b60208082526039908201527f45524332305072657365744d696e7465725061757365723a206d75737420686160408201527f76652070617573657220726f6c6520746f20756e706175736500000000000000606082015260800190565b60208082526022908201527f45524332303a20617070726f766520746f20746865207a65726f206164647265604082015261737360f01b606082015260800190565b60208082526026908201527f45524332303a207472616e7366657220616d6f756e742065786365656473206260408201527f616c616e63650000000000000000000000000000000000000000000000000000606082015260800190565b60208082526010908201527f5061757361626c653a2070617573656400000000000000000000000000000000604082015260600190565b60208082526028908201527f45524332303a207472616e7366657220616d6f756e742065786365656473206160408201527f6c6c6f77616e6365000000000000000000000000000000000000000000000000606082015260800190565b60208082526036908201527f45524332305072657365744d696e7465725061757365723a206d75737420686160408201527f7665206d696e74657220726f6c6520746f206d696e7400000000000000000000606082015260800190565b60208082526024908201527f45524332303a206275726e20616d6f756e74206578636565647320616c6c6f77604082015263616e636560e01b606082015260800190565b60208082526021908201527f45524332303a206275726e2066726f6d20746865207a65726f206164647265736040820152607360f81b606082015260800190565b60208082526025908201527f45524332303a207472616e736665722066726f6d20746865207a65726f20616460408201527f6472657373000000000000000000000000000000000000000000000000000000606082015260800190565b60208082526019908201527f45524332304361707065643a2063617020657863656564656400000000000000604082015260600190565b60208082526024908201527f45524332303a20617070726f76652066726f6d20746865207a65726f206164646040820152637265737360e01b606082015260800190565b60208082526037908201527f45524332305072657365744d696e7465725061757365723a206d75737420686160408201527f76652070617573657220726f6c6520746f207061757365000000000000000000606082015260800190565b60208082526025908201527f45524332303a2064656372656173656420616c6c6f77616e63652062656c6f7760408201527f207a65726f000000000000000000000000000000000000000000000000000000606082015260800190565b6020808252602f908201527f416363657373436f6e74726f6c3a2063616e206f6e6c792072656e6f756e636560408201527f20726f6c657320666f722073656c660000000000000000000000000000000000606082015260800190565b6020808252601f908201527f45524332303a206d696e7420746f20746865207a65726f206164647265737300604082015260600190565b6020808252602a908201527f45524332305061757361626c653a20746f6b656e207472616e7366657220776860408201527f696c652070617573656400000000000000000000000000000000000000000000606082015260800190565b60ff91909116815260200190565b60008219821115611c7b57611c7b611d38565b500190565b6000816000190483118215151615611c9a57611c9a611d38565b500290565b600082821015611cb157611cb1611d38565b500390565b60005b83811015611cd1578181015183820152602001611cb9565b83811115611ce0576000848401525b50505050565b600081611cf557611cf5611d38565b506000190190565b600281046001821680611d1157607f821691505b60208210811415611d3257634e487b7160e01b600052602260045260246000fd5b50919050565b634e487b7160e01b600052601160045260246000fdfea164736f6c6343000800000a",
  "linkReferences": {},
  "deployedLinkReferences": {}
}