{
  "_format": "hh-sol-artifact-1",
  "contractName": "KTEToken",
  "sourceName": "contracts/KTEToken.sol",
  "abi": [
    {
      "inputs": [
        {
          "internalType": "string",
          "name": "_name",
          "type": "string"
        },
        {
          "internalType": "string",
          "name": "_symbol",
          "type": "string"
        },
        {
          "internalType": "uint256",
          "name": "_totalSupply",
          "type": "uint256"
        },
        {
          "internalType": "address",
          "name": "_minter",
          "type": "address"
        },
        {
          "internalType": "address",
          "name": "_pauser",
          "type": "address"
        }
      ],
      "stateMutability": "nonpayable",
      "type": "constructor"
    },
    {
      "anonymous": false,
      "inputs": [
        {
          "indexed": true,
          "internalType": "address",
          "name": "owner",
          "type": "address"
        },
        {
          "indexed": true,
          "internalType": "address",
          "name": "spender",
          "type": "address"
        },
        {
          "indexed": false,
          "internalType": "uint256",
          "name": "value",
          "type": "uint256"
        }
      ],
      "name": "Approval",
      "type": "event"
    },
    {
      "anonymous": false,
      "inputs": [
        {
          "indexed": false,
          "internalType": "address",
          "name": "account",
          "type": "address"
        }
      ],
      "name": "Paused",
      "type": "event"
    },
    {
      "anonymous": false,
      "inputs": [
        {
          "indexed": true,
          "internalType": "bytes32",
          "name": "role",
          "type": "bytes32"
        },
        {
          "indexed": true,
          "internalType": "bytes32",
          "name": "previousAdminRole",
          "type": "bytes32"
        },
        {
          "indexed": true,
          "internalType": "bytes32",
          "name": "newAdminRole",
          "type": "bytes32"
        }
      ],
      "name": "RoleAdminChanged",
      "type": "event"
    },
    {
      "anonymous": false,
      "inputs": [
        {
          "indexed": true,
          "internalType": "bytes32",
          "name": "role",
          "type": "bytes32"
        },
        {
          "indexed": true,
          "internalType": "address",
          "name": "account",
          "type": "address"
        },
        {
          "indexed": true,
          "internalType": "address",
          "name": "sender",
          "type": "address"
        }
      ],
      "name": "RoleGranted",
      "type": "event"
    },
    {
      "anonymous": false,
      "inputs": [
        {
          "indexed": true,
          "internalType": "bytes32",
          "name": "role",
          "type": "bytes32"
        },
        {
          "indexed": true,
          "internalType": "address",
          "name": "account",
          "type": "address"
        },
        {
          "indexed": true,
          "internalType": "address",
          "name": "sender",
          "type": "address"
        }
      ],
      "name": "RoleRevoked",
      "type": "event"
    },
    {
      "anonymous": false,
      "inputs": [
        {
          "indexed": true,
          "internalType": "address",
          "name": "from",
          "type": "address"
        },
        {
          "indexed": true,
          "internalType": "address",
          "name": "to",
          "type": "address"
        },
        {
          "indexed": false,
          "internalType": "uint256",
          "name": "value",
          "type": "uint256"
        }
      ],
      "name": "Transfer",
      "type": "event"
    },
    {
      "anonymous": false,
      "inputs": [
        {
          "indexed": false,
          "internalType": "address",
          "name": "account",
          "type": "address"
        }
      ],
      "name": "Unpaused",
      "type": "event"
    },
    {
      "inputs": [],
      "name": "DEFAULT_ADMIN_ROLE",
      "outputs": [
        {
          "internalType": "bytes32",
          "name": "",
          "type": "bytes32"
        }
      ],
      "stateMutability": "view",
      "type": "function"
    },
    {
      "inputs": [],
      "name": "DOMAIN_SEPARATOR",
      "outputs": [
        {
          "internalType": "bytes32",
          "name": "",
          "type": "bytes32"
        }
      ],
      "stateMutability": "view",
      "type": "function"
    },
    {
      "inputs": [],
      "name": "MINTER_ROLE",
      "outputs": [
        {
          "internalType": "bytes32",
          "name": "",
          "type": "bytes32"
        }
      ],
      "stateMutability": "view",
      "type": "function"
    },
    {
      "inputs": [],
      "name": "PAUSER_ROLE",
      "outputs": [
        {
          "internalType": "bytes32",
          "name": "",
          "type": "bytes32"
        }
      ],
      "stateMutability": "view",
      "type": "function"
    },
    {
      "inputs": [
        {
          "internalType": "address",
          "name": "owner",
          "type": "address"
        },
        {
          "internalType": "address",
          "name": "spender",
          "type": "address"
        }
      ],
      "name": "allowance",
      "outputs": [
        {
          "internalType": "uint256",
          "name": "",
          "type": "uint256"
        }
      ],
      "stateMutability": "view",
      "type": "function"
    },
    {
      "inputs": [
        {
          "internalType": "address",
          "name": "spender",
          "type": "address"
        },
        {
          "internalType": "uint256",
          "name": "amount",
          "type": "uint256"
        }
      ],
      "name": "approve",
      "outputs": [
        {
          "internalType": "bool",
          "name": "",
          "type": "bool"
        }
      ],
      "stateMutability": "nonpayable",
      "type": "function"
    },
    {
      "inputs": [
        {
          "internalType": "address",
          "name": "account",
          "type": "address"
        }
      ],
      "name": "balanceOf",
      "outputs": [
        {
          "internalType": "uint256",
          "name": "",
          "type": "uint256"
        }
      ],
      "stateMutability": "view",
      "type": "function"
    },
    {
      "inputs": [
        {
          "internalType": "uint256",
          "name": "amount",
          "type": "uint256"
        }
      ],
      "name": "burn",
      "outputs": [],
      "stateMutability": "nonpayable",
      "type": "function"
    },
    {
      "inputs": [
        {
          "internalType": "address",
          "name": "account",
          "type": "address"
        },
        {
          "internalType": "uint256",
          "name": "amount",
          "type": "uint256"
        }
      ],
      "name": "burnFrom",
      "outputs": [],
      "stateMutability": "nonpayable",
      "type": "function"
    },
    {
      "inputs": [],
      "name": "cap",
      "outputs": [
        {
          "internalType": "uint256",
          "name": "",
          "type": "uint256"
        }
      ],
      "stateMutability": "view",
      "type": "function"
    },
    {
      "inputs": [],
      "name": "decimals",
      "outputs": [
        {
          "internalType": "uint8",
          "name": "",
          "type": "uint8"
        }
      ],
      "stateMutability": "view",
      "type": "function"
    },
    {
      "inputs": [
        {
          "internalType": "address",
          "name": "spender",
          "type": "address"
        },
        {
          "internalType": "uint256",
          "name": "subtractedValue",
          "type": "uint256"
        }
      ],
      "name": "decreaseAllowance",
      "outputs": [
        {
          "internalType": "bool",
          "name": "",
          "type": "bool"
        }
      ],
      "stateMutability": "nonpayable",
      "type": "function"
    },
    {
      "inputs": [
        {
          "internalType": "bytes32",
          "name": "role",
          "type": "bytes32"
        }
      ],
      "name": "getRoleAdmin",
      "outputs": [
        {
          "internalType": "bytes32",
          "name": "",
          "type": "bytes32"
        }
      ],
      "stateMutability": "view",
      "type": "function"
    },
    {
      "inputs": [
        {
          "internalType": "bytes32",
          "name": "role",
          "type": "bytes32"
        },
        {
          "internalType": "address",
          "name": "account",
          "type": "address"
        }
      ],
      "name": "grantRole",
      "outputs": [],
      "stateMutability": "nonpayable",
      "type": "function"
    },
    {
      "inputs": [
        {
          "internalType": "bytes32",
          "name": "role",
          "type": "bytes32"
        },
        {
          "internalType": "address",
          "name": "account",
          "type": "address"
        }
      ],
      "name": "hasRole",
      "outputs": [
        {
          "internalType": "bool",
          "name": "",
          "type": "bool"
        }
      ],
      "stateMutability": "view",
      "type": "function"
    },
    {
      "inputs": [
        {
          "internalType": "address",
          "name": "spender",
          "type": "address"
        },
        {
          "internalType": "uint256",
          "name": "addedValue",
          "type": "uint256"
        }
      ],
      "name": "increaseAllowance",
      "outputs": [
        {
          "internalType": "bool",
          "name": "",
          "type": "bool"
        }
      ],
      "stateMutability": "nonpayable",
      "type": "function"
    },
    {
      "inputs": [
        {
          "internalType": "address",
          "name": "to",
          "type": "address"
        },
        {
          "internalType": "uint256",
          "name": "amount",
          "type": "uint256"
        }
      ],
      "name": "mint",
      "outputs": [],
      "stateMutability": "nonpayable",
      "type": "function"
    },
    {
      "inputs": [],
      "name": "name",
      "outputs": [
        {
          "internalType": "string",
          "name": "",
          "type": "string"
        }
      ],
      "stateMutability": "view",
      "type": "function"
    },
    {
      "inputs": [
        {
          "internalType": "address",
          "name": "owner",
          "type": "address"
        }
      ],
      "name": "nonces",
      "outputs": [
        {
          "internalType": "uint256",
          "name": "",
          "type": "uint256"
        }
      ],
      "stateMutability": "view",
      "type": "function"
    },
    {
      "inputs": [],
      "name": "pause",
      "outputs": [],
      "stateMutability": "nonpayable",
      "type": "function"
    },
    {
      "inputs": [],
      "name": "paused",
      "outputs": [
        {
          "internalType": "bool",
          "name": "",
          "type": "bool"
        }
      ],
      "stateMutability": "view",
      "type": "function"
    },
    {
      "inputs": [
        {
          "internalType": "address",
          "name": "owner",
          "type": "address"
        },
        {
          "internalType": "address",
          "name": "spender",
          "type": "address"
        },
        {
          "internalType": "uint256",
          "name": "value",
          "type": "uint256"
        },
        {
          "internalType": "uint256",
          "name": "deadline",
          "type": "uint256"
        },
        {
          "internalType": "uint8",
          "name": "v",
          "type": "uint8"
        },
        {
          "internalType": "bytes32",
          "name": "r",
          "type": "bytes32"
        },
        {
          "internalType": "bytes32",
          "name": "s",
          "type": "bytes32"
        }
      ],
      "name": "permit",
      "outputs": [],
      "stateMutability": "nonpayable",
      "type": "function"
    },
    {
      "inputs": [
        {
          "internalType": "bytes32",
          "name": "role",
          "type": "bytes32"
        },
        {
          "internalType": "address",
          "name": "account",
          "type": "address"
        }
      ],
      "name": "renounceRole",
      "outputs": [],
      "stateMutability": "nonpayable",
      "type": "function"
    },
    {
      "inputs": [
        {
          "internalType": "bytes32",
          "name": "role",
          "type": "bytes32"
        },
        {
          "internalType": "address",
          "name": "account",
          "type": "address"
        }
      ],
      "name": "revokeRole",
      "outputs": [],
      "stateMutability": "nonpayable",
      "type": "function"
    },
    {
      "inputs": [
        {
          "internalType": "bytes4",
          "name": "interfaceId",
          "type": "bytes4"
        }
      ],
      "name": "supportsInterface",
      "outputs": [
        {
          "internalType": "bool",
          "name": "",
          "type": "bool"
        }
      ],
      "stateMutability": "view",
      "type": "function"
    },
    {
      "inputs": [],
      "name": "symbol",
      "outputs": [
        {
          "internalType": "string",
          "name": "",
          "type": "string"
        }
      ],
      "stateMutability": "view",
      "type": "function"
    },
    {
      "inputs": [],
      "name": "totalSupply",
      "outputs": [
        {
          "internalType": "uint256",
          "name": "",
          "type": "uint256"
        }
      ],
      "stateMutability": "view",
      "type": "function"
    },
    {
      "inputs": [
        {
          "internalType": "address",
          "name": "recipient",
          "type": "address"
        },
        {
          "internalType": "uint256",
          "name": "amount",
          "type": "uint256"
        }
      ],
      "name": "transfer",
      "outputs": [
        {
          "internalType": "bool",
          "name": "",
          "type": "bool"
        }
      ],
      "stateMutability": "nonpayable",
      "type": "function"
    },
    {
      "inputs": [
        {
          "internalType": "address",
          "name": "sender",
          "type": "address"
        },
        {
          "internalType": "address",
          "name": "recipient",
          "type": "address"
        },
        {
          "internalType": "uint256",
          "name": "amount",
          "type": "uint256"
        }
      ],
      "name": "transferFrom",
      "outputs": [
        {
          "internalType": "bool",
          "name": "",
          "type": "bool"
        }
      ],
      "stateMutability": "nonpayable",
      "type": "function"
    },
    {
      "inputs": [],
      "name": "unpause",
      "outputs": [],
      "stateMutability": "nonpayable",
      "type": "function"
    }
  ],
  "bytecode": "0x6101606040527f6e71edae12b1b97f4d1f60370fef10105fa2faae0126114a169c64845d6126c9610140523480156200003757600080fd5b50604051620025e7380380620025e78339810160408190526200005a9162000431565b8480604051806040016040528060018152602001603160f81b815250858888816003908051906020019062000091929190620002c3565b508051620000a7906004906020840190620002c3565b50505060008111620000d65760405162461bcd60e51b8152600401620000cd90620004f3565b60405180910390fd5b6080526005805460ff19169055815160208084019190912082519183019190912060e08290526101008190524660c0527f8b73c3c69bb8fe3d512ecc4cf759cc79239f7b179b0ffacaa9a75d522b39400f62000134818484620001bc565b60a05261012052506200015993506000925062000153915050620001f8565b620001fc565b620001857f9f2df0fed2c77648de5860a4cc508cd0818c85b8b8a1ab4ceeef8d981c8956a683620001fc565b620001b17f65d7a28e3265b37a6474929f336521b332c1681b933f6cb9f3376673440d862a82620001fc565b50505050506200057d565b60008383834630604051602001620001d9959493929190620004c7565b6040516020818303038152906040528051906020012090509392505050565b3390565b6200020882826200020c565b5050565b62000218828262000298565b620002085760008281526006602090815260408083206001600160a01b03851684529091529020805460ff1916600117905562000254620001f8565b6001600160a01b0316816001600160a01b0316837f2f8788117e7eff1d82e926ec794901d17c78024a50270940304540a733656f0d60405160405180910390a45050565b60009182526006602090815260408084206001600160a01b0393909316845291905290205460ff1690565b828054620002d1906200052a565b90600052602060002090601f016020900481019282620002f5576000855562000340565b82601f106200031057805160ff191683800117855562000340565b8280016001018555821562000340579182015b828111156200034057825182559160200191906001019062000323565b506200034e92915062000352565b5090565b5b808211156200034e576000815560010162000353565b80516001600160a01b03811681146200038157600080fd5b919050565b600082601f83011262000397578081fd5b81516001600160401b0380821115620003b457620003b462000567565b6040516020601f8401601f1916820181018381118382101715620003dc57620003dc62000567565b6040528382528584018101871015620003f3578485fd5b8492505b83831015620004165785830181015182840182015291820191620003f7565b838311156200042757848185840101525b5095945050505050565b600080600080600060a0868803121562000449578081fd5b85516001600160401b038082111562000460578283fd5b6200046e89838a0162000386565b9650602088015191508082111562000484578283fd5b50620004938882890162000386565b94505060408601519250620004ab6060870162000369565b9150620004bb6080870162000369565b90509295509295909350565b9485526020850193909352604084019190915260608301526001600160a01b0316608082015260a00190565b60208082526015908201527f45524332304361707065643a2063617020697320300000000000000000000000604082015260600190565b6002810460018216806200053f57607f821691505b602082108114156200056157634e487b7160e01b600052602260045260246000fd5b50919050565b634e487b7160e01b600052604160045260246000fd5b60805160a05160c05160e05161010051610120516101405161200f620005d8600039600061089801526000610d2401526000610d6601526000610d4501526000610cd201526000610cfb01526000610595015261200f6000f3fe608060405234801561001057600080fd5b50600436106101da5760003560e01c80635c975abb11610104578063a217fddf116100a2578063d539139311610071578063d53913931461039e578063d547741f146103a6578063dd62ed3e146103b9578063e63ab1e9146103cc576101da565b8063a217fddf1461035d578063a457c2d714610365578063a9059cbb14610378578063d505accf1461038b576101da565b80637ecebe00116100de5780637ecebe00146103275780638456cb591461033a57806391d148541461034257806395d89b4114610355576101da565b80635c975abb146102f957806370a082311461030157806379cc679014610314576101da565b8063313ce5671161017c578063395093511161014b57806339509351146102b85780633f4ba83a146102cb57806340c10f19146102d357806342966c68146102e6576101da565b8063313ce56714610280578063355274ea146102955780633644e5151461029d57806336568abe146102a5576101da565b806318160ddd116101b857806318160ddd1461023057806323b872dd14610245578063248a9ca3146102585780632f2ff15d1461026b576101da565b806301ffc9a7146101df57806306fdde0314610208578063095ea7b31461021d575b600080fd5b6101f26101ed36600461174c565b6103d4565b6040516101ff9190611824565b60405180910390f35b610210610401565b6040516101ff91906118b6565b6101f261022b3660046116e9565b610494565b6102386104b1565b6040516101ff919061182f565b6101f261025336600461163d565b6104b7565b610238610266366004611712565b610550565b61027e61027936600461172a565b610565565b005b61028861058e565b6040516101ff9190611f18565b610238610593565b6102386105b7565b61027e6102b336600461172a565b6105c6565b6101f26102c63660046116e9565b61060c565b61027e610660565b61027e6102e13660046116e9565b610698565b61027e6102f4366004611712565b6106cf565b6101f26106e0565b61023861030f3660046115f1565b6106e9565b61027e6103223660046116e9565b610704565b6102386103353660046115f1565b610752565b61027e610773565b6101f261035036600461172a565b6107a8565b6102106107d3565b6102386107e2565b6101f26103733660046116e9565b6107e7565b6101f26103863660046116e9565b610860565b61027e610399366004611678565b610874565b610238610956565b61027e6103b436600461172a565b61097a565b6102386103c736600461160b565b610999565b6102386109c4565b60006001600160e01b03198216637965db0b60e01b14806103f957506103f9826109e8565b90505b919050565b60606003805461041090611fb7565b80601f016020809104026020016040519081016040528092919081815260200182805461043c90611fb7565b80156104895780601f1061045e57610100808354040283529160200191610489565b820191906000526020600020905b81548152906001019060200180831161046c57829003601f168201915b505050505090505b90565b60006104a86104a1610a01565b8484610a05565b50600192915050565b60025490565b60006104c4848484610ab9565b6001600160a01b0384166000908152600160205260408120816104e5610a01565b6001600160a01b03166001600160a01b03168152602001908152602001600020549050828110156105315760405162461bcd60e51b815260040161052890611c10565b60405180910390fd5b6105458561053d610a01565b858403610a05565b506001949350505050565b60009081526006602052604090206001015490565b61056e82610550565b61057f8161057a610a01565b610be3565b6105898383610c47565b505050565b601290565b7f000000000000000000000000000000000000000000000000000000000000000090565b60006105c1610cce565b905090565b6105ce610a01565b6001600160a01b0316816001600160a01b0316146105fe5760405162461bcd60e51b815260040161052890611e27565b6106088282610d91565b5050565b60006104a8610619610a01565b848460016000610627610a01565b6001600160a01b03908116825260208083019390935260409182016000908120918b168152925290205461065b9190611f26565b610a05565b7f65d7a28e3265b37a6474929f336521b332c1681b933f6cb9f3376673440d862a61068d8161057a610a01565b610695610e16565b50565b7f9f2df0fed2c77648de5860a4cc508cd0818c85b8b8a1ab4ceeef8d981c8956a66106c58161057a610a01565b6105898383610e84565b6106956106da610a01565b82610e8e565b60055460ff1690565b6001600160a01b031660009081526020819052604090205490565b6000610712836103c7610a01565b9050818110156107345760405162461bcd60e51b815260040161052890611c6d565b61074883610740610a01565b848403610a05565b6105898383610e8e565b6001600160a01b03811660009081526007602052604081206103f990610f7f565b7f65d7a28e3265b37a6474929f336521b332c1681b933f6cb9f3376673440d862a6107a08161057a610a01565b610695610f83565b60009182526006602090815260408084206001600160a01b0393909316845291905290205460ff1690565b60606004805461041090611fb7565b600081565b600080600160006107f6610a01565b6001600160a01b03908116825260208083019390935260409182016000908120918816815292529020549050828110156108425760405162461bcd60e51b815260040161052890611dca565b61085661084d610a01565b85858403610a05565b5060019392505050565b60006104a861086d610a01565b8484610ab9565b834211156108945760405162461bcd60e51b815260040161052890611a8a565b60007f00000000000000000000000000000000000000000000000000000000000000008888886108c38c610fde565b896040516020016108d996959493929190611838565b60405160208183030381529060405280519060200120905060006108fc82611010565b9050600061090c82878787611023565b9050896001600160a01b0316816001600160a01b03161461093f5760405162461bcd60e51b815260040161052890611bd9565b61094a8a8a8a610a05565b50505050505050505050565b7f9f2df0fed2c77648de5860a4cc508cd0818c85b8b8a1ab4ceeef8d981c8956a681565b61098382610550565b61098f8161057a610a01565b6105898383610d91565b6001600160a01b03918216600090815260016020908152604080832093909416825291909152205490565b7f65d7a28e3265b37a6474929f336521b332c1681b933f6cb9f3376673440d862a81565b6001600160e01b031981166301ffc9a760e01b14919050565b3390565b6001600160a01b038316610a2b5760405162461bcd60e51b815260040161052890611d86565b6001600160a01b038216610a515760405162461bcd60e51b815260040161052890611a48565b6001600160a01b0380841660008181526001602090815260408083209487168084529490915290819020849055517f8c5be1e5ebec7d5bd14f71427d1e84f3dd0314c0f7b2291e5b200ac8c7c3b92590610aac90859061182f565b60405180910390a3505050565b6001600160a01b038316610adf5760405162461bcd60e51b815260040161052890611cf2565b6001600160a01b038216610b055760405162461bcd60e51b815260040161052890611955565b610b1083838361104b565b6001600160a01b03831660009081526020819052604090205481811015610b495760405162461bcd60e51b815260040161052890611ac1565b6001600160a01b03808516600090815260208190526040808220858503905591851681529081208054849290610b80908490611f26565b92505081905550826001600160a01b0316846001600160a01b03167fddf252ad1be2c89b69c2b068fc378daa952ba7f163c4a11628f55a4df523b3ef84604051610bca919061182f565b60405180910390a3610bdd848484610589565b50505050565b610bed82826107a8565b61060857610c05816001600160a01b03166014611056565b610c10836020611056565b604051602001610c2192919061178f565b60408051601f198184030181529082905262461bcd60e51b8252610528916004016118b6565b610c5182826107a8565b6106085760008281526006602090815260408083206001600160a01b03851684529091529020805460ff19166001179055610c8a610a01565b6001600160a01b0316816001600160a01b0316837f2f8788117e7eff1d82e926ec794901d17c78024a50270940304540a733656f0d60405160405180910390a45050565b60007f0000000000000000000000000000000000000000000000000000000000000000461415610d1f57507f0000000000000000000000000000000000000000000000000000000000000000610491565b610d8a7f00000000000000000000000000000000000000000000000000000000000000007f00000000000000000000000000000000000000000000000000000000000000007f000000000000000000000000000000000000000000000000000000000000000061121c565b9050610491565b610d9b82826107a8565b156106085760008281526006602090815260408083206001600160a01b03851684529091529020805460ff19169055610dd2610a01565b6001600160a01b0316816001600160a01b0316837ff6391f5c32d9c69d2a47ea670b442974b53935d1edc7fd64eb21e047a839171b60405160405180910390a45050565b610e1e6106e0565b610e3a5760405162461bcd60e51b815260040161052890611998565b6005805460ff191690557f5db9ee0a495bf2e6ff9c91a7834c1ba4fdd244a5e8aa4e537bd38aeae4b073aa610e6d610a01565b604051610e7a9190611810565b60405180910390a1565b6106088282611256565b6001600160a01b038216610eb45760405162461bcd60e51b815260040161052890611cb1565b610ec08260008361104b565b6001600160a01b03821660009081526020819052604090205481811015610ef95760405162461bcd60e51b8152600401610528906119cf565b6001600160a01b0383166000908152602081905260408120838303905560028054849290610f28908490611f5d565b90915550506040516000906001600160a01b038516907fddf252ad1be2c89b69c2b068fc378daa952ba7f163c4a11628f55a4df523b3ef90610f6b90869061182f565b60405180910390a361058983600084610589565b5490565b610f8b6106e0565b15610fa85760405162461bcd60e51b815260040161052890611b60565b6005805460ff191660011790557f62e78cea01bee320cd4e420270b5ea74000d11b0c9f74754ebdbfc544b05a258610e6d610a01565b6001600160a01b0381166000908152600760205260408120610fff81610f7f565b915061100a81611299565b50919050565b60006103f961101d610cce565b836112a2565b6000806000611034878787876112d5565b91509150611041816113b5565b5095945050505050565b6105898383836114e2565b60606000611065836002611f3e565b611070906002611f26565b67ffffffffffffffff81111561109657634e487b7160e01b600052604160045260246000fd5b6040519080825280601f01601f1916602001820160405280156110c0576020820181803683370190505b509050600360fc1b816000815181106110e957634e487b7160e01b600052603260045260246000fd5b60200101906001600160f81b031916908160001a905350600f60fb1b8160018151811061112657634e487b7160e01b600052603260045260246000fd5b60200101906001600160f81b031916908160001a905350600061114a846002611f3e565b611155906001611f26565b90505b60018111156111f6577f303132333435363738396162636465660000000000000000000000000000000085600f16601081106111a457634e487b7160e01b600052603260045260246000fd5b1a60f81b8282815181106111c857634e487b7160e01b600052603260045260246000fd5b60200101906001600160f81b031916908160001a90535060049490941c936111ef81611fa0565b9050611158565b5083156112155760405162461bcd60e51b815260040161052890611920565b9392505050565b6000838383463060405160200161123795949392919061186c565b6040516020818303038152906040528051906020012090509392505050565b61125e610593565b816112676104b1565b6112719190611f26565b111561128f5760405162461bcd60e51b815260040161052890611d4f565b6106088282611512565b80546001019055565b600082826040516020016112b7929190611774565b60405160208183030381529060405280519060200120905092915050565b6000807f7fffffffffffffffffffffffffffffff5d576e7357a4501ddfe92f46681b20a083111561130c57506000905060036113ac565b8460ff16601b1415801561132457508460ff16601c14155b1561133557506000905060046113ac565b60006001878787876040516000815260200160405260405161135a9493929190611898565b6020604051602081039080840390855afa15801561137c573d6000803e3d6000fd5b5050604051601f1901519150506001600160a01b0381166113a5576000600192509250506113ac565b9150600090505b94509492505050565b60008160048111156113d757634e487b7160e01b600052602160045260246000fd5b14156113e257610695565b600181600481111561140457634e487b7160e01b600052602160045260246000fd5b14156114225760405162461bcd60e51b8152600401610528906118e9565b600281600481111561144457634e487b7160e01b600052602160045260246000fd5b14156114625760405162461bcd60e51b815260040161052890611a11565b600381600481111561148457634e487b7160e01b600052602160045260246000fd5b14156114a25760405162461bcd60e51b815260040161052890611b1e565b60048160048111156114c457634e487b7160e01b600052602160045260246000fd5b14156106955760405162461bcd60e51b815260040161052890611b97565b6114ed838383610589565b6114f56106e0565b156105895760405162461bcd60e51b815260040161052890611ebb565b6001600160a01b0382166115385760405162461bcd60e51b815260040161052890611e84565b6115446000838361104b565b80600260008282546115569190611f26565b90915550506001600160a01b03821660009081526020819052604081208054839290611583908490611f26565b90915550506040516001600160a01b038316906000907fddf252ad1be2c89b69c2b068fc378daa952ba7f163c4a11628f55a4df523b3ef906115c690859061182f565b60405180910390a361060860008383610589565b80356001600160a01b03811681146103fc57600080fd5b600060208284031215611602578081fd5b611215826115da565b6000806040838503121561161d578081fd5b611626836115da565b9150611634602084016115da565b90509250929050565b600080600060608486031215611651578081fd5b61165a846115da565b9250611668602085016115da565b9150604084013590509250925092565b600080600080600080600060e0888a031215611692578283fd5b61169b886115da565b96506116a9602089016115da565b95506040880135945060608801359350608088013560ff811681146116cc578384fd5b9699959850939692959460a0840135945060c09093013592915050565b600080604083850312156116fb578182fd5b611704836115da565b946020939093013593505050565b600060208284031215611723578081fd5b5035919050565b6000806040838503121561173c578182fd5b82359150611634602084016115da565b60006020828403121561175d578081fd5b81356001600160e01b031981168114611215578182fd5b61190160f01b81526002810192909252602282015260420190565b60007f416363657373436f6e74726f6c3a206163636f756e7420000000000000000000825283516117c7816017850160208801611f74565b7f206973206d697373696e6720726f6c65200000000000000000000000000000006017918401918201528351611804816028840160208801611f74565b01602801949350505050565b6001600160a01b0391909116815260200190565b901515815260200190565b90815260200190565b9586526001600160a01b0394851660208701529290931660408501526060840152608083019190915260a082015260c00190565b9485526020850193909352604084019190915260608301526001600160a01b0316608082015260a00190565b93845260ff9290921660208401526040830152606082015260800190565b60006020825282518060208401526118d5816040850160208701611f74565b601f01601f19169190910160400192915050565b60208082526018908201527f45434453413a20696e76616c6964207369676e61747572650000000000000000604082015260600190565b6020808252818101527f537472696e67733a20686578206c656e67746820696e73756666696369656e74604082015260600190565b60208082526023908201527f45524332303a207472616e7366657220746f20746865207a65726f206164647260408201526265737360e81b606082015260800190565b60208082526014908201527f5061757361626c653a206e6f7420706175736564000000000000000000000000604082015260600190565b60208082526022908201527f45524332303a206275726e20616d6f756e7420657863656564732062616c616e604082015261636560f01b606082015260800190565b6020808252601f908201527f45434453413a20696e76616c6964207369676e6174757265206c656e67746800604082015260600190565b60208082526022908201527f45524332303a20617070726f766520746f20746865207a65726f206164647265604082015261737360f01b606082015260800190565b6020808252601d908201527f45524332305065726d69743a206578706972656420646561646c696e65000000604082015260600190565b60208082526026908201527f45524332303a207472616e7366657220616d6f756e742065786365656473206260408201527f616c616e63650000000000000000000000000000000000000000000000000000606082015260800190565b60208082526022908201527f45434453413a20696e76616c6964207369676e6174757265202773272076616c604082015261756560f01b606082015260800190565b60208082526010908201527f5061757361626c653a2070617573656400000000000000000000000000000000604082015260600190565b60208082526022908201527f45434453413a20696e76616c6964207369676e6174757265202776272076616c604082015261756560f01b606082015260800190565b6020808252601e908201527f45524332305065726d69743a20696e76616c6964207369676e61747572650000604082015260600190565b60208082526028908201527f45524332303a207472616e7366657220616d6f756e742065786365656473206160408201527f6c6c6f77616e6365000000000000000000000000000000000000000000000000606082015260800190565b60208082526024908201527f45524332303a206275726e20616d6f756e74206578636565647320616c6c6f77604082015263616e636560e01b606082015260800190565b60208082526021908201527f45524332303a206275726e2066726f6d20746865207a65726f206164647265736040820152607360f81b606082015260800190565b60208082526025908201527f45524332303a207472616e736665722066726f6d20746865207a65726f20616460408201527f6472657373000000000000000000000000000000000000000000000000000000606082015260800190565b60208082526019908201527f45524332304361707065643a2063617020657863656564656400000000000000604082015260600190565b60208082526024908201527f45524332303a20617070726f76652066726f6d20746865207a65726f206164646040820152637265737360e01b606082015260800190565b60208082526025908201527f45524332303a2064656372656173656420616c6c6f77616e63652062656c6f7760408201527f207a65726f000000000000000000000000000000000000000000000000000000606082015260800190565b6020808252602f908201527f416363657373436f6e74726f6c3a2063616e206f6e6c792072656e6f756e636560408201527f20726f6c657320666f722073656c660000000000000000000000000000000000606082015260800190565b6020808252601f908201527f45524332303a206d696e7420746f20746865207a65726f206164647265737300604082015260600190565b6020808252602a908201527f45524332305061757361626c653a20746f6b656e207472616e7366657220776860408201527f696c652070617573656400000000000000000000000000000000000000000000606082015260800190565b60ff91909116815260200190565b60008219821115611f3957611f39611fec565b500190565b6000816000190483118215151615611f5857611f58611fec565b500290565b600082821015611f6f57611f6f611fec565b500390565b60005b83811015611f8f578181015183820152602001611f77565b83811115610bdd5750506000910152565b600081611faf57611faf611fec565b506000190190565b600281046001821680611fcb57607f821691505b6020821081141561100a57634e487b7160e01b600052602260045260246000fd5b634e487b7160e01b600052601160045260246000fdfea164736f6c6343000800000a",
  "linkReferences": {},
  "deployedLinkReferences": {}
}