{
  "_format": "hh-sol-artifact-1",
  "contractName": "MarketFactory",
  "sourceName": "contracts/MarketFactory.sol",
  "abi": [
    {
      "inputs": [
        {
          "internalType": "address",
          "name": "_gateway",
          "type": "address"
        },
        {
          "components": [
            {
              "internalType": "uint256",
              "name": "WW",
              "type": "uint256"
            },
            {
              "internalType": "uint256",
              "name": "RW",
              "type": "uint256"
            },
            {
              "internalType": "uint256",
              "name": "DW",
              "type": "uint256"
            }
          ],
          "internalType": "struct MarketLibrary.MarketWindowParams",
          "name": "_marketWindowParams",
          "type": "tuple"
        },
        {
          "components": [
            {
              "internalType": "uint256",
              "name": "min",
              "type": "uint256"
            },
            {
              "internalType": "uint256",
              "name": "max",
              "type": "uint256"
            }
          ],
          "internalType": "struct MarketDurationParams",
          "name": "_marketDurationParams",
          "type": "tuple"
        },
        {
          "components": [
            {
              "internalType": "uint256",
              "name": "creator",
              "type": "uint256"
            },
            {
              "internalType": "uint256",
              "name": "settler",
              "type": "uint256"
            },
            {
              "internalType": "uint256",
              "name": "platform",
              "type": "uint256"
            }
          ],
          "internalType": "struct MarketLibrary.FeesPercentage",
          "name": "_feesPercentage",
          "type": "tuple"
        },
        {
          "internalType": "uint256",
          "name": "_minMarketLiquidity",
          "type": "uint256"
        },
        {
          "internalType": "uint8",
          "name": "_lossConstant",
          "type": "uint8"
        }
      ],
      "stateMutability": "nonpayable",
      "type": "constructor"
    },
    {
      "anonymous": false,
      "inputs": [
        {
          "indexed": true,
          "internalType": "uint256",
          "name": "id",
          "type": "uint256"
        },
        {
          "indexed": true,
          "internalType": "bytes32",
          "name": "asset",
          "type": "bytes32"
        },
        {
          "indexed": true,
          "internalType": "address",
          "name": "assetFeed",
          "type": "address"
        },
        {
          "indexed": false,
          "internalType": "uint8",
          "name": "decimals",
          "type": "uint8"
        },
        {
          "indexed": false,
          "internalType": "enum MarketLibrary.AssetFeedType",
          "name": "assetFeedType",
          "type": "uint8"
        },
        {
          "indexed": false,
          "internalType": "address",
          "name": "creator",
          "type": "address"
        }
      ],
      "name": "AddAsset",
      "type": "event"
    },
    {
      "anonymous": false,
      "inputs": [
        {
          "indexed": true,
          "internalType": "address",
          "name": "marketToken",
          "type": "address"
        }
      ],
      "name": "AddMarketToken",
      "type": "event"
    },
    {
      "anonymous": false,
      "inputs": [
        {
          "indexed": true,
          "internalType": "address",
          "name": "id",
          "type": "address"
        },
        {
          "indexed": true,
          "internalType": "uint256",
          "name": "assetId",
          "type": "uint256"
        },
        {
          "indexed": false,
          "internalType": "uint256",
          "name": "creationTime",
          "type": "uint256"
        },
        {
          "indexed": false,
          "internalType": "uint256",
          "name": "duration",
          "type": "uint256"
        },
        {
          "indexed": false,
          "internalType": "uint256[]",
          "name": "poolsRange",
          "type": "uint256[]"
        },
        {
          "indexed": false,
          "internalType": "uint256",
          "name": "liquidity",
          "type": "uint256"
        },
        {
          "indexed": false,
          "internalType": "address",
          "name": "creator",
          "type": "address"
        },
        {
          "indexed": false,
          "internalType": "address",
          "name": "token",
          "type": "address"
        },
        {
          "indexed": false,
          "internalType": "uint256",
          "name": "creatorFee",
          "type": "uint256"
        },
        {
          "indexed": false,
          "internalType": "uint256",
          "name": "settlerFee",
          "type": "uint256"
        },
        {
          "indexed": false,
          "internalType": "uint256",
          "name": "platformFee",
          "type": "uint256"
        }
      ],
      "name": "CreateMarket",
      "type": "event"
    },
    {
      "anonymous": false,
      "inputs": [
        {
          "indexed": true,
          "internalType": "address",
          "name": "previousOwner",
          "type": "address"
        },
        {
          "indexed": true,
          "internalType": "address",
          "name": "newOwner",
          "type": "address"
        }
      ],
      "name": "OwnershipTransferred",
      "type": "event"
    },
    {
      "anonymous": false,
      "inputs": [
        {
          "indexed": false,
          "internalType": "uint8",
          "name": "lossConstant",
          "type": "uint8"
        }
      ],
      "name": "UpdateLossConstant",
      "type": "event"
    },
    {
      "anonymous": false,
      "inputs": [
        {
          "indexed": false,
          "internalType": "uint256",
          "name": "liquidity",
          "type": "uint256"
        }
      ],
      "name": "UpdateMinMarketLiquidity",
      "type": "event"
    },
    {
      "inputs": [
        {
          "internalType": "bytes32",
          "name": "_asset",
          "type": "bytes32"
        },
        {
          "internalType": "address",
          "name": "_assetFeed",
          "type": "address"
        },
        {
          "internalType": "uint8",
          "name": "_decimals",
          "type": "uint8"
        },
        {
          "internalType": "enum MarketLibrary.AssetFeedType",
          "name": "_assetFeedType",
          "type": "uint8"
        }
      ],
      "name": "addAsset",
      "outputs": [],
      "stateMutability": "nonpayable",
      "type": "function"
    },
    {
      "inputs": [
        {
          "internalType": "address",
          "name": "_token",
          "type": "address"
        }
      ],
      "name": "addMarketToken",
      "outputs": [],
      "stateMutability": "nonpayable",
      "type": "function"
    },
    {
      "inputs": [
        {
          "internalType": "uint256",
          "name": "_assetId",
          "type": "uint256"
        },
        {
          "internalType": "uint256",
          "name": "_duration",
          "type": "uint256"
        },
        {
          "internalType": "uint256[]",
          "name": "_poolsRange",
          "type": "uint256[]"
        },
        {
          "internalType": "uint256",
          "name": "_liquidity",
          "type": "uint256"
        },
        {
          "internalType": "address",
          "name": "_token",
          "type": "address"
        }
      ],
      "name": "createMarket",
      "outputs": [
        {
          "internalType": "address",
          "name": "marketAddress",
          "type": "address"
        }
      ],
      "stateMutability": "nonpayable",
      "type": "function"
    },
    {
      "inputs": [],
      "name": "feesPercentage",
      "outputs": [
        {
          "internalType": "uint256",
          "name": "creator",
          "type": "uint256"
        },
        {
          "internalType": "uint256",
          "name": "settler",
          "type": "uint256"
        },
        {
          "internalType": "uint256",
          "name": "platform",
          "type": "uint256"
        }
      ],
      "stateMutability": "view",
      "type": "function"
    },
    {
      "inputs": [],
      "name": "gateway",
      "outputs": [
        {
          "internalType": "address",
          "name": "",
          "type": "address"
        }
      ],
      "stateMutability": "view",
      "type": "function"
    },
    {
      "inputs": [
        {
          "internalType": "uint256",
          "name": "_assetId",
          "type": "uint256"
        }
      ],
      "name": "getAsset",
      "outputs": [
        {
          "components": [
            {
              "internalType": "bytes32",
              "name": "assetName",
              "type": "bytes32"
            },
            {
              "internalType": "address",
              "name": "assetFeed",
              "type": "address"
            },
            {
              "internalType": "uint8",
              "name": "decimals",
              "type": "uint8"
            },
            {
              "internalType": "enum MarketLibrary.AssetFeedType",
              "name": "assetFeedType",
              "type": "uint8"
            },
            {
              "internalType": "bool",
              "name": "active",
              "type": "bool"
            }
          ],
          "internalType": "struct MarketLibrary.Asset",
          "name": "",
          "type": "tuple"
        }
      ],
      "stateMutability": "view",
      "type": "function"
    },
    {
      "inputs": [],
      "name": "getMarketDurationParams",
      "outputs": [
        {
          "components": [
            {
              "internalType": "uint256",
              "name": "min",
              "type": "uint256"
            },
            {
              "internalType": "uint256",
              "name": "max",
              "type": "uint256"
            }
          ],
          "internalType": "struct MarketDurationParams",
          "name": "",
          "type": "tuple"
        }
      ],
      "stateMutability": "view",
      "type": "function"
    },
    {
      "inputs": [
        {
          "internalType": "enum MarketLibrary.MarketWindow",
          "name": "_windowType",
          "type": "uint8"
        },
        {
          "internalType": "uint256",
          "name": "_duration",
          "type": "uint256"
        }
      ],
      "name": "getMarketWindow",
      "outputs": [
        {
          "internalType": "uint256",
          "name": "",
          "type": "uint256"
        }
      ],
      "stateMutability": "view",
      "type": "function"
    },
    {
      "inputs": [],
      "name": "lossConstant",
      "outputs": [
        {
          "internalType": "uint8",
          "name": "",
          "type": "uint8"
        }
      ],
      "stateMutability": "view",
      "type": "function"
    },
    {
      "inputs": [],
      "name": "marketDurationParams",
      "outputs": [
        {
          "internalType": "uint256",
          "name": "min",
          "type": "uint256"
        },
        {
          "internalType": "uint256",
          "name": "max",
          "type": "uint256"
        }
      ],
      "stateMutability": "view",
      "type": "function"
    },
    {
      "inputs": [
        {
          "internalType": "address",
          "name": "",
          "type": "address"
        }
      ],
      "name": "marketTokens",
      "outputs": [
        {
          "internalType": "bool",
          "name": "",
          "type": "bool"
        }
      ],
      "stateMutability": "view",
      "type": "function"
    },
    {
      "inputs": [],
      "name": "marketWindowParams",
      "outputs": [
        {
          "internalType": "uint256",
          "name": "WW",
          "type": "uint256"
        },
        {
          "internalType": "uint256",
          "name": "RW",
          "type": "uint256"
        },
        {
          "internalType": "uint256",
          "name": "DW",
          "type": "uint256"
        }
      ],
      "stateMutability": "view",
      "type": "function"
    },
    {
      "inputs": [],
      "name": "minMarketLiquidity",
      "outputs": [
        {
          "internalType": "uint256",
          "name": "",
          "type": "uint256"
        }
      ],
      "stateMutability": "view",
      "type": "function"
    },
    {
      "inputs": [],
      "name": "owner",
      "outputs": [
        {
          "internalType": "address",
          "name": "",
          "type": "address"
        }
      ],
      "stateMutability": "view",
      "type": "function"
    },
    {
      "inputs": [],
      "name": "renounceOwnership",
      "outputs": [],
      "stateMutability": "nonpayable",
      "type": "function"
    },
    {
      "inputs": [
        {
          "internalType": "address",
          "name": "newOwner",
          "type": "address"
        }
      ],
      "name": "transferOwnership",
      "outputs": [],
      "stateMutability": "nonpayable",
      "type": "function"
    },
    {
      "inputs": [
        {
          "internalType": "uint8",
          "name": "_lossConstant",
          "type": "uint8"
        }
      ],
      "name": "updateLossConstant",
      "outputs": [],
      "stateMutability": "nonpayable",
      "type": "function"
    },
    {
      "inputs": [
        {
          "components": [
            {
              "internalType": "uint256",
              "name": "min",
              "type": "uint256"
            },
            {
              "internalType": "uint256",
              "name": "max",
              "type": "uint256"
            }
          ],
          "internalType": "struct MarketDurationParams",
          "name": "_marketDurationParams",
          "type": "tuple"
        }
      ],
      "name": "updateMarketDurationParams",
      "outputs": [],
      "stateMutability": "nonpayable",
      "type": "function"
    },
    {
      "inputs": [
        {
          "internalType": "enum MarketLibrary.MarketWindow",
          "name": "_windowType",
          "type": "uint8"
        },
        {
          "internalType": "uint256",
          "name": "_value",
          "type": "uint256"
        }
      ],
      "name": "updateMarketWindowParams",
      "outputs": [],
      "stateMutability": "nonpayable",
      "type": "function"
    },
    {
      "inputs": [
        {
          "internalType": "uint256",
          "name": "_minMarketLiquidity",
          "type": "uint256"
        }
      ],
      "name": "updateMinMarketLiquidity",
      "outputs": [],
      "stateMutability": "nonpayable",
      "type": "function"
    }
  ],
  "bytecode": "0x60a06040523480156200001157600080fd5b5060405162004bb238038062004bb283398101604081905262000034916200013f565b6200004862000042620000ad565b620000b1565b60609590951b6001600160601b03191660805283516004556020808501516005556040948501516006558351600a5592830151600b55815160075591810151600855909101516009556002556003805460ff191660ff9092169190911790556200022a565b3390565b600080546001600160a01b038381166001600160a01b0319831681178455604051919092169283917f8be0079c531659141344cd1fd0a4f28419497f9722a3daafe3b4186f6b6457e09190a35050565b60006060828403121562000113578081fd5b6200011f6060620001f2565b905081518152602082015160208201526040820151604082015292915050565b6000806000806000808688036101608112156200015a578283fd5b87516001600160a01b038116811462000171578384fd5b9650620001828960208a0162000101565b95506040607f198201121562000196578283fd5b50620001a36040620001f2565b6080880151815260a088015160208201529350620001c58860c0890162000101565b9250610120870151915061014087015160ff81168114620001e4578182fd5b809150509295509295509295565b6040518181016001600160401b03811182821017156200022257634e487b7160e01b600052604160045260246000fd5b604052919050565b60805160601c61496262000250600039600081816104610152610b9801526149626000f3fe60806040523480156200001157600080fd5b5060043610620001905760003560e01c806372ee7da211620000e1578063d1977e2d116200008d578063e03b324b116200006f578063e03b324b146200031c578063eac8f5b81462000335578063f2fde38b146200035b5762000190565b8063d1977e2d14620002fb578063e000f0da14620003055762000190565b8063a4655ebe11620000c3578063a4655ebe14620002b6578063bb0c718f14620002cd578063cef4962814620002e45762000190565b806372ee7da214620002955780638da5cb5b14620002ac5762000190565b8063278a7fbb116200014157806359da0877116200012357806359da0877146200024e5780635db11f791462000265578063715018a6146200028b5762000190565b8063278a7fbb146200021b578063458c848514620002345762000190565b80631c180e2911620001775780631c180e2914620001d0578063200f376214620001e7578063213ecbba14620002005762000190565b8063057f00a71462000195578063116191b614620001ae575b600080fd5b620001ac620001a636600462001236565b62000372565b005b620001b86200045f565b604051620001c7919062001481565b60405180910390f35b620001ac620001e1366004620011c2565b62000483565b620001f162000515565b604051620001c791906200184c565b6200020a6200051e565b604051620001c79392919062001836565b620002256200052a565b604051620001c79190620017c1565b6200023e62000530565b604051620001c7929190620017ca565b620001ac6200025f366004620013b4565b62000539565b6200027c62000276366004620011c2565b620005d1565b604051620001c7919062001572565b620001ac620005e6565b620001ac620002a6366004620011df565b6200063a565b620001b86200087c565b62000225620002c736600462001236565b6200088b565b620001ac620002de366004620012b8565b62000948565b620001ac620002f536600462001266565b620009c5565b6200020a62000a4d565b620001b862000316366004620012d1565b62000a59565b6200032662000d64565b604051620001c79190620017aa565b6200034c62000346366004620012b8565b62000d89565b604051620001c7919062001759565b620001ac6200036c366004620011c2565b62000ea2565b6200037c62000f1f565b6001600160a01b03166200038f6200087c565b6001600160a01b031614620003c15760405162461bcd60e51b8152600401620003b8906200167f565b60405180910390fd5b6001826003811115620003e457634e487b7160e01b600052602160045260246000fd5b1415620003f65760048190556200045b565b60028260038111156200041957634e487b7160e01b600052602160045260246000fd5b14156200042b5760058190556200045b565b60038260038111156200044e57634e487b7160e01b600052602160045260246000fd5b14156200045b5760068190555b5050565b7f000000000000000000000000000000000000000000000000000000000000000081565b6200048d62000f1f565b6001600160a01b0316620004a06200087c565b6001600160a01b031614620004c95760405162461bcd60e51b8152600401620003b8906200167f565b6001600160a01b0381166000818152600d6020526040808220805460ff19166001179055517f2722f146774596e035b4c4ecec541b0f8f2b61816ccd3745040f0e2abfee3c649190a250565b60035460ff1681565b60075460085460095483565b60025481565b600a54600b5482565b6200054362000f1f565b6001600160a01b0316620005566200087c565b6001600160a01b0316146200057f5760405162461bcd60e51b8152600401620003b8906200167f565b6003805460ff191660ff83811691909117918290556040517f4a31325c33e94965409977716763b480a4b6890d65fd2ee20f2fb836ce6ad77b92620005c69216906200184c565b60405180910390a150565b600d6020526000908152604090205460ff1681565b620005f062000f1f565b6001600160a01b0316620006036200087c565b6001600160a01b0316146200062c5760405162461bcd60e51b8152600401620003b8906200167f565b62000638600062000f23565b565b6200064462000f1f565b6001600160a01b0316620006576200087c565b6001600160a01b031614620006805760405162461bcd60e51b8152600401620003b8906200167f565b6001600160a01b0383166200069457600080fd5b60ff8216620006a257600080fd5b600c6040518060a00160405280868152602001856001600160a01b031681526020018460ff168152602001836002811115620006ee57634e487b7160e01b600052602160045260246000fd5b8152600160209182018190528354808201855560009485529382902083516002958602909101908155918301519082018054604085015160ff16600160a01b027fffffffffffffffffffffff00ffffffffffffffffffffffffffffffffffffffff6001600160a01b0390941673ffffffffffffffffffffffffffffffffffffffff19909216919091179290921691909117808255606084015193949293927fffffffffffffffffffff00ffffffffffffffffffffffffffffffffffffffffff90911690600160a81b908490811115620007d757634e487b7160e01b600052602160045260246000fd5b02179055506080919091015160019182018054911515600160b01b027fffffffffffffffffff00ffffffffffffffffffffffffffffffffffffffffffff909216919091179055600c546001600160a01b038516918691620008399190620018d2565b7fd01b532782675240278de336b01e77cf7018185be2ff8efaf0c66d8233e7fb078585336040516200086e939291906200185a565b60405180910390a450505050565b6000546001600160a01b031690565b60006001836003811115620008b057634e487b7160e01b600052602160045260246000fd5b1415620008d057620008c88260046000015462000f80565b905062000942565b6002836003811115620008f357634e487b7160e01b600052602160045260246000fd5b14156200090b57620008c88260046001015462000f80565b60038360038111156200092e57634e487b7160e01b600052602160045260246000fd5b14156200093f575060065462000942565b50805b92915050565b6200095262000f1f565b6001600160a01b0316620009656200087c565b6001600160a01b0316146200098e5760405162461bcd60e51b8152600401620003b8906200167f565b60028190556040517ff90558a167cd0b72d7828545328fc213d761e3e92ff875002accc3ebbcccdfc790620005c6908390620017c1565b620009cf62000f1f565b6001600160a01b0316620009e26200087c565b6001600160a01b03161462000a0b5760405162461bcd60e51b8152600401620003b8906200167f565b6020810151815110801562000a205750805115155b62000a3f5760405162461bcd60e51b8152600401620003b890620016eb565b8051600a5560200151600b55565b60045460055460065483565b6001600160a01b0381166000908152600d602052604081205460ff1662000a945760405162461bcd60e51b8152600401620003b89062001722565b600c548610801562000aa4575060015b801562000aee5750600c868154811062000ace57634e487b7160e01b600052603260045260246000fd5b906000526020600020906002020160010160169054906101000a900460ff165b62000b0d5760405162461bcd60e51b8152600401620003b890620016b4565b600b548510801562000b215750600a548510155b62000b405760405162461bcd60e51b8152600401620003b89062001648565b62000b4b8462000f9a565b62000b6a5760405162461bcd60e51b8152600401620003b8906200157d565b60025483101562000b8f5760405162461bcd60e51b8152600401620003b89062001611565b600042905060007f0000000000000000000000000000000000000000000000000000000000000000308533600c8c8154811062000bdc57634e487b7160e01b600052603260045260246000fd5b906000526020600020906002020162000bf68c8862001078565b6003546040518d9160079160ff9091169062000c129062001112565b62000c269998979695949392919062001495565b604051809103906000f08015801562000c43573d6000803e3d6000fd5b5090508092506001839080600181540180825580915050600190039060005260206000200160009091909190916101000a8154816001600160a01b0302191690836001600160a01b0316021790555087836001600160a01b03167ff8c239177fe972831cba93c6c75a3565683f3fc7462a5c1de25df3393c143369848a8a8a338b60076000015460076001015460076002015460405162000ced99989796959493929190620017d8565b60405180910390a360405163479effe360e01b81526001600160a01b0382169063479effe39062000d25903390899060040162001559565b600060405180830381600087803b15801562000d4057600080fd5b505af115801562000d55573d6000803e3d6000fd5b50505050505095945050505050565b62000d6e62001120565b5060408051808201909152600a548152600b54602082015290565b62000d936200113a565b600c548210801562000da3575060015b62000dc25760405162461bcd60e51b8152600401620003b890620016b4565b600c828154811062000de457634e487b7160e01b600052603260045260246000fd5b60009182526020918290206040805160a08101825260029384029092018054835260018101546001600160a01b0381169584019590955260ff600160a01b8604811692840192909252919391926060850192600160a81b90049091169081111562000e5f57634e487b7160e01b600052602160045260246000fd5b600281111562000e7f57634e487b7160e01b600052602160045260246000fd5b815260019190910154600160b01b900460ff16151560209091015290505b919050565b62000eac62000f1f565b6001600160a01b031662000ebf6200087c565b6001600160a01b03161462000ee85760405162461bcd60e51b8152600401620003b8906200167f565b6001600160a01b03811662000f115760405162461bcd60e51b8152600401620003b890620015b4565b62000f1c8162000f23565b50565b3390565b600080546001600160a01b0383811673ffffffffffffffffffffffffffffffffffffffff19831681178455604051919092169283917f8be0079c531659141344cd1fd0a4f28419497f9722a3daafe3b4186f6b6457e09190a35050565b600081831062000f91578162000f93565b825b9392505050565b6000805b82518110156200106f57600083828151811062000fcb57634e487b7160e01b600052603260045260246000fd5b60200260200101511115806200104957506000811180156200104957508262000ff6600183620018d2565b815181106200101557634e487b7160e01b600052603260045260246000fd5b60200260200101518382815181106200103e57634e487b7160e01b600052603260045260246000fd5b602002602001015111155b156200105a57600091505062000e9d565b806200106681620018ec565b91505062000f9e565b50600192915050565b6200108262001169565b600062001090838562001104565b90506000620010ad620010a56001876200088b565b839062001104565b90506000620010c2620010a56002886200088b565b90506000620010d7620010a56003896200088b565b6040805160a081018252978852602088019590955293860192909252606085015250608083015250919050565b600062000f938284620018b7565b61301f806200193783390190565b604051806040016040528060008152602001600081525090565b6040805160a0810182526000808252602082018190529181018290529060608201908152600060209091015290565b6040518060a0016040528060008152602001600081526020016000815260200160008152602001600081525090565b80356001600160a01b038116811462000e9d57600080fd5b803560ff8116811462000e9d57600080fd5b600060208284031215620011d4578081fd5b62000f938262001198565b60008060008060808587031215620011f5578283fd5b84359350620012076020860162001198565b92506200121760408601620011b0565b91506060850135600381106200122b578182fd5b939692955090935050565b6000806040838503121562001249578182fd5b82356004811062001258578283fd5b946020939093013593505050565b60006040828403121562001278578081fd5b6040516040810181811067ffffffffffffffff821117156200129e576200129e62001920565b604052823581526020928301359281019290925250919050565b600060208284031215620012ca578081fd5b5035919050565b600080600080600060a08688031215620012e9578081fd5b853594506020808701359450604087013567ffffffffffffffff8082111562001310578384fd5b818901915089601f83011262001324578384fd5b81358181111562001339576200133962001920565b83810291506200134b8483016200188a565b8181528481019084860184860187018e101562001366578788fd5b8795505b838610156200138a5780358352600195909501949186019186016200136a565b50975050505060608801359350620013a89150506080870162001198565b90509295509295909350565b600060208284031215620013c6578081fd5b62000f9382620011b0565b6000815180845260208085019450808401835b838110156200140257815187529582019590820190600101620013e4565b509495945050505050565b600381106200142c57634e487b7160e01b600052602160045260246000fd5b9052565b805482526001810154602083015260020154604090910152565b80518252602081015160208301526040810151604083015260608101516060830152608081015160808301525050565b60ff169052565b6001600160a01b0391909116815260200190565b60006102606001600160a01b03808d168452808c166020850152808b166040850152808a16606085015288546080850152600189015481811660a086015260ff8160a01c1660c0860152620014f460e0860160ff8360a81c166200140d565b60b01c60ff16151561010085015250620015136101208401886200144a565b806101c08401526200152881840187620013d1565b9150506200153b6101e083018562001430565b6200154b6102408301846200147a565b9a9950505050505050505050565b6001600160a01b03929092168252602082015260400190565b901515815260200190565b60208082526013908201527f696e76616c69642d706f6f6c732d72616e676500000000000000000000000000604082015260600190565b60208082526026908201527f4f776e61626c653a206e6577206f776e657220697320746865207a65726f206160408201527f6464726573730000000000000000000000000000000000000000000000000000606082015260800190565b60208082526011908201527f696e76616c69642d6c6971756964697479000000000000000000000000000000604082015260600190565b60208082526010908201527f696e76616c69642d6475726174696f6e00000000000000000000000000000000604082015260600190565b6020808252818101527f4f776e61626c653a2063616c6c6572206973206e6f7420746865206f776e6572604082015260600190565b6020808252600d908201527f696e76616c69642d617373657400000000000000000000000000000000000000604082015260600190565b60208082526007908201527f496e76616c696400000000000000000000000000000000000000000000000000604082015260600190565b60208082526014908201527f696e76616c69642d6d61726b65742d746f6b656e000000000000000000000000604082015260600190565b600060a082019050825182526001600160a01b03602084015116602083015260ff604084015116604083015260608301516200179960608401826200140d565b506080928301511515919092015290565b815181526020918201519181019190915260400190565b90815260200190565b918252602082015260400190565b60006101208b83528a6020840152806040840152620017fa8184018b620013d1565b606084019990995250506001600160a01b0395861660808201529390941660a084015260c083019190915260e082015261010001529392505050565b9283526020830191909152604082015260600190565b60ff91909116815260200190565b60ff84168152606081016200187360208301856200140d565b6001600160a01b0383166040830152949350505050565b60405181810167ffffffffffffffff81118282101715620018af57620018af62001920565b604052919050565b60008219821115620018cd57620018cd6200190a565b500190565b600082821015620018e757620018e76200190a565b500390565b60006000198214156200190357620019036200190a565b5060010190565b634e487b7160e01b600052601160045260246000fd5b634e487b7160e01b600052604160045260246000fdfe6101006040526000805460ff191690553480156200001c57600080fd5b506040516200301f3803806200301f8339810160408190526200003f9162000514565b835160015560208085015160029081556040808701516003556060808801516004556080808901516005556001600160601b03198c831b81169091528d821b811660c0528c821b811660e0528a821b1660a052885160079081559389015160088054938b015160ff16600160a01b0260ff60a01b196001600160a01b03939093166001600160a01b03199095169490941791909116929092178083559089015189949390929160ff60a81b191690600160a81b9084908111156200011357634e487b7160e01b600052602160045260246000fd5b02179055506080919091015160019091018054911515600160b01b0260ff60b01b19909216919091179055600b8190556200014e8362000187565b50600954600c805460ff191660ff9092169190911790558051600f5560208101516010556040015160115550620006fe95505050505050565b60005b81518160ff161015620002a55760096040518060c00160405280848460ff1681518110620001c857634e487b7160e01b600052603260045260246000fd5b602002602001015181526020018360ff166000146200021f5784620001ef60018662000689565b60ff16815181106200021157634e487b7160e01b600052603260045260246000fd5b602002602001015162000222565b60005b8152600060208083018290526040808401839052606080850184905260809485018490528654600181810189559785529383902086516006909502019384559185015195830195909555938301516002820155928201516003840155810151600483015560a00151600590910155806200029c81620006af565b9150506200018a565b5060096040518060c0016040528060001981526020018360018551620002cc91906200066f565b81518110620002eb57634e487b7160e01b600052603260045260246000fd5b6020908102919091018101518252600082820181905260408084018290526060808501839052608094850183905286546001818101895597845292849020865160069094020192835592850151958201959095559383015160028501558201516003840155810151600483015560a0015160059091015550565b80516001600160a01b03811681146200037d57600080fd5b919050565b600082601f83011262000393578081fd5b815160206001600160401b0380831115620003b257620003b2620006e8565b81830260405183828201018181108482111715620003d457620003d4620006e8565b60405284815283810192508684018288018501891015620003f3578687fd5b8692505b8583101562000417578051845292840192600192909201918401620003f7565b50979650505050505050565b805180151581146200037d57600080fd5b8051600381106200037d57600080fd5b60006060828403121562000456578081fd5b604051606081016001600160401b03811182821017156200047b576200047b620006e8565b80604052508091508251815260208301516020820152604083015160408201525092915050565b600060a08284031215620004b4578081fd5b60405160a081016001600160401b0381118282101715620004d957620004d9620006e8565b806040525080915082518152602083015160208201526040830151604082015260608301516060820152608083015160808201525092915050565b6000806000806000806000806000898b0361026081121562000534578586fd5b6200053f8b62000365565b99506200054f60208c0162000365565b98506200055f60408c0162000365565b97506200056f60608c0162000365565b965060a0607f198201121562000583578586fd5b5060405160a081016001600160401b038082118383101715620005aa57620005aa620006e8565b8160405260808d01518352620005c360a08e0162000365565b602084015260c08d0151915060ff82168214620005de578788fd5b816040840152620005f260e08e0162000434565b6060840152620006066101008e0162000423565b60808401528297506200061e8e6101208f01620004a2565b96506101c08d015192508083111562000635578586fd5b5050620006458c828d0162000382565b935050620006588b6101e08c0162000444565b91506102408a015190509295985092959850929598565b600082821015620006845762000684620006d2565b500390565b600060ff821660ff841680821015620006a657620006a6620006d2565b90039392505050565b600060ff821660ff811415620006c957620006c9620006d2565b60010192915050565b634e487b7160e01b600052601160045260246000fd5b634e487b7160e01b600052604160045260246000fd5b60805160601c60a05160601c60c05160601c60e05160601c612879620007a660003960008181610a5201528181610f2c01526112530152600081816104b3015281816105170152818161066801528181610d3e01528181610f0a0152818161114a01528181611d5f0152611e5001526000818161041a01528181610f4e01528181611d170152611d990152600081816114120152818161156a01526116c301526128796000f3fe608060405234801561001057600080fd5b50600436106101cf5760003560e01c80635cf40a96116101045780639edbd90a116100a2578063ac4afa3811610071578063ac4afa38146103ca578063c45a0155146103ef578063f1be1679146103f7578063fc0c546a14610410576101cf565b80639edbd90a14610394578063a022da161461039c578063ab221a76146103af578063ac2bfe6d146103b7576101cf565b80637e75bf0a116100de5780637e75bf0a146103255780637fdcc494146103455780638df6008314610367578063997add441461037f576101cf565b80635cf40a96146102f757806366666aa91461030a57806375300ba214610312576101cf565b80632720e4f611610171578063432c821c1161014b578063432c821c146102b0578063479effe3146102c557806351bc1035146102da578063558a04ae146102e2576101cf565b80632720e4f61461027a578063343036271461028257806338d52e0f14610297576101cf565b806316af4453116101ad57806316af44531461020f5780631c059196146102305780632074ba4c14610243578063213ecbba14610263576101cf565b806302d05d3f146101d45780630917e776146101f2578063116191b614610207575b600080fd5b6101dc610418565b6040516101e991906121d1565b60405180910390f35b6101fa61043c565b6040516101e9919061266e565b6101dc6104b1565b61022261021d366004611fde565b6104d5565b6040516101e9929190612677565b6101fa61023e366004612065565b61065b565b61025661025136600461213e565b610998565b6040516101e991906126dd565b61026b6109bc565b6040516101e993929190612685565b6101fa6109c8565b61028a6109ce565b6040516101e991906125b8565b61029f610a0b565b6040516101e99594939291906123d8565b6102b8610a3e565b6040516101e991906126f2565b6102d86102d3366004611ff8565b610a47565b005b6101fa610b7c565b6102ea610b82565b6040516101e99190612416565b610222610305366004611fde565b610cb9565b6101fa610cf9565b6102d8610320366004611ff8565b610cff565b610338610333366004611fde565b610d77565b6040516101e991906125c6565b610358610353366004611fde565b610ed9565b6040516101e9939291906123bb565b61036f610f05565b6040516101e994939291906121e5565b610387610f7c565b6040516101e9919061236d565b61026b61103e565b6102566103aa366004612124565b61104a565b6101dc6110fc565b6102d86103c5366004612021565b61110b565b6103dd6103d83660046120d1565b61120b565b6040516101e99695949392919061269b565b6101dc611251565b6103ff611275565b6040516101e9959493929190612234565b6101dc611410565b7f000000000000000000000000000000000000000000000000000000000000000081565b600080805b60095460ff821610156104aa5761049660098260ff168154811061047557634e487b7160e01b600052603260045260246000fd5b9060005260206000209060060201600201548361143490919063ffffffff16565b9150806104a281612820565b915050610441565b5090505b90565b7f000000000000000000000000000000000000000000000000000000000000000081565b6000806005806104e3610b82565b600581111561050257634e487b7160e01b600052602160045260246000fd5b1461050c57600080fd5b336001600160a01b037f0000000000000000000000000000000000000000000000000000000000000000161461054157600080fd5b6001600160a01b0384166000908152600a602052604090205460ff16156105835760405162461bcd60e51b815260040161057a90612581565b60405180910390fd5b6001600160a01b0384166000908152600a60205260409020600e54600c54600b546105b99392600992909160ff90911690611449565b9093509150826105db5760405162461bcd60e51b815260040161057a90612437565b6001600160a01b0384166000908152600a60205260409020805460ff191660011790556106088484611553565b836001600160a01b0316306001600160a01b03167fdb4eecf913207d0c5ca288de47976cea75c969e262281fda9826a01c80c534c6858560405161064d929190612677565b60405180910390a350915091565b6000336001600160a01b037f0000000000000000000000000000000000000000000000000000000000000000161461069257600080fd5b60008061069d610b82565b60058111156106bc57634e487b7160e01b600052602160045260246000fd5b146106c657600080fd5b600084116106e65760405162461bcd60e51b815260040161057a9061246e565b60095460ff86161080156106f8575060015b6107145760405162461bcd60e51b815260040161057a906124a5565b61071f8387876115f3565b61073b5760405162461bcd60e51b815260040161057a9061254a565b61074586856116ac565b610750858585610998565b67ffffffffffffffff1691506107a5600160098760ff168154811061078557634e487b7160e01b600052603260045260246000fd5b90600052602060002090600602016003015461143490919063ffffffff16565b60098660ff16815481106107c957634e487b7160e01b600052603260045260246000fd5b9060005260206000209060060201600301819055506108268460098760ff168154811061080657634e487b7160e01b600052603260045260246000fd5b90600052602060002090600602016002015461143490919063ffffffff16565b60098660ff168154811061084a57634e487b7160e01b600052603260045260246000fd5b9060005260206000209060060201600201819055506108a78260098760ff168154811061088757634e487b7160e01b600052603260045260246000fd5b90600052602060002090600602016004015461143490919063ffffffff16565b60098660ff16815481106108cb57634e487b7160e01b600052603260045260246000fd5b9060005260206000209060060201600401819055506108f0848460ff16600b546116fc565b60098660ff168154811061091457634e487b7160e01b600052603260045260246000fd5b906000526020600020906006020160050181905550610936868686868661171d565b6007546008546040516001600160a01b03898116939230927fd18afe449669b65a050ed69731c9d6464cfc964408198d2733cf3bcf807956bb92610987928c928a928c928e9242929091169061272d565b60405180910390a450949350505050565b6000806109a48561104a565b90506109b18185856117da565b9150505b9392505050565b600f5460105460115483565b600b5481565b6109d6611f07565b506040805160a08101825260015481526002546020820152600354918101919091526004546060820152600554608082015290565b6007546008546001600160a01b0381169060ff600160a01b8204811691600160a81b8104821691600160b01b9091041685565b600c5460ff1681565b336001600160a01b037f00000000000000000000000000000000000000000000000000000000000000001614610a7c57600080fd5b6009546000610a8e60ff8316846127a7565b90506000610ab4610aa06001856127fd565b610aad9060ff16846127c7565b859061181b565b905060005b8360ff168160ff161015610b745730631c0591968783610ada6001896127fd565b60ff168560ff1614610aec5786610aee565b855b60016040518563ffffffff1660e01b8152600401610b0f9493929190612341565b602060405180830381600087803b158015610b2957600080fd5b505af1158015610b3d573d6000803e3d6000fd5b505050506040513d601f19601f82011682018060405250810190610b6191906120e9565b5080610b6c81612820565b915050610ab9565b505050505050565b600e5481565b6000428160005460ff166005811115610bab57634e487b7160e01b600052602160045260246000fd5b148015610bba57506002548111155b15610bc95760009150506104ae565b6000805460ff166005811115610bef57634e487b7160e01b600052602160045260246000fd5b148015610bfd575060025481115b8015610c0b57506003548111155b15610c1a5760019150506104ae565b6000805460ff166005811115610c4057634e487b7160e01b600052602160045260246000fd5b148015610c4e575060035481115b8015610c5c57506004548111155b15610c6b5760029150506104ae565b6000805460ff166005811115610c9157634e487b7160e01b600052602160045260246000fd5b148015610c9f575060045481115b15610cae5760049150506104ae565b505060005460ff1690565b6001600160a01b0381166000908152600a60205260408120600e54600c54600b548493610cf093909260099260ff90911690611449565b91509150915091565b600d5481565b600480610d0a610b82565b6005811115610d2957634e487b7160e01b600052602160045260246000fd5b14610d3357600080fd5b336001600160a01b037f00000000000000000000000000000000000000000000000000000000000000001614610d6857600080fd5b610d728383611827565b505050565b610d7f611f36565b6001600160a01b0382166000908152600a6020526040812060095490919067ffffffffffffffff811115610dc357634e487b7160e01b600052604160045260246000fd5b604051908082528060200260200182016040528015610dfc57816020015b610de9611f63565b815260200190600190039081610de15790505b50905060005b60095460ff82161015610e8a5760ff8082166000818152600180870160209081526040928390208351606081018552815481529281015491830191909152600201549093169083015283518491908110610e6c57634e487b7160e01b600052603260045260246000fd5b60200260200101819052508080610e8290612820565b915050610e02565b506040805160a081018252925462ffffff62010000820416845260ff808216151560208601526101009091041615159083015260608201526001600160a01b038316608082015290505b919050565b600a6020526000908152604090205460ff8082169161010081049091169062010000900462ffffff1683565b6006547f0000000000000000000000000000000000000000000000000000000000000000917f0000000000000000000000000000000000000000000000000000000000000000917f0000000000000000000000000000000000000000000000000000000000000000916001600160a01b0390911690565b60095460609060009067ffffffffffffffff811115610fab57634e487b7160e01b600052604160045260246000fd5b604051908082528060200260200182016040528015610fd4578160200160208202803683370190505b50905060005b60095460ff821610156104aa57610ff08161104a565b828260ff168151811061101357634e487b7160e01b600052603260045260246000fd5b67ffffffffffffffff909216602092830291909101909101528061103681612820565b915050610fda565b60125460135460145483565b60095460009060ff831610801561105f575060015b61107b5760405162461bcd60e51b815260040161057a906124a5565b60015460009061108c90429061181b565b6001546002549192506000916110a19161181b565b90506110f46110ae61043c565b60098660ff16815481106110d257634e487b7160e01b600052603260045260246000fd5b9060005260206000209060060201600201546110ed876119f2565b8585611ac4565b949350505050565b6006546001600160a01b031681565b600480611116610b82565b600581111561113557634e487b7160e01b600052602160045260246000fd5b1461113f57600080fd5b336001600160a01b037f0000000000000000000000000000000000000000000000000000000000000000161461117457600080fd5b60085460035460405163883200ed60e01b81526000926001600160a01b03169163883200ed916111a9919087906004016126c3565b604080518083038186803b1580156111c057600080fd5b505afa1580156111d4573d6000803e3d6000fd5b505050506040513d601f19601f820116820180604052508101906111f89190612101565b5090506112058482611827565b50505050565b6009818154811061121b57600080fd5b60009182526020909120600690910201805460018201546002830154600384015460048501546005909501549395509193909286565b7f000000000000000000000000000000000000000000000000000000000000000081565b600061127f611f87565b611287611f07565b606060003060076001600961129a610b82565b6040805160a0810182528554815260018601546001600160a01b038116602083015260ff600160a01b8204811693830193909352909186916060840191600160a81b9091041660028111156112ff57634e487b7160e01b600052602160045260246000fd5b600281111561131e57634e487b7160e01b600052602160045260246000fd5b8152600191820154600160b01b900460ff1615156020918201526040805160a0810182528754815292870154838301526002870154838201526003870154606084015260049096015460808301528454865181830281018301909752808752929650909491849160009084015b828210156113f957838290600052602060002090600602016040518060c001604052908160008201548152602001600182015481526020016002820154815260200160038201548152602001600482015481526020016005820154815250508152602001906001019061138b565b505050509150945094509450945094509091929394565b7f000000000000000000000000000000000000000000000000000000000000000081565b6000611440828461278f565b90505b92915050565b60008060005b865460ff821610156115485760ff811660009081526001808a01602052604090912090810154611480908490611434565b92508560ff168260ff1614156115005760006114d582600001548a8560ff16815481106114bd57634e487b7160e01b600052603260045260246000fd5b9060005260206000209060060201600401548a611b31565b90506114f8816114f284600101548861143490919063ffffffff16565b90611434565b945050611535565b600181015460028201546115329161152b91611520919060ff16896116fc565b60018401549061181b565b8590611434565b93505b508061154081612820565b91505061144f565b509550959350505050565b60405163a9059cbb60e01b81526001600160a01b037f0000000000000000000000000000000000000000000000000000000000000000169063a9059cbb906115a19085908590600401612328565b602060405180830381600087803b1580156115bb57600080fd5b505af11580156115cf573d6000803e3d6000fd5b505050506040513d601f19601f82011682018060405250810190610d7291906120b1565b600060ff84161580611608575060058460ff16115b15611615575060006109b5565b6001600160a01b0383166000908152600a602052604090205462010000900462ffffff16611645575060016109b5565b6001600160a01b0383166000908152600a6020908152604080832060ff808716855260019091019092529091206002810154909116158015906116925750600281015460ff868116911614155b156116a15760009150506109b5565b506001949350505050565b6040516323b872dd60e01b81526001600160a01b037f000000000000000000000000000000000000000000000000000000000000000016906323b872dd906115a190859030908690600401612210565b60006110f46064611717846117118888611b4a565b90611b4a565b90611b56565b6001600160a01b0385166000908152600a6020526040902080546001919060029061175490849062010000900462ffffff16612768565b825462ffffff9182166101009390930a9283029190920219909116179055506001600160a01b0385166000908152600a6020908152604080832060ff88168452600101909152902080546117a89083611434565b815560018101546117b99085611434565b6001820155600201805460ff191660ff939093169290921790915550505050565b600060058260ff1611156118005760405162461bcd60e51b815260040161057a906124dc565b6110f467ffffffffffffffff85166117178560ff8616611b4a565b600061144082846127e6565b61183081611b62565b600c805460ff191660ff92909216919091179055600680547fffffffffffffffffffffffff0000000000000000000000000000000000000000166001600160a01b038416179055600980546040805160208084028201810190925282815261191b939092909160009084015b8282101561190a57838290600052602060002090600602016040518060c001604052908160008201548152602001600182015481526020016002820154815260200160038201548152602001600482015481526020016005820154815250508152602001906001019061189c565b5050600c5460ff169150611c129050565b600d81905560408051606081018252600f54815260105460208201526011549181019190915261194b9190611c8f565b6013819055601482905560128390556119769261196d92916114f29190611434565b600d549061181b565b600e55611981611d12565b611989611eac565b600c54600d54601254601354601454600e5460405142966001600160a01b038a169630967f712261700497179a422a974c925ee9cf98479329641e53ba1b724ff3a68f4548966119e69660ff909416959294919390929091612700565b60405180910390a45050565b600080600760010160009054906101000a90046001600160a01b03166001600160a01b0316638e15f4736040518163ffffffff1660e01b815260040160206040518083038186803b158015611a4657600080fd5b505afa158015611a5a573d6000803e3d6000fd5b505050506040513d601f19601f82011682018060405250810190611a7e91906120e9565b90506000611a8b82611b62565b90508060ff168460ff161115611ab457611aab60ff85811690831661181b565b92505050610ed4565b6110f460ff82811690861661181b565b600080611ad2856001611434565b90506000611aef611ae38584611b4a565b61171787612710611b4a565b90506000611b0d611b0160018b611ef0565b6117178a612710611b4a565b90506000611b236305f5e1006114f28486611b4a565b9a9950505050505050505050565b600082611b40575060006109b5565b6110f48361171784875b600061144082846127c7565b600061144082846127a7565b600080805b60095460ff821611611c0b5760098160ff1681548110611b9757634e487b7160e01b600052603260045260246000fd5b90600052602060002090600602016001015484118015611bec575060098160ff1681548110611bd657634e487b7160e01b600052603260045260246000fd5b9060005260206000209060060201600001548411155b15611bf957809150611c0b565b80611c0381612820565b915050611b67565b5092915050565b60008060005b84518160ff161015611c87578360ff168160ff1614611c7557611c72858260ff1681518110611c5757634e487b7160e01b600052603260045260246000fd5b602002602001015160a001518361143490919063ffffffff16565b91505b80611c7f81612820565b915050611c18565b509392505050565b6000806000808511611cb35760405162461bcd60e51b815260040161057a90612513565b8351611cc990620186a090611717908890611b4a565b9250611ce9620186a0611717866040015188611b4a90919063ffffffff16565b9150611d09620186a0611717866020015188611b4a90919063ffffffff16565b90509250925092565b611d417f0000000000000000000000000000000000000000000000000000000000000000601260000154611553565b600654601454611d5a916001600160a01b031690611553565b611d897f0000000000000000000000000000000000000000000000000000000000000000601260010154611553565b6012546040516001600160a01b037f0000000000000000000000000000000000000000000000000000000000000000169130917f26532b91ba2eb213c7b8fcd034f2d520a1c308292d25e1afe2ef58b84df8182591611deb9160009190612424565b60405180910390a36006546014546040516001600160a01b039092169130917f26532b91ba2eb213c7b8fcd034f2d520a1c308292d25e1afe2ef58b84df8182591611e3891600191612424565b60405180910390a36013546040516001600160a01b037f0000000000000000000000000000000000000000000000000000000000000000169130917f26532b91ba2eb213c7b8fcd034f2d520a1c308292d25e1afe2ef58b84df8182591611ea29160029190612424565b60405180910390a3565b600480611eb7610b82565b6005811115611ed657634e487b7160e01b600052602160045260246000fd5b14611ee057600080fd5b506000805460ff19166005179055565b600081831015611f005781611440565b5090919050565b6040518060a0016040528060008152602001600081526020016000815260200160008152602001600081525090565b6040805160a081018252600080825260208201819052918101829052606080820152608081019190915290565b60405180606001604052806000815260200160008152602001600060ff1681525090565b6040805160a0810182526000808252602082018190529181018290529060608201908152600060209091015290565b80356001600160a01b0381168114610ed457600080fd5b803560ff81168114610ed457600080fd5b600060208284031215611fef578081fd5b61144082611fb6565b6000806040838503121561200a578081fd5b61201383611fb6565b946020939093013593505050565b60008060408385031215612033578182fd5b61203c83611fb6565b9150602083013569ffffffffffffffffffff8116811461205a578182fd5b809150509250929050565b6000806000806080858703121561207a578182fd5b61208385611fb6565b935061209160208601611fcd565b9250604085013591506120a660608601611fcd565b905092959194509250565b6000602082840312156120c2578081fd5b815180151581146109b5578182fd5b6000602082840312156120e2578081fd5b5035919050565b6000602082840312156120fa578081fd5b5051919050565b60008060408385031215612113578182fd5b505080516020909101519092909150565b600060208284031215612135578081fd5b61144082611fcd565b600080600060608486031215612152578283fd5b61215b84611fcd565b925060208401359150611d0960408501611fcd565b6001600160a01b03169052565b6003811061218d5761218d612856565b9052565b6006811061218d5761218d612856565b80518252602081015160208301526040810151604083015260608101516060830152608081015160808301525050565b6001600160a01b0391909116815260200190565b6001600160a01b03948516815292841660208401529083166040830152909116606082015260800190565b6001600160a01b039384168152919092166020820152604081019190915260600190565b60006101a08083016001600160a01b03808a1685526020895181870152808a0151604083821681890152808c015193506060915060ff841682890152818c015193506080612284818a018661217d565b808d0151945060a0851515818b015260c095506122a3868b018e6121a1565b6101608a01979097528a51958690526101c0890196848c0196895b8181101561230357885180518b5287810151888c015285810151868c015286810151878c015284810151858c0152830151838b015298870198978601976001016122be565b5050505050505050508091505061231e610180830184612191565b9695505050505050565b6001600160a01b03929092168252602082015260400190565b6001600160a01b0394909416845260ff9283166020850152604084019190915216606082015260800190565b6020808252825182820181905260009190848201906040850190845b818110156123af57835167ffffffffffffffff1683529284019291840191600101612389565b50909695505050505050565b9215158352901515602083015262ffffff16604082015260600190565b8581526001600160a01b038516602082015260ff8416604082015260a08101612404606083018561217d565b82151560808301529695505050505050565b602081016114438284612191565b60ff929092168252602082015260400190565b60208082526013908201527f6e6f2d72657475726e732d746f2d63616c696d00000000000000000000000000604082015260600190565b6020808252601c908201527f43727970746f4d61726b65743a3a696e76616c69642d616d6f756e7400000000604082015260600190565b6020808252601a908201527f43727970746f4d61726b65743a3a696e76616c69642d706f6f6c000000000000604082015260600190565b60208082526010908201527f696e76616c69642d6c6576657261676500000000000000000000000000000000604082015260600190565b6020808252600f908201527f696e76616c69642d726577617264730000000000000000000000000000000000604082015260600190565b6020808252601e908201527f43727970746f4d61726b65743a3a696e76616c69642d6c657665726167650000604082015260600190565b60208082526017908201527f72657475726e732d616c72656164792d636c61696d6564000000000000000000604082015260600190565b60a0810161144382846121a1565b6020808252825162ffffff16828201528281015115156040808401919091528084015115156060808501919091528085015160a06080860152805160c08601819052600094939184019285929160e08801905b8085101561264d57855180518352878101518884015284015160ff1684830152948601946001949094019390820190612619565b506080890151955061266260a0890187612170565b98975050505050505050565b90815260200190565b918252602082015260400190565b9283526020830191909152604082015260600190565b958652602086019490945260408501929092526060840152608083015260a082015260c00190565b91825269ffffffffffffffffffff16602082015260400190565b67ffffffffffffffff91909116815260200190565b60ff91909116815260200190565b60ff969096168652602086019490945260408501929092526060840152608083015260a082015260c00190565b60ff96871681526020810195909552929094166040840152606083015260808201929092526001600160a01b0390911660a082015260c00190565b600062ffffff80831681851680830382111561278657612786612840565b01949350505050565b600082198211156127a2576127a2612840565b500190565b6000826127c257634e487b7160e01b81526012600452602481fd5b500490565b60008160001904831182151516156127e1576127e1612840565b500290565b6000828210156127f8576127f8612840565b500390565b600060ff821660ff84168082101561281757612817612840565b90039392505050565b600060ff821660ff81141561283757612837612840565b60010192915050565b634e487b7160e01b600052601160045260246000fd5b634e487b7160e01b600052602160045260246000fdfea164736f6c6343000800000aa164736f6c6343000800000a",
  "linkReferences": {},
  "deployedLinkReferences": {}
}