{
  "_format": "hh-sol-artifact-1",
  "contractName": "Market",
  "sourceName": "contracts/Market.sol",
  "abi": [
    {
      "inputs": [
        {
          "internalType": "address",
          "name": "_gateway",
          "type": "address"
        },
        {
          "internalType": "address",
          "name": "_factory",
          "type": "address"
        },
        {
          "internalType": "address",
          "name": "_token",
          "type": "address"
        },
        {
          "internalType": "address",
          "name": "_creator",
          "type": "address"
        },
        {
          "components": [
            {
              "internalType": "bytes32",
              "name": "assetName",
              "type": "bytes32"
            },
            {
              "internalType": "address",
              "name": "assetFeed",
              "type": "address"
            },
            {
              "internalType": "uint8",
              "name": "decimals",
              "type": "uint8"
            },
            {
              "internalType": "enum MarketLibrary.AssetFeedType",
              "name": "assetFeedType",
              "type": "uint8"
            },
            {
              "internalType": "bool",
              "name": "active",
              "type": "bool"
            }
          ],
          "internalType": "struct MarketLibrary.Asset",
          "name": "_asset",
          "type": "tuple"
        },
        {
          "components": [
            {
              "internalType": "uint256",
              "name": "creationTime",
              "type": "uint256"
            },
            {
              "internalType": "uint256",
              "name": "tradingEndTime",
              "type": "uint256"
            },
            {
              "internalType": "uint256",
              "name": "waitingEndTime",
              "type": "uint256"
            },
            {
              "internalType": "uint256",
              "name": "reportingEndTime",
              "type": "uint256"
            },
            {
              "internalType": "uint256",
              "name": "disputeEndTime",
              "type": "uint256"
            }
          ],
          "internalType": "struct MarketLibrary.MarketTime",
          "name": "_marketTime",
          "type": "tuple"
        },
        {
          "internalType": "uint256[]",
          "name": "_pools",
          "type": "uint256[]"
        },
        {
          "components": [
            {
              "internalType": "uint24",
              "name": "creator",
              "type": "uint24"
            },
            {
              "internalType": "uint24",
              "name": "settler",
              "type": "uint24"
            },
            {
              "internalType": "uint24",
              "name": "platform",
              "type": "uint24"
            }
          ],
          "internalType": "struct MarketLibrary.FeesPercentage",
          "name": "_feesPercentage",
          "type": "tuple"
        },
        {
          "internalType": "uint256",
          "name": "_LC",
          "type": "uint256"
        }
      ],
      "stateMutability": "nonpayable",
      "type": "constructor"
    },
    {
      "anonymous": false,
      "inputs": [
        {
          "indexed": true,
          "internalType": "address",
          "name": "market",
          "type": "address"
        },
        {
          "indexed": true,
          "internalType": "address",
          "name": "user",
          "type": "address"
        },
        {
          "indexed": false,
          "internalType": "uint256",
          "name": "totalReturns",
          "type": "uint256"
        },
        {
          "indexed": false,
          "internalType": "uint256",
          "name": "participationAmount",
          "type": "uint256"
        }
      ],
      "name": "ClaimReturns",
      "type": "event"
    },
    {
      "anonymous": false,
      "inputs": [
        {
          "indexed": true,
          "internalType": "address",
          "name": "market",
          "type": "address"
        },
        {
          "indexed": true,
          "internalType": "address",
          "name": "user",
          "type": "address"
        },
        {
          "indexed": false,
          "internalType": "uint8",
          "name": "awardType",
          "type": "uint8"
        },
        {
          "indexed": false,
          "internalType": "uint256",
          "name": "amount",
          "type": "uint256"
        }
      ],
      "name": "DistributeMarketFee",
      "type": "event"
    },
    {
      "anonymous": false,
      "inputs": [
        {
          "indexed": true,
          "internalType": "address",
          "name": "market",
          "type": "address"
        },
        {
          "indexed": true,
          "internalType": "bytes32",
          "name": "asset",
          "type": "bytes32"
        },
        {
          "indexed": true,
          "internalType": "address",
          "name": "user",
          "type": "address"
        },
        {
          "indexed": false,
          "internalType": "uint8",
          "name": "prediction",
          "type": "uint8"
        },
        {
          "indexed": false,
          "internalType": "uint256",
          "name": "positions",
          "type": "uint256"
        },
        {
          "indexed": false,
          "internalType": "uint8",
          "name": "leverage",
          "type": "uint8"
        },
        {
          "indexed": false,
          "internalType": "uint256",
          "name": "amount",
          "type": "uint256"
        },
        {
          "indexed": false,
          "internalType": "uint256",
          "name": "timestamp",
          "type": "uint256"
        },
        {
          "indexed": false,
          "internalType": "address",
          "name": "marketFeed",
          "type": "address"
        }
      ],
      "name": "PlacePrediction",
      "type": "event"
    },
    {
      "anonymous": false,
      "inputs": [
        {
          "indexed": true,
          "internalType": "address",
          "name": "market",
          "type": "address"
        },
        {
          "indexed": true,
          "internalType": "address",
          "name": "settler",
          "type": "address"
        },
        {
          "indexed": true,
          "internalType": "uint256",
          "name": "timestamp",
          "type": "uint256"
        },
        {
          "indexed": false,
          "internalType": "uint8",
          "name": "winningPool",
          "type": "uint8"
        },
        {
          "indexed": false,
          "internalType": "uint256",
          "name": "rewardPool",
          "type": "uint256"
        },
        {
          "indexed": false,
          "internalType": "uint256",
          "name": "creatorReward",
          "type": "uint256"
        },
        {
          "indexed": false,
          "internalType": "uint256",
          "name": "platformReward",
          "type": "uint256"
        },
        {
          "indexed": false,
          "internalType": "uint256",
          "name": "settlerReward",
          "type": "uint256"
        },
        {
          "indexed": false,
          "internalType": "uint256",
          "name": "usersRewardPool",
          "type": "uint256"
        }
      ],
      "name": "SettleMarket",
      "type": "event"
    },
    {
      "inputs": [],
      "name": "LC",
      "outputs": [
        {
          "internalType": "uint256",
          "name": "",
          "type": "uint256"
        }
      ],
      "stateMutability": "view",
      "type": "function"
    },
    {
      "inputs": [
        {
          "internalType": "address",
          "name": "_user",
          "type": "address"
        },
        {
          "internalType": "uint256",
          "name": "_liquidity",
          "type": "uint256"
        }
      ],
      "name": "addInitialLiquidity",
      "outputs": [],
      "stateMutability": "nonpayable",
      "type": "function"
    },
    {
      "inputs": [],
      "name": "asset",
      "outputs": [
        {
          "internalType": "bytes32",
          "name": "assetName",
          "type": "bytes32"
        },
        {
          "internalType": "address",
          "name": "assetFeed",
          "type": "address"
        },
        {
          "internalType": "uint8",
          "name": "decimals",
          "type": "uint8"
        },
        {
          "internalType": "enum MarketLibrary.AssetFeedType",
          "name": "assetFeedType",
          "type": "uint8"
        },
        {
          "internalType": "bool",
          "name": "active",
          "type": "bool"
        }
      ],
      "stateMutability": "view",
      "type": "function"
    },
    {
      "inputs": [
        {
          "internalType": "address",
          "name": "_user",
          "type": "address"
        }
      ],
      "name": "claimReturns",
      "outputs": [
        {
          "internalType": "uint256",
          "name": "totalReturns",
          "type": "uint256"
        },
        {
          "internalType": "uint256",
          "name": "participationAmount",
          "type": "uint256"
        }
      ],
      "stateMutability": "nonpayable",
      "type": "function"
    },
    {
      "inputs": [],
      "name": "creator",
      "outputs": [
        {
          "internalType": "address",
          "name": "",
          "type": "address"
        }
      ],
      "stateMutability": "view",
      "type": "function"
    },
    {
      "inputs": [],
      "name": "factory",
      "outputs": [
        {
          "internalType": "address",
          "name": "",
          "type": "address"
        }
      ],
      "stateMutability": "view",
      "type": "function"
    },
    {
      "inputs": [],
      "name": "feesPercentage",
      "outputs": [
        {
          "internalType": "uint24",
          "name": "creator",
          "type": "uint24"
        },
        {
          "internalType": "uint24",
          "name": "settler",
          "type": "uint24"
        },
        {
          "internalType": "uint24",
          "name": "platform",
          "type": "uint24"
        }
      ],
      "stateMutability": "view",
      "type": "function"
    },
    {
      "inputs": [],
      "name": "gateway",
      "outputs": [
        {
          "internalType": "address",
          "name": "",
          "type": "address"
        }
      ],
      "stateMutability": "view",
      "type": "function"
    },
    {
      "inputs": [],
      "name": "getMarket",
      "outputs": [
        {
          "internalType": "address",
          "name": "",
          "type": "address"
        },
        {
          "components": [
            {
              "internalType": "bytes32",
              "name": "assetName",
              "type": "bytes32"
            },
            {
              "internalType": "address",
              "name": "assetFeed",
              "type": "address"
            },
            {
              "internalType": "uint8",
              "name": "decimals",
              "type": "uint8"
            },
            {
              "internalType": "enum MarketLibrary.AssetFeedType",
              "name": "assetFeedType",
              "type": "uint8"
            },
            {
              "internalType": "bool",
              "name": "active",
              "type": "bool"
            }
          ],
          "internalType": "struct MarketLibrary.Asset",
          "name": "",
          "type": "tuple"
        },
        {
          "components": [
            {
              "internalType": "uint256",
              "name": "creationTime",
              "type": "uint256"
            },
            {
              "internalType": "uint256",
              "name": "tradingEndTime",
              "type": "uint256"
            },
            {
              "internalType": "uint256",
              "name": "waitingEndTime",
              "type": "uint256"
            },
            {
              "internalType": "uint256",
              "name": "reportingEndTime",
              "type": "uint256"
            },
            {
              "internalType": "uint256",
              "name": "disputeEndTime",
              "type": "uint256"
            }
          ],
          "internalType": "struct MarketLibrary.MarketTime",
          "name": "",
          "type": "tuple"
        },
        {
          "components": [
            {
              "internalType": "uint256",
              "name": "upper",
              "type": "uint256"
            },
            {
              "internalType": "uint256",
              "name": "lower",
              "type": "uint256"
            },
            {
              "internalType": "uint256",
              "name": "staked",
              "type": "uint256"
            },
            {
              "internalType": "uint256",
              "name": "participants",
              "type": "uint256"
            },
            {
              "internalType": "uint256",
              "name": "positions",
              "type": "uint256"
            },
            {
              "internalType": "uint256",
              "name": "rewards",
              "type": "uint256"
            }
          ],
          "internalType": "struct MarketLibrary.Pool[]",
          "name": "",
          "type": "tuple[]"
        },
        {
          "internalType": "enum MarketLibrary.Phase",
          "name": "",
          "type": "uint8"
        }
      ],
      "stateMutability": "view",
      "type": "function"
    },
    {
      "inputs": [],
      "name": "getMarketEntity",
      "outputs": [
        {
          "internalType": "address",
          "name": "",
          "type": "address"
        },
        {
          "internalType": "address",
          "name": "",
          "type": "address"
        },
        {
          "internalType": "address",
          "name": "",
          "type": "address"
        },
        {
          "internalType": "address",
          "name": "",
          "type": "address"
        }
      ],
      "stateMutability": "view",
      "type": "function"
    },
    {
      "inputs": [],
      "name": "getMarketPhase",
      "outputs": [
        {
          "internalType": "enum MarketLibrary.Phase",
          "name": "",
          "type": "uint8"
        }
      ],
      "stateMutability": "view",
      "type": "function"
    },
    {
      "inputs": [],
      "name": "getMarketTime",
      "outputs": [
        {
          "components": [
            {
              "internalType": "uint256",
              "name": "creationTime",
              "type": "uint256"
            },
            {
              "internalType": "uint256",
              "name": "tradingEndTime",
              "type": "uint256"
            },
            {
              "internalType": "uint256",
              "name": "waitingEndTime",
              "type": "uint256"
            },
            {
              "internalType": "uint256",
              "name": "reportingEndTime",
              "type": "uint256"
            },
            {
              "internalType": "uint256",
              "name": "disputeEndTime",
              "type": "uint256"
            }
          ],
          "internalType": "struct MarketLibrary.MarketTime",
          "name": "",
          "type": "tuple"
        }
      ],
      "stateMutability": "view",
      "type": "function"
    },
    {
      "inputs": [],
      "name": "getMarketToken",
      "outputs": [
        {
          "internalType": "address",
          "name": "",
          "type": "address"
        }
      ],
      "stateMutability": "view",
      "type": "function"
    },
    {
      "inputs": [
        {
          "internalType": "address",
          "name": "_user",
          "type": "address"
        }
      ],
      "name": "getMarketUser",
      "outputs": [
        {
          "components": [
            {
              "internalType": "uint24",
              "name": "numberOfPredictions",
              "type": "uint24"
            },
            {
              "internalType": "bool",
              "name": "returnsClaimed",
              "type": "bool"
            },
            {
              "internalType": "bool",
              "name": "boostModeApplied",
              "type": "bool"
            },
            {
              "components": [
                {
                  "internalType": "uint256",
                  "name": "positions",
                  "type": "uint256"
                },
                {
                  "internalType": "uint256",
                  "name": "amount",
                  "type": "uint256"
                },
                {
                  "internalType": "uint8",
                  "name": "leverage",
                  "type": "uint8"
                }
              ],
              "internalType": "struct MarketLibrary.Prediction[]",
              "name": "predictions",
              "type": "tuple[]"
            },
            {
              "internalType": "address",
              "name": "user",
              "type": "address"
            }
          ],
          "internalType": "struct MarketLibrary.MarketUserResponse",
          "name": "",
          "type": "tuple"
        }
      ],
      "stateMutability": "view",
      "type": "function"
    },
    {
      "inputs": [
        {
          "internalType": "uint8",
          "name": "_prediction",
          "type": "uint8"
        }
      ],
      "name": "getPoolPrice",
      "outputs": [
        {
          "internalType": "uint64",
          "name": "",
          "type": "uint64"
        }
      ],
      "stateMutability": "view",
      "type": "function"
    },
    {
      "inputs": [],
      "name": "getPoolsPrice",
      "outputs": [
        {
          "internalType": "uint64[]",
          "name": "",
          "type": "uint64[]"
        }
      ],
      "stateMutability": "view",
      "type": "function"
    },
    {
      "inputs": [
        {
          "internalType": "uint8",
          "name": "_prediction",
          "type": "uint8"
        },
        {
          "internalType": "uint256",
          "name": "_amount",
          "type": "uint256"
        },
        {
          "internalType": "uint8",
          "name": "_leverage",
          "type": "uint8"
        }
      ],
      "name": "getPositions",
      "outputs": [
        {
          "internalType": "uint64",
          "name": "",
          "type": "uint64"
        }
      ],
      "stateMutability": "view",
      "type": "function"
    },
    {
      "inputs": [],
      "name": "getTotalStaked",
      "outputs": [
        {
          "internalType": "uint256",
          "name": "",
          "type": "uint256"
        }
      ],
      "stateMutability": "view",
      "type": "function"
    },
    {
      "inputs": [
        {
          "internalType": "address",
          "name": "_user",
          "type": "address"
        }
      ],
      "name": "getUserTotalReturns",
      "outputs": [
        {
          "internalType": "uint256",
          "name": "",
          "type": "uint256"
        },
        {
          "internalType": "uint256",
          "name": "",
          "type": "uint256"
        }
      ],
      "stateMutability": "view",
      "type": "function"
    },
    {
      "inputs": [],
      "name": "marketFees",
      "outputs": [
        {
          "internalType": "uint256",
          "name": "creator",
          "type": "uint256"
        },
        {
          "internalType": "uint256",
          "name": "platform",
          "type": "uint256"
        },
        {
          "internalType": "uint256",
          "name": "settler",
          "type": "uint256"
        }
      ],
      "stateMutability": "view",
      "type": "function"
    },
    {
      "inputs": [
        {
          "internalType": "address",
          "name": "",
          "type": "address"
        }
      ],
      "name": "marketUsers",
      "outputs": [
        {
          "internalType": "bool",
          "name": "returnsClaimed",
          "type": "bool"
        },
        {
          "internalType": "bool",
          "name": "boostModeApplied",
          "type": "bool"
        },
        {
          "internalType": "uint24",
          "name": "numberOfPredictions",
          "type": "uint24"
        }
      ],
      "stateMutability": "view",
      "type": "function"
    },
    {
      "inputs": [
        {
          "internalType": "address",
          "name": "_user",
          "type": "address"
        },
        {
          "internalType": "uint8",
          "name": "_prediction",
          "type": "uint8"
        },
        {
          "internalType": "uint256",
          "name": "_amount",
          "type": "uint256"
        },
        {
          "internalType": "uint8",
          "name": "_leverage",
          "type": "uint8"
        }
      ],
      "name": "placePrediction",
      "outputs": [
        {
          "internalType": "uint256",
          "name": "positions",
          "type": "uint256"
        }
      ],
      "stateMutability": "nonpayable",
      "type": "function"
    },
    {
      "inputs": [
        {
          "internalType": "uint256",
          "name": "",
          "type": "uint256"
        }
      ],
      "name": "pools",
      "outputs": [
        {
          "internalType": "uint256",
          "name": "upper",
          "type": "uint256"
        },
        {
          "internalType": "uint256",
          "name": "lower",
          "type": "uint256"
        },
        {
          "internalType": "uint256",
          "name": "staked",
          "type": "uint256"
        },
        {
          "internalType": "uint256",
          "name": "participants",
          "type": "uint256"
        },
        {
          "internalType": "uint256",
          "name": "positions",
          "type": "uint256"
        },
        {
          "internalType": "uint256",
          "name": "rewards",
          "type": "uint256"
        }
      ],
      "stateMutability": "view",
      "type": "function"
    },
    {
      "inputs": [],
      "name": "rewardPool",
      "outputs": [
        {
          "internalType": "uint256",
          "name": "",
          "type": "uint256"
        }
      ],
      "stateMutability": "view",
      "type": "function"
    },
    {
      "inputs": [
        {
          "internalType": "address",
          "name": "_settler",
          "type": "address"
        },
        {
          "internalType": "uint80",
          "name": "_roundId",
          "type": "uint80"
        }
      ],
      "name": "settleMarket",
      "outputs": [],
      "stateMutability": "nonpayable",
      "type": "function"
    },
    {
      "inputs": [
        {
          "internalType": "address",
          "name": "_settler",
          "type": "address"
        },
        {
          "internalType": "uint256",
          "name": "_winningPrice",
          "type": "uint256"
        }
      ],
      "name": "settleMarketExternal",
      "outputs": [],
      "stateMutability": "nonpayable",
      "type": "function"
    },
    {
      "inputs": [],
      "name": "settler",
      "outputs": [
        {
          "internalType": "address",
          "name": "",
          "type": "address"
        }
      ],
      "stateMutability": "view",
      "type": "function"
    },
    {
      "inputs": [],
      "name": "token",
      "outputs": [
        {
          "internalType": "address",
          "name": "",
          "type": "address"
        }
      ],
      "stateMutability": "view",
      "type": "function"
    },
    {
      "inputs": [],
      "name": "userRewardPool",
      "outputs": [
        {
          "internalType": "uint256",
          "name": "",
          "type": "uint256"
        }
      ],
      "stateMutability": "view",
      "type": "function"
    },
    {
      "inputs": [],
      "name": "winningPool",
      "outputs": [
        {
          "internalType": "uint8",
          "name": "",
          "type": "uint8"
        }
      ],
      "stateMutability": "view",
      "type": "function"
    }
  ],
  "bytecode": "0x6101006040526000805460ff191690553480156200001c57600080fd5b50604051620030b4380380620030b48339810160408190526200003f9162000585565b835160015560208085015160029081556040808701516003556060808801516004556080808901516005556001600160601b03198c831b81169091528d821b811660c0528c821b811660e0528a821b1660a052885160079081559389015160088054938b015160ff16600160a01b0260ff60a01b196001600160a01b03939093166001600160a01b03199095169490941791909116929092178083559089015189949390929160ff60a81b191690600160a81b9084908111156200011357634e487b7160e01b600052602160045260246000fd5b02179055506080919091015160019091018054911515600160b01b0260ff60b01b19909216919091179055600b8190556200014e83620001cb565b50600954600c805460ff90921660ff199092169190911790558051600f8054602084015160409094015162ffffff90811666010000000000000262ffffff60301b1995821663010000000265ffffff000000199290951662ffffff1990931692909217169290921792909216179055506200076f95505050505050565b60005b81518160ff161015620002e95760096040518060c00160405280848460ff16815181106200020c57634e487b7160e01b600052603260045260246000fd5b602002602001015181526020018360ff1660001462000263578462000233600186620006fa565b60ff16815181106200025557634e487b7160e01b600052603260045260246000fd5b602002602001015162000266565b60005b8152600060208083018290526040808401839052606080850184905260809485018490528654600181810189559785529383902086516006909502019384559185015195830195909555938301516002820155928201516003840155810151600483015560a0015160059091015580620002e08162000720565b915050620001ce565b5060096040518060c0016040528060001981526020018360018551620003109190620006e0565b815181106200032f57634e487b7160e01b600052603260045260246000fd5b6020908102919091018101518252600082820181905260408084018290526060808501839052608094850183905286546001818101895597845292849020865160069094020192835592850151958201959095559383015160028501558201516003840155810151600483015560a0015160059091015550565b80516001600160a01b0381168114620003c157600080fd5b919050565b600082601f830112620003d7578081fd5b815160206001600160401b0380831115620003f657620003f662000759565b8183026040518382820101818110848211171562000418576200041862000759565b6040528481528381019250868401828801850189101562000437578687fd5b8692505b858310156200045b5780518452928401926001929092019184016200043b565b50979650505050505050565b80518015158114620003c157600080fd5b805160038110620003c157600080fd5b6000606082840312156200049a578081fd5b604051606081016001600160401b0381118282101715620004bf57620004bf62000759565b604052905080620004d08362000571565b8152620004e06020840162000571565b6020820152620004f36040840162000571565b60408201525092915050565b600060a0828403121562000511578081fd5b60405160a081016001600160401b038111828210171562000536576200053662000759565b806040525080915082518152602083015160208201526040830151604082015260608301516060820152608083015160808201525092915050565b805162ffffff81168114620003c157600080fd5b6000806000806000806000806000898b03610260811215620005a5578586fd5b620005b08b620003a9565b9950620005c060208c01620003a9565b9850620005d060408c01620003a9565b9750620005e060608c01620003a9565b965060a0607f1982011215620005f4578586fd5b5060405160a081016001600160401b0380821183831017156200061b576200061b62000759565b8160405260808d015183526200063460a08e01620003a9565b602084015260c08d0151915060ff821682146200064f578788fd5b8160408401526200066360e08e0162000478565b6060840152620006776101008e0162000467565b60808401528297506200068f8e6101208f01620004ff565b96506101c08d0151925080831115620006a6578586fd5b5050620006b68c828d01620003c6565b935050620006c98b6101e08c0162000488565b91506102408a015190509295985092959850929598565b600082821015620006f557620006f562000743565b500390565b600060ff821660ff84168082101562000717576200071762000743565b90039392505050565b600060ff821660ff8114156200073a576200073a62000743565b60010192915050565b634e487b7160e01b600052601160045260246000fd5b634e487b7160e01b600052604160045260246000fd5b60805160601c60a05160601c60c05160601c60e05160601c61289d6200081760003960008181610aa601528181610f8001526112a70152600081816104d5015281816105390152818161068a01528181610d9201528181610f5e0152818161119e01528181611d880152611e7901526000818161043c01528181610fa201528181611d400152611dc2015260008181610a700152818161146601526115be015261289d6000f3fe608060405234801561001057600080fd5b50600436106101da5760003560e01c80635cf40a96116101045780639edbd90a116100a2578063ac4afa3811610071578063ac4afa38146103ec578063c45a015514610411578063f1be167914610419578063fc0c546a14610432576101da565b80639edbd90a146103a7578063a022da16146103be578063ab221a76146103d1578063ac2bfe6d146103d9576101da565b80637e75bf0a116100de5780637e75bf0a146103385780637fdcc494146103585780638df600831461037a578063997add4414610392576101da565b80635cf40a961461030a57806366666aa91461031d57806375300ba214610325576101da565b80632720e4f61161017c578063432c821c1161014b578063432c821c146102c3578063479effe3146102d857806351bc1035146102ed578063558a04ae146102f5576101da565b80632720e4f614610285578063343036271461028d57806338d52e0f146102a25780633fe49467146102bb576101da565b806316af4453116101b857806316af44531461021a5780631c0591961461023b5780632074ba4c1461024e578063213ecbba1461026e576101da565b806302d05d3f146101df5780630917e776146101fd578063116191b614610212575b600080fd5b6101e761043a565b6040516101f491906121fa565b60405180910390f35b61020561045e565b6040516101f49190612692565b6101e76104d3565b61022d610228366004612007565b6104f7565b6040516101f492919061269b565b61020561024936600461208e565b61067d565b61026161025c366004612167565b6109b0565b6040516101f49190612701565b6102766109d4565b6040516101f493929190612673565b6102056109f8565b6102956109fe565b6040516101f491906125bd565b6102aa610a3b565b6040516101f49594939291906123dd565b6101e7610a6e565b6102cb610a92565b6040516101f49190612716565b6102eb6102e6366004612021565b610a9b565b005b610205610bd0565b6102fd610bd6565b6040516101f4919061241b565b61022d610318366004612007565b610d0d565b610205610d4d565b6102eb610333366004612021565b610d53565b61034b610346366004612007565b610dcb565b6040516101f491906125cb565b61036b610366366004612007565b610f2d565b6040516101f4939291906123c0565b610382610f59565b6040516101f4949392919061220e565b61039a610fd0565b6040516101f49190612372565b6103af611092565b6040516101f4939291906126a9565b6102616103cc36600461214d565b61109e565b6101e7611150565b6102eb6103e736600461204a565b61115f565b6103ff6103fa3660046120fa565b61125f565b6040516101f4969594939291906126bf565b6101e76112a5565b6104216112c9565b6040516101f4959493929190612239565b6101e7611464565b7f000000000000000000000000000000000000000000000000000000000000000081565b600080805b60095460ff821610156104cc576104b860098260ff168154811061049757634e487b7160e01b600052603260045260246000fd5b9060005260206000209060060201600201548361148890919063ffffffff16565b9150806104c481612844565b915050610463565b5090505b90565b7f000000000000000000000000000000000000000000000000000000000000000081565b600080600580610505610bd6565b600581111561052457634e487b7160e01b600052602160045260246000fd5b1461052e57600080fd5b336001600160a01b037f0000000000000000000000000000000000000000000000000000000000000000161461056357600080fd5b6001600160a01b0384166000908152600a602052604090205460ff16156105a55760405162461bcd60e51b815260040161059c90612586565b60405180910390fd5b6001600160a01b0384166000908152600a60205260409020600e54600c54600b546105db9392600992909160ff9091169061149d565b9093509150826105fd5760405162461bcd60e51b815260040161059c9061243c565b6001600160a01b0384166000908152600a60205260409020805460ff1916600117905561062a84846115a7565b836001600160a01b0316306001600160a01b03167fdb4eecf913207d0c5ca288de47976cea75c969e262281fda9826a01c80c534c6858560405161066f92919061269b565b60405180910390a350915091565b6000336001600160a01b037f000000000000000000000000000000000000000000000000000000000000000016146106b457600080fd5b6000806106bf610bd6565b60058111156106de57634e487b7160e01b600052602160045260246000fd5b146106e857600080fd5b600084116107085760405162461bcd60e51b815260040161059c90612473565b60095460ff861610801561071a575060015b6107365760405162461bcd60e51b815260040161059c906124aa565b610741838787611647565b61075d5760405162461bcd60e51b815260040161059c9061254f565b6107688585856109b0565b67ffffffffffffffff1691506107bd600160098760ff168154811061079d57634e487b7160e01b600052603260045260246000fd5b90600052602060002090600602016003015461148890919063ffffffff16565b60098660ff16815481106107e157634e487b7160e01b600052603260045260246000fd5b90600052602060002090600602016003018190555061083e8460098760ff168154811061081e57634e487b7160e01b600052603260045260246000fd5b90600052602060002090600602016002015461148890919063ffffffff16565b60098660ff168154811061086257634e487b7160e01b600052603260045260246000fd5b9060005260206000209060060201600201819055506108bf8260098760ff168154811061089f57634e487b7160e01b600052603260045260246000fd5b90600052602060002090600602016004015461148890919063ffffffff16565b60098660ff16815481106108e357634e487b7160e01b600052603260045260246000fd5b906000526020600020906006020160040181905550610908848460ff16600b54611700565b60098660ff168154811061092c57634e487b7160e01b600052603260045260246000fd5b90600052602060002090600602016005018190555061094e8686868686611721565b6007546008546040516001600160a01b03898116939230927fd18afe449669b65a050ed69731c9d6464cfc964408198d2733cf3bcf807956bb9261099f928c928a928c928e92429290911690612751565b60405180910390a450949350505050565b6000806109bc8561109e565b90506109c98185856117de565b9150505b9392505050565b600f5462ffffff808216916301000000810482169166010000000000009091041683565b600b5481565b610a06611f30565b506040805160a08101825260015481526002546020820152600354918101919091526004546060820152600554608082015290565b6007546008546001600160a01b0381169060ff600160a01b8204811691600160a81b8104821691600160b01b9091041685565b7f000000000000000000000000000000000000000000000000000000000000000090565b600c5460ff1681565b336001600160a01b037f00000000000000000000000000000000000000000000000000000000000000001614610ad057600080fd5b6009546000610ae260ff8316846127cb565b90506000610b08610af4600185612821565b610b019060ff16846127eb565b859061181f565b905060005b8360ff168160ff161015610bc85730631c0591968783610b2e600189612821565b60ff168560ff1614610b405786610b42565b855b60016040518563ffffffff1660e01b8152600401610b639493929190612346565b602060405180830381600087803b158015610b7d57600080fd5b505af1158015610b91573d6000803e3d6000fd5b505050506040513d601f19601f82011682018060405250810190610bb59190612112565b5080610bc081612844565b915050610b0d565b505050505050565b600e5481565b6000428160005460ff166005811115610bff57634e487b7160e01b600052602160045260246000fd5b148015610c0e57506002548111155b15610c1d5760009150506104d0565b6000805460ff166005811115610c4357634e487b7160e01b600052602160045260246000fd5b148015610c51575060025481115b8015610c5f57506003548111155b15610c6e5760019150506104d0565b6000805460ff166005811115610c9457634e487b7160e01b600052602160045260246000fd5b148015610ca2575060035481115b8015610cb057506004548111155b15610cbf5760029150506104d0565b6000805460ff166005811115610ce557634e487b7160e01b600052602160045260246000fd5b148015610cf3575060045481115b15610d025760049150506104d0565b505060005460ff1690565b6001600160a01b0381166000908152600a60205260408120600e54600c54600b548493610d4493909260099260ff9091169061149d565b91509150915091565b600d5481565b600480610d5e610bd6565b6005811115610d7d57634e487b7160e01b600052602160045260246000fd5b14610d8757600080fd5b336001600160a01b037f00000000000000000000000000000000000000000000000000000000000000001614610dbc57600080fd5b610dc6838361182b565b505050565b610dd3611f5f565b6001600160a01b0382166000908152600a6020526040812060095490919067ffffffffffffffff811115610e1757634e487b7160e01b600052604160045260246000fd5b604051908082528060200260200182016040528015610e5057816020015b610e3d611f8c565b815260200190600190039081610e355790505b50905060005b60095460ff82161015610ede5760ff8082166000818152600180870160209081526040928390208351606081018552815481529281015491830191909152600201549093169083015283518491908110610ec057634e487b7160e01b600052603260045260246000fd5b60200260200101819052508080610ed690612844565b915050610e56565b506040805160a081018252925462ffffff62010000820416845260ff808216151560208601526101009091041615159083015260608201526001600160a01b038316608082015290505b919050565b600a6020526000908152604090205460ff8082169161010081049091169062010000900462ffffff1683565b6006547f0000000000000000000000000000000000000000000000000000000000000000917f0000000000000000000000000000000000000000000000000000000000000000917f0000000000000000000000000000000000000000000000000000000000000000916001600160a01b0390911690565b60095460609060009067ffffffffffffffff811115610fff57634e487b7160e01b600052604160045260246000fd5b604051908082528060200260200182016040528015611028578160200160208202803683370190505b50905060005b60095460ff821610156104cc576110448161109e565b828260ff168151811061106757634e487b7160e01b600052603260045260246000fd5b67ffffffffffffffff909216602092830291909101909101528061108a81612844565b91505061102e565b60105460115460125483565b60095460009060ff83161080156110b3575060015b6110cf5760405162461bcd60e51b815260040161059c906124aa565b6001546000906110e090429061181f565b6001546002549192506000916110f59161181f565b905061114861110261045e565b60098660ff168154811061112657634e487b7160e01b600052603260045260246000fd5b90600052602060002090600602016002015461114187611a0c565b8585611ade565b949350505050565b6006546001600160a01b031681565b60048061116a610bd6565b600581111561118957634e487b7160e01b600052602160045260246000fd5b1461119357600080fd5b336001600160a01b037f000000000000000000000000000000000000000000000000000000000000000016146111c857600080fd5b60085460035460405163883200ed60e01b81526000926001600160a01b03169163883200ed916111fd919087906004016126e7565b604080518083038186803b15801561121457600080fd5b505afa158015611228573d6000803e3d6000fd5b505050506040513d601f19601f8201168201806040525081019061124c919061212a565b509050611259848261182b565b50505050565b6009818154811061126f57600080fd5b60009182526020909120600690910201805460018201546002830154600384015460048501546005909501549395509193909286565b7f000000000000000000000000000000000000000000000000000000000000000081565b60006112d3611fb0565b6112db611f30565b60606000306007600160096112ee610bd6565b6040805160a0810182528554815260018601546001600160a01b038116602083015260ff600160a01b8204811693830193909352909186916060840191600160a81b90910416600281111561135357634e487b7160e01b600052602160045260246000fd5b600281111561137257634e487b7160e01b600052602160045260246000fd5b8152600191820154600160b01b900460ff1615156020918201526040805160a0810182528754815292870154838301526002870154838201526003870154606084015260049096015460808301528454865181830281018301909752808752929650909491849160009084015b8282101561144d57838290600052602060002090600602016040518060c00160405290816000820154815260200160018201548152602001600282015481526020016003820154815260200160048201548152602001600582015481525050815260200190600101906113df565b505050509150945094509450945094509091929394565b7f000000000000000000000000000000000000000000000000000000000000000081565b600061149482846127b3565b90505b92915050565b60008060005b865460ff8216101561159c5760ff811660009081526001808a016020526040909120908101546114d4908490611488565b92508560ff168260ff16141561155457600061152982600001548a8560ff168154811061151157634e487b7160e01b600052603260045260246000fd5b9060005260206000209060060201600401548a611b4b565b905061154c8161154684600101548861148890919063ffffffff16565b90611488565b945050611589565b600181015460028201546115869161157f91611574919060ff1689611700565b60018401549061181f565b8590611488565b93505b508061159481612844565b9150506114a3565b509550959350505050565b60405163a9059cbb60e01b81526001600160a01b037f0000000000000000000000000000000000000000000000000000000000000000169063a9059cbb906115f5908590859060040161232d565b602060405180830381600087803b15801561160f57600080fd5b505af1158015611623573d6000803e3d6000fd5b505050506040513d601f19601f82011682018060405250810190610dc691906120da565b600060ff8416158061165c575060058460ff16115b15611669575060006109cd565b6001600160a01b0383166000908152600a602052604090205462010000900462ffffff16611699575060016109cd565b6001600160a01b0383166000908152600a6020908152604080832060ff808716855260019091019092529091206002810154909116158015906116e65750600281015460ff868116911614155b156116f55760009150506109cd565b506001949350505050565b6000611148606461171b846117158888611b64565b90611b64565b90611b70565b6001600160a01b0385166000908152600a6020526040902080546001919060029061175890849062010000900462ffffff1661278c565b825462ffffff9182166101009390930a9283029190920219909116179055506001600160a01b0385166000908152600a6020908152604080832060ff88168452600101909152902080546117ac9083611488565b815560018101546117bd9085611488565b6001820155600201805460ff191660ff939093169290921790915550505050565b600060058260ff1611156118045760405162461bcd60e51b815260040161059c906124e1565b61114867ffffffffffffffff851661171b8560ff8616611b64565b6000611494828461280a565b61183481611b7c565b600c805460ff191660ff92909216919091179055600680547fffffffffffffffffffffffff0000000000000000000000000000000000000000166001600160a01b038416179055600980546040805160208084028201810190925282815261191f939092909160009084015b8282101561190e57838290600052602060002090600602016040518060c00160405290816000820154815260200160018201548152602001600282015481526020016003820154815260200160048201548152602001600582015481525050815260200190600101906118a0565b5050600c5460ff169150611c2c9050565b600d81905560408051606081018252600f5462ffffff80821683526301000000820481166020840152660100000000000090910416918101919091526119659190611ca9565b6011819055601282905560108390556119909261198792916115469190611488565b600d549061181f565b600e5561199b611d3b565b6119a3611ed5565b600c54600d54601054601154601254600e5460405142966001600160a01b038a169630967f712261700497179a422a974c925ee9cf98479329641e53ba1b724ff3a68f454896611a009660ff909416959294919390929091612724565b60405180910390a45050565b600080600760010160009054906101000a90046001600160a01b03166001600160a01b0316638e15f4736040518163ffffffff1660e01b815260040160206040518083038186803b158015611a6057600080fd5b505afa158015611a74573d6000803e3d6000fd5b505050506040513d601f19601f82011682018060405250810190611a989190612112565b90506000611aa582611b7c565b90508060ff168460ff161115611ace57611ac560ff85811690831661181f565b92505050610f28565b61114860ff82811690861661181f565b600080611aec856001611488565b90506000611b09611afd8584611b64565b61171b87612710611b64565b90506000611b27611b1b60018b611f19565b61171b8a612710611b64565b90506000611b3d6305f5e1006115468486611b64565b9a9950505050505050505050565b600082611b5a575060006109cd565b6111488361171b84875b600061149482846127eb565b600061149482846127cb565b600080805b60095460ff821611611c255760098160ff1681548110611bb157634e487b7160e01b600052603260045260246000fd5b90600052602060002090600602016001015484118015611c06575060098160ff1681548110611bf057634e487b7160e01b600052603260045260246000fd5b9060005260206000209060060201600001548411155b15611c1357809150611c25565b80611c1d81612844565b915050611b81565b5092915050565b60008060005b84518160ff161015611ca1578360ff168160ff1614611c8f57611c8c858260ff1681518110611c7157634e487b7160e01b600052603260045260246000fd5b602002602001015160a001518361148890919063ffffffff16565b91505b80611c9981612844565b915050611c32565b509392505050565b6000806000808511611ccd5760405162461bcd60e51b815260040161059c90612518565b8351611ce890620186a09061171b90889062ffffff16611b64565b9250611d0d620186a061171b866040015162ffffff1688611b6490919063ffffffff16565b9150611d32620186a061171b866020015162ffffff1688611b6490919063ffffffff16565b90509250925092565b611d6a7f00000000000000000000000000000000000000000000000000000000000000006010600001546115a7565b600654601254611d83916001600160a01b0316906115a7565b611db27f00000000000000000000000000000000000000000000000000000000000000006010600101546115a7565b6010546040516001600160a01b037f0000000000000000000000000000000000000000000000000000000000000000169130917f26532b91ba2eb213c7b8fcd034f2d520a1c308292d25e1afe2ef58b84df8182591611e149160009190612429565b60405180910390a36006546012546040516001600160a01b039092169130917f26532b91ba2eb213c7b8fcd034f2d520a1c308292d25e1afe2ef58b84df8182591611e6191600191612429565b60405180910390a36011546040516001600160a01b037f0000000000000000000000000000000000000000000000000000000000000000169130917f26532b91ba2eb213c7b8fcd034f2d520a1c308292d25e1afe2ef58b84df8182591611ecb9160029190612429565b60405180910390a3565b600480611ee0610bd6565b6005811115611eff57634e487b7160e01b600052602160045260246000fd5b14611f0957600080fd5b506000805460ff19166005179055565b600081831015611f295781611494565b5090919050565b6040518060a0016040528060008152602001600081526020016000815260200160008152602001600081525090565b6040805160a081018252600080825260208201819052918101829052606080820152608081019190915290565b60405180606001604052806000815260200160008152602001600060ff1681525090565b6040805160a0810182526000808252602082018190529181018290529060608201908152600060209091015290565b80356001600160a01b0381168114610f2857600080fd5b803560ff81168114610f2857600080fd5b600060208284031215612018578081fd5b61149482611fdf565b60008060408385031215612033578081fd5b61203c83611fdf565b946020939093013593505050565b6000806040838503121561205c578182fd5b61206583611fdf565b9150602083013569ffffffffffffffffffff81168114612083578182fd5b809150509250929050565b600080600080608085870312156120a3578182fd5b6120ac85611fdf565b93506120ba60208601611ff6565b9250604085013591506120cf60608601611ff6565b905092959194509250565b6000602082840312156120eb578081fd5b815180151581146109cd578182fd5b60006020828403121561210b578081fd5b5035919050565b600060208284031215612123578081fd5b5051919050565b6000806040838503121561213c578182fd5b505080516020909101519092909150565b60006020828403121561215e578081fd5b61149482611ff6565b60008060006060848603121561217b578283fd5b61218484611ff6565b925060208401359150611d3260408501611ff6565b6001600160a01b03169052565b600381106121b6576121b661287a565b9052565b600681106121b6576121b661287a565b80518252602081015160208301526040810151604083015260608101516060830152608081015160808301525050565b6001600160a01b0391909116815260200190565b6001600160a01b03948516815292841660208401529083166040830152909116606082015260800190565b60006101a08083016001600160a01b03808a1685526020895181870152808a0151604083821681890152808c015193506060915060ff841682890152818c015193506080612289818a01866121a6565b808d0151945060a0851515818b015260c095506122a8868b018e6121ca565b6101608a01979097528a51958690526101c0890196848c0196895b8181101561230857885180518b5287810151888c015285810151868c015286810151878c015284810151858c0152830151838b015298870198978601976001016122c3565b505050505050505050809150506123236101808301846121ba565b9695505050505050565b6001600160a01b03929092168252602082015260400190565b6001600160a01b0394909416845260ff9283166020850152604084019190915216606082015260800190565b6020808252825182820181905260009190848201906040850190845b818110156123b457835167ffffffffffffffff168352928401929184019160010161238e565b50909695505050505050565b9215158352901515602083015262ffffff16604082015260600190565b8581526001600160a01b038516602082015260ff8416604082015260a0810161240960608301856121a6565b82151560808301529695505050505050565b6020810161149782846121ba565b60ff929092168252602082015260400190565b60208082526013908201527f6e6f2d72657475726e732d746f2d63616c696d00000000000000000000000000604082015260600190565b6020808252601c908201527f43727970746f4d61726b65743a3a696e76616c69642d616d6f756e7400000000604082015260600190565b6020808252601a908201527f43727970746f4d61726b65743a3a696e76616c69642d706f6f6c000000000000604082015260600190565b60208082526010908201527f696e76616c69642d6c6576657261676500000000000000000000000000000000604082015260600190565b6020808252600f908201527f696e76616c69642d726577617264730000000000000000000000000000000000604082015260600190565b6020808252601e908201527f43727970746f4d61726b65743a3a696e76616c69642d6c657665726167650000604082015260600190565b60208082526017908201527f72657475726e732d616c72656164792d636c61696d6564000000000000000000604082015260600190565b60a0810161149782846121ca565b6020808252825162ffffff16828201528281015115156040808401919091528084015115156060808501919091528085015160a06080860152805160c08601819052600094939184019285929160e08801905b8085101561265257855180518352878101518884015284015160ff168483015294860194600194909401939082019061261e565b506080890151955061266760a0890187612199565b98975050505050505050565b62ffffff93841681529183166020830152909116604082015260600190565b90815260200190565b918252602082015260400190565b9283526020830191909152604082015260600190565b958652602086019490945260408501929092526060840152608083015260a082015260c00190565b91825269ffffffffffffffffffff16602082015260400190565b67ffffffffffffffff91909116815260200190565b60ff91909116815260200190565b60ff969096168652602086019490945260408501929092526060840152608083015260a082015260c00190565b60ff96871681526020810195909552929094166040840152606083015260808201929092526001600160a01b0390911660a082015260c00190565b600062ffffff8083168185168083038211156127aa576127aa612864565b01949350505050565b600082198211156127c6576127c6612864565b500190565b6000826127e657634e487b7160e01b81526012600452602481fd5b500490565b600081600019048311821515161561280557612805612864565b500290565b60008282101561281c5761281c612864565b500390565b600060ff821660ff84168082101561283b5761283b612864565b90039392505050565b600060ff821660ff81141561285b5761285b612864565b60010192915050565b634e487b7160e01b600052601160045260246000fd5b634e487b7160e01b600052602160045260246000fdfea164736f6c6343000800000a",
  "linkReferences": {},
  "deployedLinkReferences": {}
}