{
  "_format": "hh-sol-artifact-1",
  "contractName": "Market",
  "sourceName": "contracts/Market.sol",
  "abi": [
    {
      "inputs": [
        {
          "internalType": "address",
          "name": "_gateway",
          "type": "address"
        },
        {
          "internalType": "address",
          "name": "_factory",
          "type": "address"
        },
        {
          "internalType": "address",
          "name": "_token",
          "type": "address"
        },
        {
          "internalType": "address",
          "name": "_creator",
          "type": "address"
        },
        {
          "components": [
            {
              "internalType": "bytes32",
              "name": "assetName",
              "type": "bytes32"
            },
            {
              "internalType": "address",
              "name": "assetFeed",
              "type": "address"
            },
            {
              "internalType": "uint8",
              "name": "decimals",
              "type": "uint8"
            },
            {
              "internalType": "enum MarketLibrary.AssetFeedType",
              "name": "assetFeedType",
              "type": "uint8"
            },
            {
              "internalType": "bool",
              "name": "active",
              "type": "bool"
            }
          ],
          "internalType": "struct MarketLibrary.Asset",
          "name": "_asset",
          "type": "tuple"
        },
        {
          "components": [
            {
              "internalType": "uint256",
              "name": "creationTime",
              "type": "uint256"
            },
            {
              "internalType": "uint256",
              "name": "tradingEndTime",
              "type": "uint256"
            },
            {
              "internalType": "uint256",
              "name": "waitingEndTime",
              "type": "uint256"
            },
            {
              "internalType": "uint256",
              "name": "reportingEndTime",
              "type": "uint256"
            },
            {
              "internalType": "uint256",
              "name": "disputeEndTime",
              "type": "uint256"
            }
          ],
          "internalType": "struct MarketLibrary.MarketTime",
          "name": "_marketTime",
          "type": "tuple"
        },
        {
          "internalType": "uint256[]",
          "name": "_pools",
          "type": "uint256[]"
        },
        {
          "components": [
            {
              "internalType": "uint24",
              "name": "creator",
              "type": "uint24"
            },
            {
              "internalType": "uint24",
              "name": "settler",
              "type": "uint24"
            },
            {
              "internalType": "uint24",
              "name": "platform",
              "type": "uint24"
            }
          ],
          "internalType": "struct MarketLibrary.FeesPercentage",
          "name": "_feesPercentage",
          "type": "tuple"
        },
        {
          "internalType": "uint256",
          "name": "_LC",
          "type": "uint256"
        }
      ],
      "stateMutability": "nonpayable",
      "type": "constructor"
    },
    {
      "anonymous": false,
      "inputs": [
        {
          "indexed": true,
          "internalType": "address",
          "name": "market",
          "type": "address"
        },
        {
          "indexed": true,
          "internalType": "address",
          "name": "user",
          "type": "address"
        },
        {
          "indexed": false,
          "internalType": "uint256",
          "name": "totalReturns",
          "type": "uint256"
        },
        {
          "indexed": false,
          "internalType": "uint256",
          "name": "participationAmount",
          "type": "uint256"
        }
      ],
      "name": "ClaimReturns",
      "type": "event"
    },
    {
      "anonymous": false,
      "inputs": [
        {
          "indexed": true,
          "internalType": "address",
          "name": "market",
          "type": "address"
        },
        {
          "indexed": true,
          "internalType": "address",
          "name": "user",
          "type": "address"
        },
        {
          "indexed": false,
          "internalType": "uint8",
          "name": "awardType",
          "type": "uint8"
        },
        {
          "indexed": false,
          "internalType": "uint256",
          "name": "amount",
          "type": "uint256"
        }
      ],
      "name": "DistributeMarketFee",
      "type": "event"
    },
    {
      "anonymous": false,
      "inputs": [
        {
          "indexed": true,
          "internalType": "address",
          "name": "market",
          "type": "address"
        },
        {
          "indexed": true,
          "internalType": "bytes32",
          "name": "asset",
          "type": "bytes32"
        },
        {
          "indexed": true,
          "internalType": "address",
          "name": "user",
          "type": "address"
        },
        {
          "indexed": false,
          "internalType": "uint8",
          "name": "prediction",
          "type": "uint8"
        },
        {
          "indexed": false,
          "internalType": "uint256",
          "name": "positions",
          "type": "uint256"
        },
        {
          "indexed": false,
          "internalType": "uint8",
          "name": "leverage",
          "type": "uint8"
        },
        {
          "indexed": false,
          "internalType": "uint256",
          "name": "amount",
          "type": "uint256"
        },
        {
          "indexed": false,
          "internalType": "uint256",
          "name": "timestamp",
          "type": "uint256"
        },
        {
          "indexed": false,
          "internalType": "address",
          "name": "marketFeed",
          "type": "address"
        }
      ],
      "name": "PlacePrediction",
      "type": "event"
    },
    {
      "anonymous": false,
      "inputs": [
        {
          "indexed": true,
          "internalType": "address",
          "name": "market",
          "type": "address"
        },
        {
          "indexed": true,
          "internalType": "address",
          "name": "settler",
          "type": "address"
        },
        {
          "indexed": true,
          "internalType": "uint256",
          "name": "timestamp",
          "type": "uint256"
        },
        {
          "indexed": false,
          "internalType": "uint8",
          "name": "winningPool",
          "type": "uint8"
        },
        {
          "indexed": false,
          "internalType": "uint256",
          "name": "rewardPool",
          "type": "uint256"
        },
        {
          "indexed": false,
          "internalType": "uint256",
          "name": "creatorReward",
          "type": "uint256"
        },
        {
          "indexed": false,
          "internalType": "uint256",
          "name": "platformReward",
          "type": "uint256"
        },
        {
          "indexed": false,
          "internalType": "uint256",
          "name": "settlerReward",
          "type": "uint256"
        },
        {
          "indexed": false,
          "internalType": "uint256",
          "name": "usersRewardPool",
          "type": "uint256"
        }
      ],
      "name": "SettleMarket",
      "type": "event"
    },
    {
      "inputs": [],
      "name": "LC",
      "outputs": [
        {
          "internalType": "uint256",
          "name": "",
          "type": "uint256"
        }
      ],
      "stateMutability": "view",
      "type": "function"
    },
    {
      "inputs": [
        {
          "internalType": "address",
          "name": "_user",
          "type": "address"
        },
        {
          "internalType": "uint256",
          "name": "_liquidity",
          "type": "uint256"
        }
      ],
      "name": "addInitialLiquidity",
      "outputs": [],
      "stateMutability": "nonpayable",
      "type": "function"
    },
    {
      "inputs": [],
      "name": "asset",
      "outputs": [
        {
          "internalType": "bytes32",
          "name": "assetName",
          "type": "bytes32"
        },
        {
          "internalType": "address",
          "name": "assetFeed",
          "type": "address"
        },
        {
          "internalType": "uint8",
          "name": "decimals",
          "type": "uint8"
        },
        {
          "internalType": "enum MarketLibrary.AssetFeedType",
          "name": "assetFeedType",
          "type": "uint8"
        },
        {
          "internalType": "bool",
          "name": "active",
          "type": "bool"
        }
      ],
      "stateMutability": "view",
      "type": "function"
    },
    {
      "inputs": [
        {
          "internalType": "address",
          "name": "_user",
          "type": "address"
        }
      ],
      "name": "claimReturns",
      "outputs": [
        {
          "internalType": "uint256",
          "name": "totalReturns",
          "type": "uint256"
        },
        {
          "internalType": "uint256",
          "name": "participationAmount",
          "type": "uint256"
        }
      ],
      "stateMutability": "nonpayable",
      "type": "function"
    },
    {
      "inputs": [],
      "name": "creator",
      "outputs": [
        {
          "internalType": "address",
          "name": "",
          "type": "address"
        }
      ],
      "stateMutability": "view",
      "type": "function"
    },
    {
      "inputs": [],
      "name": "factory",
      "outputs": [
        {
          "internalType": "address",
          "name": "",
          "type": "address"
        }
      ],
      "stateMutability": "view",
      "type": "function"
    },
    {
      "inputs": [],
      "name": "feesPercentage",
      "outputs": [
        {
          "internalType": "uint24",
          "name": "creator",
          "type": "uint24"
        },
        {
          "internalType": "uint24",
          "name": "settler",
          "type": "uint24"
        },
        {
          "internalType": "uint24",
          "name": "platform",
          "type": "uint24"
        }
      ],
      "stateMutability": "view",
      "type": "function"
    },
    {
      "inputs": [],
      "name": "gateway",
      "outputs": [
        {
          "internalType": "address",
          "name": "",
          "type": "address"
        }
      ],
      "stateMutability": "view",
      "type": "function"
    },
    {
      "inputs": [],
      "name": "getMarket",
      "outputs": [
        {
          "internalType": "address",
          "name": "",
          "type": "address"
        },
        {
          "components": [
            {
              "internalType": "bytes32",
              "name": "assetName",
              "type": "bytes32"
            },
            {
              "internalType": "address",
              "name": "assetFeed",
              "type": "address"
            },
            {
              "internalType": "uint8",
              "name": "decimals",
              "type": "uint8"
            },
            {
              "internalType": "enum MarketLibrary.AssetFeedType",
              "name": "assetFeedType",
              "type": "uint8"
            },
            {
              "internalType": "bool",
              "name": "active",
              "type": "bool"
            }
          ],
          "internalType": "struct MarketLibrary.Asset",
          "name": "",
          "type": "tuple"
        },
        {
          "components": [
            {
              "internalType": "uint256",
              "name": "creationTime",
              "type": "uint256"
            },
            {
              "internalType": "uint256",
              "name": "tradingEndTime",
              "type": "uint256"
            },
            {
              "internalType": "uint256",
              "name": "waitingEndTime",
              "type": "uint256"
            },
            {
              "internalType": "uint256",
              "name": "reportingEndTime",
              "type": "uint256"
            },
            {
              "internalType": "uint256",
              "name": "disputeEndTime",
              "type": "uint256"
            }
          ],
          "internalType": "struct MarketLibrary.MarketTime",
          "name": "",
          "type": "tuple"
        },
        {
          "components": [
            {
              "internalType": "uint256",
              "name": "upper",
              "type": "uint256"
            },
            {
              "internalType": "uint256",
              "name": "lower",
              "type": "uint256"
            },
            {
              "internalType": "uint256",
              "name": "staked",
              "type": "uint256"
            },
            {
              "internalType": "uint256",
              "name": "participants",
              "type": "uint256"
            },
            {
              "internalType": "uint256",
              "name": "positions",
              "type": "uint256"
            },
            {
              "internalType": "uint256",
              "name": "rewards",
              "type": "uint256"
            }
          ],
          "internalType": "struct MarketLibrary.Pool[]",
          "name": "",
          "type": "tuple[]"
        },
        {
          "internalType": "enum MarketLibrary.Phase",
          "name": "",
          "type": "uint8"
        }
      ],
      "stateMutability": "view",
      "type": "function"
    },
    {
      "inputs": [],
      "name": "getMarketEntity",
      "outputs": [
        {
          "internalType": "address",
          "name": "",
          "type": "address"
        },
        {
          "internalType": "address",
          "name": "",
          "type": "address"
        },
        {
          "internalType": "address",
          "name": "",
          "type": "address"
        },
        {
          "internalType": "address",
          "name": "",
          "type": "address"
        }
      ],
      "stateMutability": "view",
      "type": "function"
    },
    {
      "inputs": [],
      "name": "getMarketPhase",
      "outputs": [
        {
          "internalType": "enum MarketLibrary.Phase",
          "name": "",
          "type": "uint8"
        }
      ],
      "stateMutability": "view",
      "type": "function"
    },
    {
      "inputs": [],
      "name": "getMarketTime",
      "outputs": [
        {
          "components": [
            {
              "internalType": "uint256",
              "name": "creationTime",
              "type": "uint256"
            },
            {
              "internalType": "uint256",
              "name": "tradingEndTime",
              "type": "uint256"
            },
            {
              "internalType": "uint256",
              "name": "waitingEndTime",
              "type": "uint256"
            },
            {
              "internalType": "uint256",
              "name": "reportingEndTime",
              "type": "uint256"
            },
            {
              "internalType": "uint256",
              "name": "disputeEndTime",
              "type": "uint256"
            }
          ],
          "internalType": "struct MarketLibrary.MarketTime",
          "name": "",
          "type": "tuple"
        }
      ],
      "stateMutability": "view",
      "type": "function"
    },
    {
      "inputs": [
        {
          "internalType": "address",
          "name": "_user",
          "type": "address"
        }
      ],
      "name": "getMarketUser",
      "outputs": [
        {
          "components": [
            {
              "internalType": "uint24",
              "name": "numberOfPredictions",
              "type": "uint24"
            },
            {
              "internalType": "bool",
              "name": "returnsClaimed",
              "type": "bool"
            },
            {
              "internalType": "bool",
              "name": "boostModeApplied",
              "type": "bool"
            },
            {
              "components": [
                {
                  "internalType": "uint256",
                  "name": "positions",
                  "type": "uint256"
                },
                {
                  "internalType": "uint256",
                  "name": "amount",
                  "type": "uint256"
                },
                {
                  "internalType": "uint8",
                  "name": "leverage",
                  "type": "uint8"
                }
              ],
              "internalType": "struct MarketLibrary.Prediction[]",
              "name": "predictions",
              "type": "tuple[]"
            },
            {
              "internalType": "address",
              "name": "user",
              "type": "address"
            }
          ],
          "internalType": "struct MarketLibrary.MarketUserResponse",
          "name": "",
          "type": "tuple"
        }
      ],
      "stateMutability": "view",
      "type": "function"
    },
    {
      "inputs": [
        {
          "internalType": "uint8",
          "name": "_prediction",
          "type": "uint8"
        }
      ],
      "name": "getPoolPrice",
      "outputs": [
        {
          "internalType": "uint64",
          "name": "",
          "type": "uint64"
        }
      ],
      "stateMutability": "view",
      "type": "function"
    },
    {
      "inputs": [],
      "name": "getPoolsPrice",
      "outputs": [
        {
          "internalType": "uint64[]",
          "name": "",
          "type": "uint64[]"
        }
      ],
      "stateMutability": "view",
      "type": "function"
    },
    {
      "inputs": [
        {
          "internalType": "uint8",
          "name": "_prediction",
          "type": "uint8"
        },
        {
          "internalType": "uint256",
          "name": "_amount",
          "type": "uint256"
        },
        {
          "internalType": "uint8",
          "name": "_leverage",
          "type": "uint8"
        }
      ],
      "name": "getPositions",
      "outputs": [
        {
          "internalType": "uint64",
          "name": "",
          "type": "uint64"
        }
      ],
      "stateMutability": "view",
      "type": "function"
    },
    {
      "inputs": [],
      "name": "getTotalStaked",
      "outputs": [
        {
          "internalType": "uint256",
          "name": "",
          "type": "uint256"
        }
      ],
      "stateMutability": "view",
      "type": "function"
    },
    {
      "inputs": [
        {
          "internalType": "address",
          "name": "_user",
          "type": "address"
        }
      ],
      "name": "getUserTotalReturns",
      "outputs": [
        {
          "internalType": "uint256",
          "name": "",
          "type": "uint256"
        },
        {
          "internalType": "uint256",
          "name": "",
          "type": "uint256"
        }
      ],
      "stateMutability": "view",
      "type": "function"
    },
    {
      "inputs": [],
      "name": "marketFees",
      "outputs": [
        {
          "internalType": "uint256",
          "name": "creator",
          "type": "uint256"
        },
        {
          "internalType": "uint256",
          "name": "platform",
          "type": "uint256"
        },
        {
          "internalType": "uint256",
          "name": "settler",
          "type": "uint256"
        }
      ],
      "stateMutability": "view",
      "type": "function"
    },
    {
      "inputs": [
        {
          "internalType": "address",
          "name": "",
          "type": "address"
        }
      ],
      "name": "marketUsers",
      "outputs": [
        {
          "internalType": "bool",
          "name": "returnsClaimed",
          "type": "bool"
        },
        {
          "internalType": "bool",
          "name": "boostModeApplied",
          "type": "bool"
        },
        {
          "internalType": "uint24",
          "name": "numberOfPredictions",
          "type": "uint24"
        }
      ],
      "stateMutability": "view",
      "type": "function"
    },
    {
      "inputs": [
        {
          "internalType": "address",
          "name": "_user",
          "type": "address"
        },
        {
          "internalType": "uint8",
          "name": "_prediction",
          "type": "uint8"
        },
        {
          "internalType": "uint256",
          "name": "_amount",
          "type": "uint256"
        },
        {
          "internalType": "uint8",
          "name": "_leverage",
          "type": "uint8"
        }
      ],
      "name": "placePrediction",
      "outputs": [
        {
          "internalType": "uint256",
          "name": "positions",
          "type": "uint256"
        }
      ],
      "stateMutability": "nonpayable",
      "type": "function"
    },
    {
      "inputs": [
        {
          "internalType": "uint256",
          "name": "",
          "type": "uint256"
        }
      ],
      "name": "pools",
      "outputs": [
        {
          "internalType": "uint256",
          "name": "upper",
          "type": "uint256"
        },
        {
          "internalType": "uint256",
          "name": "lower",
          "type": "uint256"
        },
        {
          "internalType": "uint256",
          "name": "staked",
          "type": "uint256"
        },
        {
          "internalType": "uint256",
          "name": "participants",
          "type": "uint256"
        },
        {
          "internalType": "uint256",
          "name": "positions",
          "type": "uint256"
        },
        {
          "internalType": "uint256",
          "name": "rewards",
          "type": "uint256"
        }
      ],
      "stateMutability": "view",
      "type": "function"
    },
    {
      "inputs": [],
      "name": "rewardPool",
      "outputs": [
        {
          "internalType": "uint256",
          "name": "",
          "type": "uint256"
        }
      ],
      "stateMutability": "view",
      "type": "function"
    },
    {
      "inputs": [
        {
          "internalType": "address",
          "name": "_settler",
          "type": "address"
        },
        {
          "internalType": "uint80",
          "name": "_roundId",
          "type": "uint80"
        }
      ],
      "name": "settleMarket",
      "outputs": [],
      "stateMutability": "nonpayable",
      "type": "function"
    },
    {
      "inputs": [
        {
          "internalType": "address",
          "name": "_settler",
          "type": "address"
        },
        {
          "internalType": "uint256",
          "name": "_winningPrice",
          "type": "uint256"
        }
      ],
      "name": "settleMarketExternal",
      "outputs": [],
      "stateMutability": "nonpayable",
      "type": "function"
    },
    {
      "inputs": [],
      "name": "settler",
      "outputs": [
        {
          "internalType": "address",
          "name": "",
          "type": "address"
        }
      ],
      "stateMutability": "view",
      "type": "function"
    },
    {
      "inputs": [],
      "name": "token",
      "outputs": [
        {
          "internalType": "address",
          "name": "",
          "type": "address"
        }
      ],
      "stateMutability": "view",
      "type": "function"
    },
    {
      "inputs": [],
      "name": "userRewardPool",
      "outputs": [
        {
          "internalType": "uint256",
          "name": "",
          "type": "uint256"
        }
      ],
      "stateMutability": "view",
      "type": "function"
    },
    {
      "inputs": [],
      "name": "winningPool",
      "outputs": [
        {
          "internalType": "uint8",
          "name": "",
          "type": "uint8"
        }
      ],
      "stateMutability": "view",
      "type": "function"
    }
  ],
  "bytecode": "0x6101006040526000805460ff191690553480156200001c57600080fd5b50604051620030fb380380620030fb8339810160408190526200003f9162000585565b835160015560208085015160029081556040808701516003556060808801516004556080808901516005556001600160601b03198c831b81169091528d821b811660c0528c821b811660e0528a821b1660a052885160079081559389015160088054938b015160ff16600160a01b0260ff60a01b196001600160a01b03939093166001600160a01b03199095169490941791909116929092178083559089015189949390929160ff60a81b191690600160a81b9084908111156200011357634e487b7160e01b600052602160045260246000fd5b02179055506080919091015160019091018054911515600160b01b0260ff60b01b19909216919091179055600b8190556200014e83620001cb565b50600954600c805460ff90921660ff199092169190911790558051600f8054602084015160409094015162ffffff90811666010000000000000262ffffff60301b1995821663010000000265ffffff000000199290951662ffffff1990931692909217169290921792909216179055506200076f95505050505050565b60005b81518160ff161015620002e95760096040518060c00160405280848460ff16815181106200020c57634e487b7160e01b600052603260045260246000fd5b602002602001015181526020018360ff1660001462000263578462000233600186620006fa565b60ff16815181106200025557634e487b7160e01b600052603260045260246000fd5b602002602001015162000266565b60005b8152600060208083018290526040808401839052606080850184905260809485018490528654600181810189559785529383902086516006909502019384559185015195830195909555938301516002820155928201516003840155810151600483015560a0015160059091015580620002e08162000720565b915050620001ce565b5060096040518060c0016040528060001981526020018360018551620003109190620006e0565b815181106200032f57634e487b7160e01b600052603260045260246000fd5b6020908102919091018101518252600082820181905260408084018290526060808501839052608094850183905286546001818101895597845292849020865160069094020192835592850151958201959095559383015160028501558201516003840155810151600483015560a0015160059091015550565b80516001600160a01b0381168114620003c157600080fd5b919050565b600082601f830112620003d7578081fd5b815160206001600160401b0380831115620003f657620003f662000759565b8183026040518382820101818110848211171562000418576200041862000759565b6040528481528381019250868401828801850189101562000437578687fd5b8692505b858310156200045b5780518452928401926001929092019184016200043b565b50979650505050505050565b80518015158114620003c157600080fd5b805160038110620003c157600080fd5b6000606082840312156200049a578081fd5b604051606081016001600160401b0381118282101715620004bf57620004bf62000759565b604052905080620004d08362000571565b8152620004e06020840162000571565b6020820152620004f36040840162000571565b60408201525092915050565b600060a0828403121562000511578081fd5b60405160a081016001600160401b038111828210171562000536576200053662000759565b806040525080915082518152602083015160208201526040830151604082015260608301516060820152608083015160808201525092915050565b805162ffffff81168114620003c157600080fd5b6000806000806000806000806000898b03610260811215620005a5578586fd5b620005b08b620003a9565b9950620005c060208c01620003a9565b9850620005d060408c01620003a9565b9750620005e060608c01620003a9565b965060a0607f1982011215620005f4578586fd5b5060405160a081016001600160401b0380821183831017156200061b576200061b62000759565b8160405260808d015183526200063460a08e01620003a9565b602084015260c08d0151915060ff821682146200064f578788fd5b8160408401526200066360e08e0162000478565b6060840152620006776101008e0162000467565b60808401528297506200068f8e6101208f01620004ff565b96506101c08d0151925080831115620006a6578586fd5b5050620006b68c828d01620003c6565b935050620006c98b6101e08c0162000488565b91506102408a015190509295985092959850929598565b600082821015620006f557620006f562000743565b500390565b600060ff821660ff84168082101562000717576200071762000743565b90039392505050565b600060ff821660ff8114156200073a576200073a62000743565b60010192915050565b634e487b7160e01b600052601160045260246000fd5b634e487b7160e01b600052604160045260246000fd5b60805160601c60a05160601c60c05160601c60e05160601c6128e46200081760003960008181610a7901528181610f53015261127a0152600081816104c2015281816105260152818161067701528181610d6501528181610f310152818161117101528181611dab0152611e9c01526000818161042901528181610f7501528181611d630152611de50152600081816114390152818161159101526116ea01526128e46000f3fe608060405234801561001057600080fd5b50600436106101cf5760003560e01c80635cf40a96116101045780639edbd90a116100a2578063ac4afa3811610071578063ac4afa38146103d9578063c45a0155146103fe578063f1be167914610406578063fc0c546a1461041f576101cf565b80639edbd90a14610394578063a022da16146103ab578063ab221a76146103be578063ac2bfe6d146103c6576101cf565b80637e75bf0a116100de5780637e75bf0a146103255780637fdcc494146103455780638df6008314610367578063997add441461037f576101cf565b80635cf40a96146102f757806366666aa91461030a57806375300ba214610312576101cf565b80632720e4f611610171578063432c821c1161014b578063432c821c146102b0578063479effe3146102c557806351bc1035146102da578063558a04ae146102e2576101cf565b80632720e4f61461027a578063343036271461028257806338d52e0f14610297576101cf565b806316af4453116101ad57806316af44531461020f5780631c059196146102305780632074ba4c14610243578063213ecbba14610263576101cf565b806302d05d3f146101d45780630917e776146101f2578063116191b614610207575b600080fd5b6101dc610427565b6040516101e9919061221d565b60405180910390f35b6101fa61044b565b6040516101e991906126d9565b6101dc6104c0565b61022261021d36600461202a565b6104e4565b6040516101e99291906126e2565b6101fa61023e3660046120b1565b61066a565b61025661025136600461218a565b6109a7565b6040516101e99190612748565b61026b6109cb565b6040516101e9939291906126ba565b6101fa6109ef565b61028a6109f5565b6040516101e99190612604565b61029f610a32565b6040516101e9959493929190612424565b6102b8610a65565b6040516101e9919061275d565b6102d86102d3366004612044565b610a6e565b005b6101fa610ba3565b6102ea610ba9565b6040516101e99190612462565b61022261030536600461202a565b610ce0565b6101fa610d20565b6102d8610320366004612044565b610d26565b61033861033336600461202a565b610d9e565b6040516101e99190612612565b61035861035336600461202a565b610f00565b6040516101e993929190612407565b61036f610f2c565b6040516101e99493929190612231565b610387610fa3565b6040516101e991906123b9565b61039c611065565b6040516101e9939291906126f0565b6102566103b9366004612170565b611071565b6101dc611123565b6102d86103d436600461206d565b611132565b6103ec6103e736600461211d565b611232565b6040516101e996959493929190612706565b6101dc611278565b61040e61129c565b6040516101e9959493929190612280565b6101dc611437565b7f000000000000000000000000000000000000000000000000000000000000000081565b600080805b60095460ff821610156104b9576104a560098260ff168154811061048457634e487b7160e01b600052603260045260246000fd5b9060005260206000209060060201600201548361145b90919063ffffffff16565b9150806104b18161288b565b915050610450565b5090505b90565b7f000000000000000000000000000000000000000000000000000000000000000081565b6000806005806104f2610ba9565b600581111561051157634e487b7160e01b600052602160045260246000fd5b1461051b57600080fd5b336001600160a01b037f0000000000000000000000000000000000000000000000000000000000000000161461055057600080fd5b6001600160a01b0384166000908152600a602052604090205460ff16156105925760405162461bcd60e51b8152600401610589906125cd565b60405180910390fd5b6001600160a01b0384166000908152600a60205260409020600e54600c54600b546105c89392600992909160ff90911690611470565b9093509150826105ea5760405162461bcd60e51b815260040161058990612483565b6001600160a01b0384166000908152600a60205260409020805460ff19166001179055610617848461157a565b836001600160a01b0316306001600160a01b03167fdb4eecf913207d0c5ca288de47976cea75c969e262281fda9826a01c80c534c6858560405161065c9291906126e2565b60405180910390a350915091565b6000336001600160a01b037f000000000000000000000000000000000000000000000000000000000000000016146106a157600080fd5b6000806106ac610ba9565b60058111156106cb57634e487b7160e01b600052602160045260246000fd5b146106d557600080fd5b600084116106f55760405162461bcd60e51b8152600401610589906124ba565b60095460ff8616108015610707575060015b6107235760405162461bcd60e51b8152600401610589906124f1565b61072e83878761161a565b61074a5760405162461bcd60e51b815260040161058990612596565b61075486856116d3565b61075f8585856109a7565b67ffffffffffffffff1691506107b4600160098760ff168154811061079457634e487b7160e01b600052603260045260246000fd5b90600052602060002090600602016003015461145b90919063ffffffff16565b60098660ff16815481106107d857634e487b7160e01b600052603260045260246000fd5b9060005260206000209060060201600301819055506108358460098760ff168154811061081557634e487b7160e01b600052603260045260246000fd5b90600052602060002090600602016002015461145b90919063ffffffff16565b60098660ff168154811061085957634e487b7160e01b600052603260045260246000fd5b9060005260206000209060060201600201819055506108b68260098760ff168154811061089657634e487b7160e01b600052603260045260246000fd5b90600052602060002090600602016004015461145b90919063ffffffff16565b60098660ff16815481106108da57634e487b7160e01b600052603260045260246000fd5b9060005260206000209060060201600401819055506108ff848460ff16600b54611723565b60098660ff168154811061092357634e487b7160e01b600052603260045260246000fd5b9060005260206000209060060201600501819055506109458686868686611744565b6007546008546040516001600160a01b03898116939230927fd18afe449669b65a050ed69731c9d6464cfc964408198d2733cf3bcf807956bb92610996928c928a928c928e92429290911690612798565b60405180910390a450949350505050565b6000806109b385611071565b90506109c0818585611801565b9150505b9392505050565b600f5462ffffff808216916301000000810482169166010000000000009091041683565b600b5481565b6109fd611f53565b506040805160a08101825260015481526002546020820152600354918101919091526004546060820152600554608082015290565b6007546008546001600160a01b0381169060ff600160a01b8204811691600160a81b8104821691600160b01b9091041685565b600c5460ff1681565b336001600160a01b037f00000000000000000000000000000000000000000000000000000000000000001614610aa357600080fd5b6009546000610ab560ff831684612812565b90506000610adb610ac7600185612868565b610ad49060ff1684612832565b8590611842565b905060005b8360ff168160ff161015610b9b5730631c0591968783610b01600189612868565b60ff168560ff1614610b135786610b15565b855b60016040518563ffffffff1660e01b8152600401610b36949392919061238d565b602060405180830381600087803b158015610b5057600080fd5b505af1158015610b64573d6000803e3d6000fd5b505050506040513d601f19601f82011682018060405250810190610b889190612135565b5080610b938161288b565b915050610ae0565b505050505050565b600e5481565b6000428160005460ff166005811115610bd257634e487b7160e01b600052602160045260246000fd5b148015610be157506002548111155b15610bf05760009150506104bd565b6000805460ff166005811115610c1657634e487b7160e01b600052602160045260246000fd5b148015610c24575060025481115b8015610c3257506003548111155b15610c415760019150506104bd565b6000805460ff166005811115610c6757634e487b7160e01b600052602160045260246000fd5b148015610c75575060035481115b8015610c8357506004548111155b15610c925760029150506104bd565b6000805460ff166005811115610cb857634e487b7160e01b600052602160045260246000fd5b148015610cc6575060045481115b15610cd55760049150506104bd565b505060005460ff1690565b6001600160a01b0381166000908152600a60205260408120600e54600c54600b548493610d1793909260099260ff90911690611470565b91509150915091565b600d5481565b600480610d31610ba9565b6005811115610d5057634e487b7160e01b600052602160045260246000fd5b14610d5a57600080fd5b336001600160a01b037f00000000000000000000000000000000000000000000000000000000000000001614610d8f57600080fd5b610d99838361184e565b505050565b610da6611f82565b6001600160a01b0382166000908152600a6020526040812060095490919067ffffffffffffffff811115610dea57634e487b7160e01b600052604160045260246000fd5b604051908082528060200260200182016040528015610e2357816020015b610e10611faf565b815260200190600190039081610e085790505b50905060005b60095460ff82161015610eb15760ff8082166000818152600180870160209081526040928390208351606081018552815481529281015491830191909152600201549093169083015283518491908110610e9357634e487b7160e01b600052603260045260246000fd5b60200260200101819052508080610ea99061288b565b915050610e29565b506040805160a081018252925462ffffff62010000820416845260ff808216151560208601526101009091041615159083015260608201526001600160a01b038316608082015290505b919050565b600a6020526000908152604090205460ff8082169161010081049091169062010000900462ffffff1683565b6006547f0000000000000000000000000000000000000000000000000000000000000000917f0000000000000000000000000000000000000000000000000000000000000000917f0000000000000000000000000000000000000000000000000000000000000000916001600160a01b0390911690565b60095460609060009067ffffffffffffffff811115610fd257634e487b7160e01b600052604160045260246000fd5b604051908082528060200260200182016040528015610ffb578160200160208202803683370190505b50905060005b60095460ff821610156104b95761101781611071565b828260ff168151811061103a57634e487b7160e01b600052603260045260246000fd5b67ffffffffffffffff909216602092830291909101909101528061105d8161288b565b915050611001565b60105460115460125483565b60095460009060ff8316108015611086575060015b6110a25760405162461bcd60e51b8152600401610589906124f1565b6001546000906110b3904290611842565b6001546002549192506000916110c891611842565b905061111b6110d561044b565b60098660ff16815481106110f957634e487b7160e01b600052603260045260246000fd5b90600052602060002090600602016002015461111487611a2f565b8585611b01565b949350505050565b6006546001600160a01b031681565b60048061113d610ba9565b600581111561115c57634e487b7160e01b600052602160045260246000fd5b1461116657600080fd5b336001600160a01b037f0000000000000000000000000000000000000000000000000000000000000000161461119b57600080fd5b60085460035460405163883200ed60e01b81526000926001600160a01b03169163883200ed916111d09190879060040161272e565b604080518083038186803b1580156111e757600080fd5b505afa1580156111fb573d6000803e3d6000fd5b505050506040513d601f19601f8201168201806040525081019061121f919061214d565b50905061122c848261184e565b50505050565b6009818154811061124257600080fd5b60009182526020909120600690910201805460018201546002830154600384015460048501546005909501549395509193909286565b7f000000000000000000000000000000000000000000000000000000000000000081565b60006112a6611fd3565b6112ae611f53565b60606000306007600160096112c1610ba9565b6040805160a0810182528554815260018601546001600160a01b038116602083015260ff600160a01b8204811693830193909352909186916060840191600160a81b90910416600281111561132657634e487b7160e01b600052602160045260246000fd5b600281111561134557634e487b7160e01b600052602160045260246000fd5b8152600191820154600160b01b900460ff1615156020918201526040805160a0810182528754815292870154838301526002870154838201526003870154606084015260049096015460808301528454865181830281018301909752808752929650909491849160009084015b8282101561142057838290600052602060002090600602016040518060c00160405290816000820154815260200160018201548152602001600282015481526020016003820154815260200160048201548152602001600582015481525050815260200190600101906113b2565b505050509150945094509450945094509091929394565b7f000000000000000000000000000000000000000000000000000000000000000081565b600061146782846127fa565b90505b92915050565b60008060005b865460ff8216101561156f5760ff811660009081526001808a016020526040909120908101546114a790849061145b565b92508560ff168260ff1614156115275760006114fc82600001548a8560ff16815481106114e457634e487b7160e01b600052603260045260246000fd5b9060005260206000209060060201600401548a611b6e565b905061151f8161151984600101548861145b90919063ffffffff16565b9061145b565b94505061155c565b600181015460028201546115599161155291611547919060ff1689611723565b600184015490611842565b859061145b565b93505b50806115678161288b565b915050611476565b509550959350505050565b60405163a9059cbb60e01b81526001600160a01b037f0000000000000000000000000000000000000000000000000000000000000000169063a9059cbb906115c89085908590600401612374565b602060405180830381600087803b1580156115e257600080fd5b505af11580156115f6573d6000803e3d6000fd5b505050506040513d601f19601f82011682018060405250810190610d9991906120fd565b600060ff8416158061162f575060058460ff16115b1561163c575060006109c4565b6001600160a01b0383166000908152600a602052604090205462010000900462ffffff1661166c575060016109c4565b6001600160a01b0383166000908152600a6020908152604080832060ff808716855260019091019092529091206002810154909116158015906116b95750600281015460ff868116911614155b156116c85760009150506109c4565b506001949350505050565b6040516323b872dd60e01b81526001600160a01b037f000000000000000000000000000000000000000000000000000000000000000016906323b872dd906115c89085903090869060040161225c565b600061111b606461173e846117388888611b87565b90611b87565b90611b93565b6001600160a01b0385166000908152600a6020526040902080546001919060029061177b90849062010000900462ffffff166127d3565b825462ffffff9182166101009390930a9283029190920219909116179055506001600160a01b0385166000908152600a6020908152604080832060ff88168452600101909152902080546117cf908361145b565b815560018101546117e0908561145b565b6001820155600201805460ff191660ff939093169290921790915550505050565b600060058260ff1611156118275760405162461bcd60e51b815260040161058990612528565b61111b67ffffffffffffffff851661173e8560ff8616611b87565b60006114678284612851565b61185781611b9f565b600c805460ff191660ff92909216919091179055600680547fffffffffffffffffffffffff0000000000000000000000000000000000000000166001600160a01b0384161790556009805460408051602080840282018101909252828152611942939092909160009084015b8282101561193157838290600052602060002090600602016040518060c00160405290816000820154815260200160018201548152602001600282015481526020016003820154815260200160048201548152602001600582015481525050815260200190600101906118c3565b5050600c5460ff169150611c4f9050565b600d81905560408051606081018252600f5462ffffff80821683526301000000820481166020840152660100000000000090910416918101919091526119889190611ccc565b6011819055601282905560108390556119b3926119aa9291611519919061145b565b600d5490611842565b600e556119be611d5e565b6119c6611ef8565b600c54600d54601054601154601254600e5460405142966001600160a01b038a169630967f712261700497179a422a974c925ee9cf98479329641e53ba1b724ff3a68f454896611a239660ff90941695929491939092909161276b565b60405180910390a45050565b600080600760010160009054906101000a90046001600160a01b03166001600160a01b0316638e15f4736040518163ffffffff1660e01b815260040160206040518083038186803b158015611a8357600080fd5b505afa158015611a97573d6000803e3d6000fd5b505050506040513d601f19601f82011682018060405250810190611abb9190612135565b90506000611ac882611b9f565b90508060ff168460ff161115611af157611ae860ff858116908316611842565b92505050610efb565b61111b60ff828116908616611842565b600080611b0f85600161145b565b90506000611b2c611b208584611b87565b61173e87612710611b87565b90506000611b4a611b3e60018b611f3c565b61173e8a612710611b87565b90506000611b606305f5e1006115198486611b87565b9a9950505050505050505050565b600082611b7d575060006109c4565b61111b8361173e84875b60006114678284612832565b60006114678284612812565b600080805b60095460ff821611611c485760098160ff1681548110611bd457634e487b7160e01b600052603260045260246000fd5b90600052602060002090600602016001015484118015611c29575060098160ff1681548110611c1357634e487b7160e01b600052603260045260246000fd5b9060005260206000209060060201600001548411155b15611c3657809150611c48565b80611c408161288b565b915050611ba4565b5092915050565b60008060005b84518160ff161015611cc4578360ff168160ff1614611cb257611caf858260ff1681518110611c9457634e487b7160e01b600052603260045260246000fd5b602002602001015160a001518361145b90919063ffffffff16565b91505b80611cbc8161288b565b915050611c55565b509392505050565b6000806000808511611cf05760405162461bcd60e51b81526004016105899061255f565b8351611d0b90620186a09061173e90889062ffffff16611b87565b9250611d30620186a061173e866040015162ffffff1688611b8790919063ffffffff16565b9150611d55620186a061173e866020015162ffffff1688611b8790919063ffffffff16565b90509250925092565b611d8d7f000000000000000000000000000000000000000000000000000000000000000060106000015461157a565b600654601254611da6916001600160a01b03169061157a565b611dd57f000000000000000000000000000000000000000000000000000000000000000060106001015461157a565b6010546040516001600160a01b037f0000000000000000000000000000000000000000000000000000000000000000169130917f26532b91ba2eb213c7b8fcd034f2d520a1c308292d25e1afe2ef58b84df8182591611e379160009190612470565b60405180910390a36006546012546040516001600160a01b039092169130917f26532b91ba2eb213c7b8fcd034f2d520a1c308292d25e1afe2ef58b84df8182591611e8491600191612470565b60405180910390a36011546040516001600160a01b037f0000000000000000000000000000000000000000000000000000000000000000169130917f26532b91ba2eb213c7b8fcd034f2d520a1c308292d25e1afe2ef58b84df8182591611eee9160029190612470565b60405180910390a3565b600480611f03610ba9565b6005811115611f2257634e487b7160e01b600052602160045260246000fd5b14611f2c57600080fd5b506000805460ff19166005179055565b600081831015611f4c5781611467565b5090919050565b6040518060a0016040528060008152602001600081526020016000815260200160008152602001600081525090565b6040805160a081018252600080825260208201819052918101829052606080820152608081019190915290565b60405180606001604052806000815260200160008152602001600060ff1681525090565b6040805160a0810182526000808252602082018190529181018290529060608201908152600060209091015290565b80356001600160a01b0381168114610efb57600080fd5b803560ff81168114610efb57600080fd5b60006020828403121561203b578081fd5b61146782612002565b60008060408385031215612056578081fd5b61205f83612002565b946020939093013593505050565b6000806040838503121561207f578182fd5b61208883612002565b9150602083013569ffffffffffffffffffff811681146120a6578182fd5b809150509250929050565b600080600080608085870312156120c6578182fd5b6120cf85612002565b93506120dd60208601612019565b9250604085013591506120f260608601612019565b905092959194509250565b60006020828403121561210e578081fd5b815180151581146109c4578182fd5b60006020828403121561212e578081fd5b5035919050565b600060208284031215612146578081fd5b5051919050565b6000806040838503121561215f578182fd5b505080516020909101519092909150565b600060208284031215612181578081fd5b61146782612019565b60008060006060848603121561219e578283fd5b6121a784612019565b925060208401359150611d5560408501612019565b6001600160a01b03169052565b600381106121d9576121d96128c1565b9052565b600681106121d9576121d96128c1565b80518252602081015160208301526040810151604083015260608101516060830152608081015160808301525050565b6001600160a01b0391909116815260200190565b6001600160a01b03948516815292841660208401529083166040830152909116606082015260800190565b6001600160a01b039384168152919092166020820152604081019190915260600190565b60006101a08083016001600160a01b03808a1685526020895181870152808a0151604083821681890152808c015193506060915060ff841682890152818c0151935060806122d0818a01866121c9565b808d0151945060a0851515818b015260c095506122ef868b018e6121ed565b6101608a01979097528a51958690526101c0890196848c0196895b8181101561234f57885180518b5287810151888c015285810151868c015286810151878c015284810151858c0152830151838b0152988701989786019760010161230a565b5050505050505050508091505061236a6101808301846121dd565b9695505050505050565b6001600160a01b03929092168252602082015260400190565b6001600160a01b0394909416845260ff9283166020850152604084019190915216606082015260800190565b6020808252825182820181905260009190848201906040850190845b818110156123fb57835167ffffffffffffffff16835292840192918401916001016123d5565b50909695505050505050565b9215158352901515602083015262ffffff16604082015260600190565b8581526001600160a01b038516602082015260ff8416604082015260a0810161245060608301856121c9565b82151560808301529695505050505050565b6020810161146a82846121dd565b60ff929092168252602082015260400190565b60208082526013908201527f6e6f2d72657475726e732d746f2d63616c696d00000000000000000000000000604082015260600190565b6020808252601c908201527f43727970746f4d61726b65743a3a696e76616c69642d616d6f756e7400000000604082015260600190565b6020808252601a908201527f43727970746f4d61726b65743a3a696e76616c69642d706f6f6c000000000000604082015260600190565b60208082526010908201527f696e76616c69642d6c6576657261676500000000000000000000000000000000604082015260600190565b6020808252600f908201527f696e76616c69642d726577617264730000000000000000000000000000000000604082015260600190565b6020808252601e908201527f43727970746f4d61726b65743a3a696e76616c69642d6c657665726167650000604082015260600190565b60208082526017908201527f72657475726e732d616c72656164792d636c61696d6564000000000000000000604082015260600190565b60a0810161146a82846121ed565b6020808252825162ffffff16828201528281015115156040808401919091528084015115156060808501919091528085015160a06080860152805160c08601819052600094939184019285929160e08801905b8085101561269957855180518352878101518884015284015160ff1684830152948601946001949094019390820190612665565b50608089015195506126ae60a08901876121bc565b98975050505050505050565b62ffffff93841681529183166020830152909116604082015260600190565b90815260200190565b918252602082015260400190565b9283526020830191909152604082015260600190565b958652602086019490945260408501929092526060840152608083015260a082015260c00190565b91825269ffffffffffffffffffff16602082015260400190565b67ffffffffffffffff91909116815260200190565b60ff91909116815260200190565b60ff969096168652602086019490945260408501929092526060840152608083015260a082015260c00190565b60ff96871681526020810195909552929094166040840152606083015260808201929092526001600160a01b0390911660a082015260c00190565b600062ffffff8083168185168083038211156127f1576127f16128ab565b01949350505050565b6000821982111561280d5761280d6128ab565b500190565b60008261282d57634e487b7160e01b81526012600452602481fd5b500490565b600081600019048311821515161561284c5761284c6128ab565b500290565b600082821015612863576128636128ab565b500390565b600060ff821660ff841680821015612882576128826128ab565b90039392505050565b600060ff821660ff8114156128a2576128a26128ab565b60010192915050565b634e487b7160e01b600052601160045260246000fd5b634e487b7160e01b600052602160045260246000fdfea164736f6c6343000800000a",
  "linkReferences": {},
  "deployedLinkReferences": {}
}