{
  "_format": "hh-sol-artifact-1",
  "contractName": "PredictionGateway",
  "sourceName": "contracts/prediction-gateway/PredictionGateway.sol",
  "abi": [
    {
      "inputs": [
        {
          "internalType": "address",
          "name": "_token",
          "type": "address"
        }
      ],
      "stateMutability": "nonpayable",
      "type": "constructor"
    },
    {
      "anonymous": false,
      "inputs": [
        {
          "indexed": true,
          "internalType": "address",
          "name": "user",
          "type": "address"
        },
        {
          "indexed": false,
          "internalType": "uint256",
          "name": "amount",
          "type": "uint256"
        },
        {
          "indexed": false,
          "internalType": "uint256",
          "name": "timeStamp",
          "type": "uint256"
        }
      ],
      "name": "Deposited",
      "type": "event"
    },
    {
      "anonymous": false,
      "inputs": [
        {
          "indexed": true,
          "internalType": "address",
          "name": "market",
          "type": "address"
        },
        {
          "indexed": true,
          "internalType": "bytes32",
          "name": "asset",
          "type": "bytes32"
        },
        {
          "indexed": true,
          "internalType": "address",
          "name": "user",
          "type": "address"
        },
        {
          "indexed": false,
          "internalType": "uint8",
          "name": "prediction",
          "type": "uint8"
        },
        {
          "indexed": false,
          "internalType": "uint256",
          "name": "positions",
          "type": "uint256"
        },
        {
          "indexed": false,
          "internalType": "uint256",
          "name": "amount",
          "type": "uint256"
        },
        {
          "indexed": false,
          "internalType": "uint256",
          "name": "date",
          "type": "uint256"
        },
        {
          "indexed": false,
          "internalType": "address",
          "name": "marketFeed",
          "type": "address"
        }
      ],
      "name": "PredictionPlaced",
      "type": "event"
    },
    {
      "anonymous": false,
      "inputs": [
        {
          "indexed": true,
          "internalType": "address",
          "name": "market",
          "type": "address"
        },
        {
          "indexed": false,
          "internalType": "uint256",
          "name": "winningOption",
          "type": "uint256"
        }
      ],
      "name": "ResultAnnounced",
      "type": "event"
    },
    {
      "anonymous": false,
      "inputs": [
        {
          "indexed": true,
          "internalType": "address",
          "name": "market",
          "type": "address"
        },
        {
          "indexed": true,
          "internalType": "address",
          "name": "user",
          "type": "address"
        },
        {
          "indexed": false,
          "internalType": "uint256",
          "name": "amount",
          "type": "uint256"
        }
      ],
      "name": "ReturnsClaimed",
      "type": "event"
    },
    {
      "anonymous": false,
      "inputs": [
        {
          "indexed": true,
          "internalType": "address",
          "name": "market",
          "type": "address"
        },
        {
          "indexed": false,
          "internalType": "uint256",
          "name": "creator",
          "type": "uint256"
        },
        {
          "indexed": false,
          "internalType": "uint256",
          "name": "platform",
          "type": "uint256"
        },
        {
          "indexed": false,
          "internalType": "uint256",
          "name": "settler",
          "type": "uint256"
        },
        {
          "indexed": false,
          "internalType": "uint256",
          "name": "users",
          "type": "uint256"
        }
      ],
      "name": "RewardsCalculated",
      "type": "event"
    },
    {
      "anonymous": false,
      "inputs": [
        {
          "indexed": true,
          "internalType": "address",
          "name": "user",
          "type": "address"
        },
        {
          "indexed": false,
          "internalType": "uint256",
          "name": "amount",
          "type": "uint256"
        },
        {
          "indexed": false,
          "internalType": "uint256",
          "name": "timeStamp",
          "type": "uint256"
        }
      ],
      "name": "Withdrawn",
      "type": "event"
    },
    {
      "inputs": [
        {
          "internalType": "address",
          "name": "_market",
          "type": "address"
        }
      ],
      "name": "claimUserReturns",
      "outputs": [],
      "stateMutability": "nonpayable",
      "type": "function"
    },
    {
      "inputs": [],
      "name": "getFees",
      "outputs": [
        {
          "components": [
            {
              "internalType": "uint256",
              "name": "creator",
              "type": "uint256"
            },
            {
              "internalType": "uint256",
              "name": "settler",
              "type": "uint256"
            },
            {
              "internalType": "uint256",
              "name": "platform",
              "type": "uint256"
            }
          ],
          "internalType": "struct MarketLibrary.Fees",
          "name": "",
          "type": "tuple"
        }
      ],
      "stateMutability": "view",
      "type": "function"
    },
    {
      "inputs": [
        {
          "internalType": "address",
          "name": "_market",
          "type": "address"
        }
      ],
      "name": "getMarketUserData",
      "outputs": [
        {
          "components": [
            {
              "internalType": "uint24",
              "name": "numberOfPredictions",
              "type": "uint24"
            },
            {
              "internalType": "bool",
              "name": "rewardClaimed",
              "type": "bool"
            },
            {
              "internalType": "bool",
              "name": "boostModeApplied",
              "type": "bool"
            },
            {
              "components": [
                {
                  "internalType": "uint256",
                  "name": "positions",
                  "type": "uint256"
                },
                {
                  "internalType": "uint256",
                  "name": "amount",
                  "type": "uint256"
                },
                {
                  "internalType": "uint8",
                  "name": "leverage",
                  "type": "uint8"
                }
              ],
              "internalType": "struct MarketLibrary.Prediction[]",
              "name": "predictions",
              "type": "tuple[]"
            },
            {
              "internalType": "address",
              "name": "user",
              "type": "address"
            }
          ],
          "internalType": "struct MarketLibrary.MarketUserResponse",
          "name": "",
          "type": "tuple"
        },
        {
          "components": [
            {
              "internalType": "address",
              "name": "marketAddress",
              "type": "address"
            },
            {
              "components": [
                {
                  "internalType": "bytes32",
                  "name": "assetName",
                  "type": "bytes32"
                },
                {
                  "internalType": "address",
                  "name": "assetFeed",
                  "type": "address"
                },
                {
                  "internalType": "uint8",
                  "name": "decimals",
                  "type": "uint8"
                },
                {
                  "internalType": "enum MarketLibrary.AssetFeedType",
                  "name": "assetFeedType",
                  "type": "uint8"
                },
                {
                  "internalType": "bool",
                  "name": "active",
                  "type": "bool"
                }
              ],
              "internalType": "struct MarketLibrary.Asset",
              "name": "asset",
              "type": "tuple"
            },
            {
              "components": [
                {
                  "internalType": "uint256",
                  "name": "creationTime",
                  "type": "uint256"
                },
                {
                  "internalType": "uint256",
                  "name": "tradingEndTime",
                  "type": "uint256"
                },
                {
                  "internalType": "uint256",
                  "name": "waitingEndTime",
                  "type": "uint256"
                },
                {
                  "internalType": "uint256",
                  "name": "reportingEndTime",
                  "type": "uint256"
                },
                {
                  "internalType": "uint256",
                  "name": "disputeEndTime",
                  "type": "uint256"
                }
              ],
              "internalType": "struct MarketLibrary.MarketTime",
              "name": "time",
              "type": "tuple"
            },
            {
              "components": [
                {
                  "internalType": "uint256",
                  "name": "upper",
                  "type": "uint256"
                },
                {
                  "internalType": "uint256",
                  "name": "lower",
                  "type": "uint256"
                },
                {
                  "internalType": "uint256",
                  "name": "staked",
                  "type": "uint256"
                },
                {
                  "internalType": "uint256",
                  "name": "participants",
                  "type": "uint256"
                },
                {
                  "internalType": "uint256",
                  "name": "positions",
                  "type": "uint256"
                },
                {
                  "internalType": "uint256",
                  "name": "rewards",
                  "type": "uint256"
                }
              ],
              "internalType": "struct MarketLibrary.Pool[]",
              "name": "pools",
              "type": "tuple[]"
            },
            {
              "internalType": "enum MarketLibrary.Phase",
              "name": "phase",
              "type": "uint8"
            }
          ],
          "internalType": "struct MarketLibrary.MarketResponse",
          "name": "",
          "type": "tuple"
        }
      ],
      "stateMutability": "view",
      "type": "function"
    },
    {
      "inputs": [],
      "name": "getPredictionStats",
      "outputs": [
        {
          "components": [
            {
              "internalType": "uint256",
              "name": "totalParticipation",
              "type": "uint256"
            },
            {
              "internalType": "uint256",
              "name": "totalPredictions",
              "type": "uint256"
            },
            {
              "internalType": "uint256",
              "name": "totalParticipants",
              "type": "uint256"
            }
          ],
          "internalType": "struct PredictionGateway.PredictionStats",
          "name": "",
          "type": "tuple"
        }
      ],
      "stateMutability": "view",
      "type": "function"
    },
    {
      "inputs": [
        {
          "internalType": "uint256",
          "name": "_pageSize",
          "type": "uint256"
        },
        {
          "internalType": "uint256",
          "name": "_offset",
          "type": "uint256"
        }
      ],
      "name": "getUnclaimedMarkets",
      "outputs": [
        {
          "internalType": "address[]",
          "name": "",
          "type": "address[]"
        },
        {
          "internalType": "uint256",
          "name": "",
          "type": "uint256"
        }
      ],
      "stateMutability": "view",
      "type": "function"
    },
    {
      "inputs": [
        {
          "internalType": "uint256",
          "name": "_pageSize",
          "type": "uint256"
        },
        {
          "internalType": "uint256",
          "name": "_offset",
          "type": "uint256"
        }
      ],
      "name": "getUserPredictions",
      "outputs": [
        {
          "internalType": "address[]",
          "name": "",
          "type": "address[]"
        },
        {
          "internalType": "uint256",
          "name": "",
          "type": "uint256"
        }
      ],
      "stateMutability": "view",
      "type": "function"
    },
    {
      "inputs": [
        {
          "internalType": "address",
          "name": "_user",
          "type": "address"
        },
        {
          "internalType": "address",
          "name": "_market",
          "type": "address"
        },
        {
          "internalType": "uint8[]",
          "name": "_predictions",
          "type": "uint8[]"
        },
        {
          "internalType": "uint256",
          "name": "_amount",
          "type": "uint256"
        },
        {
          "internalType": "uint8",
          "name": "_leverage",
          "type": "uint8"
        }
      ],
      "name": "placeBatchPredictions",
      "outputs": [],
      "stateMutability": "nonpayable",
      "type": "function"
    },
    {
      "inputs": [
        {
          "internalType": "address",
          "name": "_market",
          "type": "address"
        },
        {
          "internalType": "uint8",
          "name": "_prediction",
          "type": "uint8"
        },
        {
          "internalType": "uint256",
          "name": "_amount",
          "type": "uint256"
        },
        {
          "internalType": "uint8",
          "name": "_leverage",
          "type": "uint8"
        }
      ],
      "name": "placePrediction",
      "outputs": [],
      "stateMutability": "nonpayable",
      "type": "function"
    }
  ],
  "bytecode": "0x608060405234801561001057600080fd5b50604051611b62380380611b6283398101604081905261002f91610066565b600080546001600160a01b0319166001600160a01b03929092169190911790556113886005556101f46007556103e8600655610094565b600060208284031215610077578081fd5b81516001600160a01b038116811461008d578182fd5b9392505050565b611abf806100a36000396000f3fe608060405234801561001057600080fd5b50600436106100885760003560e01c8063a488fada1161005b578063a488fada146100f2578063a9f8793114610105578063b71150101461011a578063db8d55f11461013b57610088565b80631c0591961461008d578063312501cc146100a2578063517d5b0e146100b55780638d0db8e5146100c8575b600080fd5b6100a061009b36600461128a565b610143565b005b6100a06100b036600461118d565b610189565b6100a06100c33660046111b0565b61026e565b6100db6100d636600461146a565b610376565b6040516100e992919061168a565b60405180910390f35b6100db61010036600461146a565b6104e8565b61010d610632565b6040516100e991906117f9565b61012d61012836600461118d565b61065f565b6040516100e9929190611807565b61010d6106f8565b6000821161016c5760405162461bcd60e51b815260040161016390611780565b60405180910390fd5b6101763383610725565b61018333858585856107f3565b50505050565b6040516316af445360e01b81526000906001600160a01b038316906316af4453906101b890339060040161160d565b602060405180830381600087803b1580156101d257600080fd5b505af11580156101e6573d6000803e3d6000fd5b505050506040513d601f19601f8201168201806040525081019061020a9190611427565b9050610215826109d6565b61021f3382610b5b565b336001600160a01b0316826001600160a01b03167f718ce4c9acc24e0bca56a6081efa47330001f32129c10feb0d4717230a0075c98360405161026291906118bf565b60405180910390a35050565b82518261028d5760405162461bcd60e51b815260040161016390611749565b60018160ff16116102b05760405162461bcd60e51b8152600401610163906116db565b6102ba8684610725565b60006102c960ff83168561196d565b905060006102ef6102db6001856119c3565b6102e89060ff168461198d565b8690610c1b565b905060005b8360ff168160ff16101561036b576103598989898460ff168151811061032a57634e487b7160e01b600052603260045260246000fd5b602002602001015160018861033f91906119c3565b60ff168560ff16146103515786610353565b855b896107f3565b8061036381611a29565b9150506102f4565b505050505050505050565b33600090815260016020819052604082200154606091908190819061039e9087908790610c30565b909250905060006103b9876103b4856001611955565b610cae565b67ffffffffffffffff8111156103df57634e487b7160e01b600052604160045260246000fd5b604051908082528060200260200182016040528015610408578160200160208202803683370190505b50905060005b8284106104c6573360009081526001602081905260409091200180548590811061044857634e487b7160e01b600052603260045260246000fd5b6000918252602090912001546001600160a01b0316828261046881611a01565b935067ffffffffffffffff168151811061049257634e487b7160e01b600052603260045260246000fd5b6001600160a01b0390921660209283029190910190910152836104b4576104c6565b6104bf846001610c1b565b935061040e565b5033600090815260016020819052604090912001549097909650945050505050565b3360009081526001602052604081206002015460609190819081906105109087908790610c30565b90925090506000610526876103b4856001611955565b67ffffffffffffffff81111561054c57634e487b7160e01b600052604160045260246000fd5b604051908082528060200260200182016040528015610575578160200160208202803683370190505b50905060005b8284106104c6573360009081526001602052604090206002018054859081106105b457634e487b7160e01b600052603260045260246000fd5b6000918252602090912001546001600160a01b031682826105d481611a01565b935067ffffffffffffffff16815181106105fe57634e487b7160e01b600052603260045260246000fd5b6001600160a01b039092166020928302919091019091015283610620576104c6565b61062b846001610c1b565b935061057b565b61063a610d2a565b5060408051606081018252600254815260035460208201526004549181019190915290565b610667610d4b565b61066f610d78565b604051630b71150160e41b81526001600160a01b0384169063b71150109061069b90339060040161160d565b60006040518083038186803b1580156106b357600080fd5b505afa1580156106c7573d6000803e3d6000fd5b505050506040513d6000823e601f3d908101601f191682016040526106ef919081019061133f565b91509150915091565b610700610d2a565b5060408051606081018252600554815260065460208201526007549181019190915290565b6000546040516323b872dd60e01b81526001600160a01b03909116906323b872dd9061075990859030908690600401611621565b602060405180830381600087803b15801561077357600080fd5b505af1158015610787573d6000803e3d6000fd5b505050506040513d601f19601f820116820180604052508101906107ab91906112dc565b50816001600160a01b03167f73a19dd210f1a7f902193214c0ee91dd35ee5b4d920cba8d519eca65a7b488ca82426040516107e79291906118c8565b60405180910390a25050565b604051630e02c8cb60e11b8152849060009081906001600160a01b03841690631c0591969061082c908b908a908a908a9060040161165e565b6040805180830381600087803b15801561084557600080fd5b505af1158015610859573d6000803e3d6000fd5b505050506040513d601f19601f8201168201806040525081019061087d919061143f565b9150915080156108f0576001600160a01b038089166000908152600160208181526040832080830180548085018255908552828520018054958d1673ffffffffffffffffffffffffffffffffffffffff199687168117909155600290910180549384018155845292200180549092161790555b6108fa8582610cc4565b600080846001600160a01b0316635c222bad6040518163ffffffff1660e01b8152600401608060405180830381600087803b15801561093857600080fd5b505af115801561094c573d6000803e3d6000fd5b505050506040513d601f19601f8201168201806040525081019061097091906112f6565b505091509150896001600160a01b0316828a6001600160a01b03167fe4a518c1410bc4962e845a399f912f994345bc63268a3d5cccb1a99c366809d38b888c42886040516109c29594939291906118d6565b60405180910390a450505050505050505050565b3360009081526001602052604081206002018054909181905b82811015610a5257846001600160a01b0316848281548110610a2157634e487b7160e01b600052603260045260246000fd5b6000918252602090912001546001600160a01b03161415610a40578091505b80610a4a816119e6565b9150506109ef565b50818110610a725760405162461bcd60e51b8152600401610163906117c2565b82610a7e6001846119ac565b81548110610a9c57634e487b7160e01b600052603260045260246000fd5b9060005260206000200160009054906101000a90046001600160a01b0316838281548110610ada57634e487b7160e01b600052603260045260246000fd5b9060005260206000200160006101000a8154816001600160a01b0302191690836001600160a01b0316021790555082805480610b2657634e487b7160e01b600052603160045260246000fd5b6000828152602090208101600019908101805473ffffffffffffffffffffffffffffffffffffffff1916905501905550505050565b60005460405163a9059cbb60e01b81526001600160a01b039091169063a9059cbb90610b8d9085908590600401611645565b602060405180830381600087803b158015610ba757600080fd5b505af1158015610bbb573d6000803e3d6000fd5b505050506040513d601f19601f82011682018060405250810190610bdf91906112dc565b50816001600160a01b03167f92ccf450a286a957af52509bc1c9939d1a6a481783e142e41e2499f0bb66ebc682426040516107e79291906118c8565b6000610c2782846119ac565b90505b92915050565b60008060288511158015610c4357508284105b610c5f5760405162461bcd60e51b815260040161016390611712565b6000610c766001610c708688610c1b565b90610c1b565b9050600081871115610c8a57506000610ca2565b610c9f6001610c99848a610c1b565b90610d1e565b90505b90969095509350505050565b6000818310610cbd5781610c27565b5090919050565b600160026001016000828254610cda9190611955565b909155505060028054839190600090610cf4908490611955565b90915550508015610d1a576001600280016000828254610d149190611955565b90915550505b5050565b6000610c278284611955565b60405180606001604052806000815260200160008152602001600081525090565b6040805160a081018252600080825260208201819052918101829052606080820152608081019190915290565b6040518060a0016040528060006001600160a01b03168152602001610d9b610dbb565b8152602001610da8610dea565b8152606060208201526040016000905290565b6040805160a0810182526000808252602082018190529181018290529060608201908152600060209091015290565b6040518060a0016040528060008152602001600081526020016000815260200160008152602001600081525090565b8051610e2481611a8b565b919050565b600082601f830112610e39578081fd5b81516020610e4e610e4983611931565b611907565b8281528181019085830160c080860288018501891015610e6c578687fd5b865b86811015610ef05781838b031215610e84578788fd5b6040805183810181811067ffffffffffffffff82111715610ea757610ea7611a75565b82528451815287850151888201528482015191810191909152606080850151908201526080808501519082015260a0808501519082015285529385019391810191600101610e6e565b509198975050505050505050565b600082601f830112610f0e578081fd5b81516020610f1e610e4983611931565b82815281810190858301606080860288018501891015610f3c578687fd5b865b86811015610ef05781838b031215610f54578788fd5b6040805183810181811067ffffffffffffffff82111715610f7757610f77611a75565b825284518152878501518882015284820151610f9281611aa3565b9181019190915285529385019391810191600101610f3e565b80518015158114610e2457600080fd5b805160068110610e2457600080fd5b600060a08284031215610fdb578081fd5b60405160a0810181811067ffffffffffffffff82111715610ffe57610ffe611a75565b806040525080915082518152602083015161101881611a8b565b6020820152604083015161102b81611aa3565b604082015260608301516003811061104257600080fd5b606082015261105360808401610fab565b60808201525092915050565b60006101a08284031215611071578081fd5b60405160a0810167ffffffffffffffff828210818311171561109557611095611a75565b816040528293506110a585610e19565b83526110b48660208701610fca565b60208401526110c68660c08701611100565b60408401526101608501519150808211156110e057600080fd5b506110ed85828601610e29565b6060830152506110536101808401610fbb565b600060a08284031215611111578081fd5b60405160a0810181811067ffffffffffffffff8211171561113457611134611a75565b806040525080915082518152602083015160208201526040830151604082015260608301516060820152608083015160808201525092915050565b805162ffffff81168114610e2457600080fd5b8035610e2481611aa3565b60006020828403121561119e578081fd5b81356111a981611a8b565b9392505050565b600080600080600060a086880312156111c7578081fd5b85356111d281611a8b565b94506020868101356111e381611a8b565b9450604087013567ffffffffffffffff8111156111fe578283fd5b8701601f8101891361120e578283fd5b803561121c610e4982611931565b81815283810190838501858402850186018d1015611238578687fd5b8694505b8385101561126357803561124f81611aa3565b83526001949094019391850191850161123c565b5096505050506060870135925061127e905060808701611182565b90509295509295909350565b6000806000806080858703121561129f578182fd5b84356112aa81611a8b565b935060208501356112ba81611aa3565b92506040850135915060608501356112d181611aa3565b939692955090935050565b6000602082840312156112ed578081fd5b610c2782610fab565b6000806000806080858703121561130b578182fd5b84519350602085015161131d81611a8b565b604086015190935061132e81611aa3565b60608601519092506112d181611aa3565b60008060408385031215611351578182fd5b825167ffffffffffffffff80821115611368578384fd5b9084019060a0828703121561137b578384fd5b60405160a08101818110838211171561139657611396611a75565b6040526113a28361116f565b81526113b060208401610fab565b60208201526113c160408401610fab565b60408201526060830151828111156113d7578586fd5b6113e388828601610efe565b6060830152506113f560808401610e19565b60808201526020860151909450915080821115611410578283fd5b5061141d8582860161105f565b9150509250929050565b600060208284031215611438578081fd5b5051919050565b60008060408385031215611451578182fd5b8251915061146160208401610fab565b90509250929050565b6000806040838503121561147c578182fd5b50508035926020909101359150565b6001600160a01b03169052565b6000815180845260208085019450808401835b838110156114fb57815180518852838101518489015260408082015190890152606080820151908901526080808201519089015260a0908101519088015260c090960195908201906001016114ab565b509495945050505050565b6006811061151657611516611a5f565b9052565b8051825260208082015190830152604090810151910152565b60006101a06001600160a01b0380845116855260208401518051602087015281602082015116604087015260ff6040820151166060870152606081015191506003821061158257611582611a5f565b6080868101929092520151151560a085015260408301516115a660c08601826115dd565b506060830151816101608601526115bf82860182611498565b91505060808301516115d5610180860182611506565b509392505050565b80518252602081015160208301526040810151604083015260608101516060830152608081015160808301525050565b6001600160a01b0391909116815260200190565b6001600160a01b039384168152919092166020820152604081019190915260600190565b6001600160a01b03929092168252602082015260400190565b6001600160a01b0394909416845260ff9283166020850152604084019190915216606082015260800190565b604080825283519082018190526000906020906060840190828701845b828110156116cc5781516001600160a01b0316845292840192908401906001016116a7565b50505092019290925292915050565b60208082526013908201527f7573652d706c61636550726564696374696f6e00000000000000000000000000604082015260600190565b60208082526017908201527f496e76616c69645061676553697a654f724f6666736574000000000000000000604082015260600190565b6020808252600e908201527f696e76616c69642d616d6f756e74000000000000000000000000000000000000604082015260600190565b60208082526022908201527f5072656469636974696f6e476174657761793a3a696e76616c69642d616d6f756040820152611b9d60f21b606082015260800190565b60208082526007908201527f696e76616c696400000000000000000000000000000000000000000000000000604082015260600190565b60608101610c2a828461151a565b6040808252835162ffffff1682820152602080850151151560608085019190915285830151151560808501528086015160a080860152805160e08601819052600094939182019285916101008801905b8084101561188b57855180518352858101518684015287015160ff1687830152948401946001939093019290820190611857565b5060808a015195506118a060c089018761148b565b878103848901526118b1818a611533565b9a9950505050505050505050565b90815260200190565b918252602082015260400190565b60ff9590951685526020850193909352604084019190915260608301526001600160a01b0316608082015260a00190565b60405181810167ffffffffffffffff8111828210171561192957611929611a75565b604052919050565b600067ffffffffffffffff82111561194b5761194b611a75565b5060209081020190565b6000821982111561196857611968611a49565b500190565b60008261198857634e487b7160e01b81526012600452602481fd5b500490565b60008160001904831182151516156119a7576119a7611a49565b500290565b6000828210156119be576119be611a49565b500390565b600060ff821660ff8416808210156119dd576119dd611a49565b90039392505050565b60006000198214156119fa576119fa611a49565b5060010190565b600067ffffffffffffffff80831681811415611a1f57611a1f611a49565b6001019392505050565b600060ff821660ff811415611a4057611a40611a49565b60010192915050565b634e487b7160e01b600052601160045260246000fd5b634e487b7160e01b600052602160045260246000fd5b634e487b7160e01b600052604160045260246000fd5b6001600160a01b0381168114611aa057600080fd5b50565b60ff81168114611aa057600080fdfea164736f6c6343000800000a",
  "linkReferences": {},
  "deployedLinkReferences": {}
}