{
  "_format": "hh-sol-artifact-1",
  "contractName": "TokenVesting",
  "sourceName": "contracts/vesting/TokenVesting.sol",
  "abi": [
    {
      "inputs": [
        {
          "internalType": "address",
          "name": "token_",
          "type": "address"
        }
      ],
      "stateMutability": "nonpayable",
      "type": "constructor"
    },
    {
      "anonymous": false,
      "inputs": [
        {
          "indexed": false,
          "internalType": "bytes32",
          "name": "vestingScheduleId",
          "type": "bytes32"
        },
        {
          "indexed": false,
          "internalType": "address",
          "name": "beneficiary",
          "type": "address"
        },
        {
          "indexed": false,
          "internalType": "uint256",
          "name": "cliff",
          "type": "uint256"
        },
        {
          "indexed": false,
          "internalType": "uint256",
          "name": "start",
          "type": "uint256"
        },
        {
          "indexed": false,
          "internalType": "uint256",
          "name": "duration",
          "type": "uint256"
        },
        {
          "indexed": false,
          "internalType": "uint256",
          "name": "slicePeriodSeconds",
          "type": "uint256"
        },
        {
          "indexed": false,
          "internalType": "bool",
          "name": "revocable",
          "type": "bool"
        },
        {
          "indexed": false,
          "internalType": "uint256",
          "name": "amountTotal",
          "type": "uint256"
        },
        {
          "indexed": false,
          "internalType": "uint256",
          "name": "released",
          "type": "uint256"
        },
        {
          "indexed": false,
          "internalType": "bool",
          "name": "revoked",
          "type": "bool"
        },
        {
          "indexed": false,
          "internalType": "uint256",
          "name": "upFront",
          "type": "uint256"
        }
      ],
      "name": "AddVestingSchedule",
      "type": "event"
    },
    {
      "anonymous": false,
      "inputs": [
        {
          "indexed": true,
          "internalType": "address",
          "name": "previousOwner",
          "type": "address"
        },
        {
          "indexed": true,
          "internalType": "address",
          "name": "newOwner",
          "type": "address"
        }
      ],
      "name": "OwnershipTransferred",
      "type": "event"
    },
    {
      "anonymous": false,
      "inputs": [
        {
          "indexed": false,
          "internalType": "bytes32",
          "name": "vestingScheduleId",
          "type": "bytes32"
        },
        {
          "indexed": false,
          "internalType": "address",
          "name": "beneficiary",
          "type": "address"
        },
        {
          "indexed": false,
          "internalType": "uint256",
          "name": "amountReleased",
          "type": "uint256"
        }
      ],
      "name": "ReleaseVestedToken",
      "type": "event"
    },
    {
      "anonymous": false,
      "inputs": [
        {
          "indexed": false,
          "internalType": "uint256",
          "name": "amount",
          "type": "uint256"
        }
      ],
      "name": "Released",
      "type": "event"
    },
    {
      "anonymous": false,
      "inputs": [
        {
          "indexed": false,
          "internalType": "bytes32",
          "name": "vestingScheduleId",
          "type": "bytes32"
        }
      ],
      "name": "RevokeVestingShedule",
      "type": "event"
    },
    {
      "anonymous": false,
      "inputs": [],
      "name": "Revoked",
      "type": "event"
    },
    {
      "anonymous": false,
      "inputs": [
        {
          "indexed": false,
          "internalType": "bytes32",
          "name": "vestingScheduleId",
          "type": "bytes32"
        },
        {
          "indexed": false,
          "internalType": "address",
          "name": "beneficiary",
          "type": "address"
        },
        {
          "indexed": false,
          "internalType": "uint256",
          "name": "amount",
          "type": "uint256"
        }
      ],
      "name": "UpfrontTokenTransfer",
      "type": "event"
    },
    {
      "stateMutability": "payable",
      "type": "fallback"
    },
    {
      "inputs": [
        {
          "internalType": "address",
          "name": "holder",
          "type": "address"
        }
      ],
      "name": "computeNextVestingScheduleIdForHolder",
      "outputs": [
        {
          "internalType": "bytes32",
          "name": "",
          "type": "bytes32"
        }
      ],
      "stateMutability": "view",
      "type": "function"
    },
    {
      "inputs": [
        {
          "internalType": "bytes32",
          "name": "vestingScheduleId",
          "type": "bytes32"
        }
      ],
      "name": "computeReleasableAmount",
      "outputs": [
        {
          "internalType": "uint256",
          "name": "",
          "type": "uint256"
        }
      ],
      "stateMutability": "view",
      "type": "function"
    },
    {
      "inputs": [
        {
          "internalType": "address",
          "name": "_beneficiary",
          "type": "address"
        },
        {
          "internalType": "uint256",
          "name": "_start",
          "type": "uint256"
        },
        {
          "internalType": "uint256",
          "name": "_cliff",
          "type": "uint256"
        },
        {
          "internalType": "uint256",
          "name": "_duration",
          "type": "uint256"
        },
        {
          "internalType": "uint256",
          "name": "_slicePeriodSeconds",
          "type": "uint256"
        },
        {
          "internalType": "bool",
          "name": "_revocable",
          "type": "bool"
        },
        {
          "internalType": "uint256",
          "name": "_amount",
          "type": "uint256"
        },
        {
          "internalType": "uint256",
          "name": "_upFront",
          "type": "uint256"
        }
      ],
      "name": "createVestingSchedule",
      "outputs": [],
      "stateMutability": "nonpayable",
      "type": "function"
    },
    {
      "inputs": [
        {
          "internalType": "bytes32",
          "name": "vestingScheduleId",
          "type": "bytes32"
        }
      ],
      "name": "getVestingSchedule",
      "outputs": [
        {
          "components": [
            {
              "internalType": "bool",
              "name": "initialized",
              "type": "bool"
            },
            {
              "internalType": "address",
              "name": "beneficiary",
              "type": "address"
            },
            {
              "internalType": "uint256",
              "name": "cliff",
              "type": "uint256"
            },
            {
              "internalType": "uint256",
              "name": "start",
              "type": "uint256"
            },
            {
              "internalType": "uint256",
              "name": "duration",
              "type": "uint256"
            },
            {
              "internalType": "uint256",
              "name": "slicePeriodSeconds",
              "type": "uint256"
            },
            {
              "internalType": "bool",
              "name": "revocable",
              "type": "bool"
            },
            {
              "internalType": "uint256",
              "name": "amountTotal",
              "type": "uint256"
            },
            {
              "internalType": "uint256",
              "name": "released",
              "type": "uint256"
            },
            {
              "internalType": "bool",
              "name": "revoked",
              "type": "bool"
            },
            {
              "internalType": "uint256",
              "name": "upFront",
              "type": "uint256"
            }
          ],
          "internalType": "struct ITokenVesting.VestingSchedule",
          "name": "",
          "type": "tuple"
        }
      ],
      "stateMutability": "view",
      "type": "function"
    },
    {
      "inputs": [],
      "name": "getVestingSchedulesCount",
      "outputs": [
        {
          "internalType": "uint256",
          "name": "",
          "type": "uint256"
        }
      ],
      "stateMutability": "view",
      "type": "function"
    },
    {
      "inputs": [
        {
          "internalType": "address",
          "name": "_beneficiary",
          "type": "address"
        }
      ],
      "name": "getVestingSchedulesCountByBeneficiary",
      "outputs": [
        {
          "internalType": "uint256",
          "name": "",
          "type": "uint256"
        }
      ],
      "stateMutability": "view",
      "type": "function"
    },
    {
      "inputs": [
        {
          "internalType": "address",
          "name": "",
          "type": "address"
        }
      ],
      "name": "holdersVestingCount",
      "outputs": [
        {
          "internalType": "uint256",
          "name": "",
          "type": "uint256"
        }
      ],
      "stateMutability": "view",
      "type": "function"
    },
    {
      "inputs": [],
      "name": "owner",
      "outputs": [
        {
          "internalType": "address",
          "name": "",
          "type": "address"
        }
      ],
      "stateMutability": "view",
      "type": "function"
    },
    {
      "inputs": [
        {
          "internalType": "bytes32",
          "name": "vestingScheduleId",
          "type": "bytes32"
        },
        {
          "internalType": "uint256",
          "name": "amount",
          "type": "uint256"
        }
      ],
      "name": "release",
      "outputs": [],
      "stateMutability": "nonpayable",
      "type": "function"
    },
    {
      "inputs": [
        {
          "internalType": "bytes32",
          "name": "vestingScheduleId",
          "type": "bytes32"
        }
      ],
      "name": "releaseAllVested",
      "outputs": [],
      "stateMutability": "nonpayable",
      "type": "function"
    },
    {
      "inputs": [],
      "name": "renounceOwnership",
      "outputs": [],
      "stateMutability": "nonpayable",
      "type": "function"
    },
    {
      "inputs": [
        {
          "internalType": "bytes32",
          "name": "vestingScheduleId",
          "type": "bytes32"
        }
      ],
      "name": "revoke",
      "outputs": [],
      "stateMutability": "nonpayable",
      "type": "function"
    },
    {
      "inputs": [],
      "name": "token",
      "outputs": [
        {
          "internalType": "contract IERC20",
          "name": "",
          "type": "address"
        }
      ],
      "stateMutability": "view",
      "type": "function"
    },
    {
      "inputs": [
        {
          "internalType": "address",
          "name": "newOwner",
          "type": "address"
        }
      ],
      "name": "transferOwnership",
      "outputs": [],
      "stateMutability": "nonpayable",
      "type": "function"
    },
    {
      "inputs": [
        {
          "internalType": "bytes32",
          "name": "",
          "type": "bytes32"
        }
      ],
      "name": "vestingSchedules",
      "outputs": [
        {
          "internalType": "bool",
          "name": "initialized",
          "type": "bool"
        },
        {
          "internalType": "address",
          "name": "beneficiary",
          "type": "address"
        },
        {
          "internalType": "uint256",
          "name": "cliff",
          "type": "uint256"
        },
        {
          "internalType": "uint256",
          "name": "start",
          "type": "uint256"
        },
        {
          "internalType": "uint256",
          "name": "duration",
          "type": "uint256"
        },
        {
          "internalType": "uint256",
          "name": "slicePeriodSeconds",
          "type": "uint256"
        },
        {
          "internalType": "bool",
          "name": "revocable",
          "type": "bool"
        },
        {
          "internalType": "uint256",
          "name": "amountTotal",
          "type": "uint256"
        },
        {
          "internalType": "uint256",
          "name": "released",
          "type": "uint256"
        },
        {
          "internalType": "bool",
          "name": "revoked",
          "type": "bool"
        },
        {
          "internalType": "uint256",
          "name": "upFront",
          "type": "uint256"
        }
      ],
      "stateMutability": "view",
      "type": "function"
    },
    {
      "inputs": [],
      "name": "vestingSchedulesTotalAmount",
      "outputs": [
        {
          "internalType": "uint256",
          "name": "",
          "type": "uint256"
        }
      ],
      "stateMutability": "view",
      "type": "function"
    },
    {
      "stateMutability": "payable",
      "type": "receive"
    }
  ],
  "bytecode": "0x60a06040523480156200001157600080fd5b5060405162001e6238038062001e62833981016040819052620000349162000100565b6200003f33620000b0565b600180556001600160a01b0381166200009e5760405162461bcd60e51b815260206004820152601560248201527f696e76616c69642d746f6b656e2d616464726573730000000000000000000000604482015260640160405180910390fd5b6001600160a01b031660805262000132565b600080546001600160a01b038381166001600160a01b0319831681178455604051919092169283917f8be0079c531659141344cd1fd0a4f28419497f9722a3daafe3b4186f6b6457e09190a35050565b6000602082840312156200011357600080fd5b81516001600160a01b03811681146200012b57600080fd5b9392505050565b608051611cf86200016a6000396000818161042a0152818161071f015281816109bd01528181610c44015261113d0152611cf86000f3fe6080604052600436106100eb5760003560e01c80639d8535ad11610084578063ea1bb3d511610056578063ea1bb3d514610363578063f2fde38b14610383578063f7c469f0146103a3578063fc0c546a1461041857005b80639d8535ad146102e05780639ef346b4146102f6578063b75c7dc614610323578063d1e9d36f1461034357005b806366afd8ef116100bd57806366afd8ef14610259578063715018a61461027957806387a8f0a71461028e5780638da5cb5b146102ae57005b806313083617146100f4578063471121d1146101185780635a7bb69a14610145578063604178871461017b57005b366100f257005b005b34801561010057600080fd5b506002545b6040519081526020015b60405180910390f35b34801561012457600080fd5b50610105610133366004611a2a565b60056020526000908152604090205481565b34801561015157600080fd5b50610105610160366004611a2a565b6001600160a01b031660009081526005602052604090205490565b34801561018757600080fd5b506101f8610196366004611a47565b6003602081905260009182526040909120805460018201546002830154938301546004840154600585015460068601546007870154600888015460099098015460ff8089169a6101009099046001600160a01b0316999798979481169416908b565b604080519b15158c526001600160a01b03909a1660208c0152988a01979097526060890195909552608088019390935260a0870191909152151560c086015260e085015261010084015215156101208301526101408201526101600161010f565b34801561026557600080fd5b506100f2610274366004611a60565b61044c565b34801561028557600080fd5b506100f261079d565b34801561029a57600080fd5b506100f26102a9366004611a90565b610803565b3480156102ba57600080fd5b506000546001600160a01b03165b6040516001600160a01b03909116815260200161010f565b3480156102ec57600080fd5b5061010560045481565b34801561030257600080fd5b50610316610311366004611a47565b610d48565b60405161010f9190611b01565b34801561032f57600080fd5b506100f261033e366004611a47565b610e5c565b34801561034f57600080fd5b506100f261035e366004611a47565b61119e565b34801561036f57600080fd5b5061010561037e366004611a47565b61137d565b34801561038f57600080fd5b506100f261039e366004611a2a565b6114f3565b3480156103af57600080fd5b506101056103be366004611a2a565b6001600160a01b0381166000908152600560209081526040808320548151606086901b6bffffffffffffffffffffffff19168185015260348082019290925282518082039092018252605401909152805191012092915050565b34801561042457600080fd5b506102c87f000000000000000000000000000000000000000000000000000000000000000081565b600260015414156104a45760405162461bcd60e51b815260206004820152601f60248201527f5265656e7472616e637947756172643a207265656e7472616e742063616c6c0060448201526064015b60405180910390fd5b6002600155600082815260036020526040902054829060ff166105095760405162461bcd60e51b815260206004820181905260248201527f76657374696e672d7363686564756c652d6e6f742d696e697469616c697a6564604482015260640161049b565b60008181526003602052604090206008015460ff161561056b5760405162461bcd60e51b815260206004820152601860248201527f76657374696e672d7363686564756c652d7265766f6b65640000000000000000604482015260640161049b565b6000838152600360205260408120805491549091336001600160a01b036101009092048216811492919091161481806105a15750805b6105ed5760405162461bcd60e51b815260206004820152600e60248201527f6e6f742d617574686f7269736564000000000000000000000000000000000000604482015260640161049b565b6040805161016081018252845460ff808216151583526001600160a01b03610100928390041660208401526001870154938301939093526002860154606083015260038601546080830152600486015460a083015260058601548316151560c0830152600686015460e083015260078601549082015260088501549091161515610120820152600984015461014082015260009061068a906115d5565b9050858110156106dc5760405162461bcd60e51b815260206004820152601960248201527f696e73756666696369656e742d7665737465642d746f6b656e00000000000000604482015260640161049b565b60078401546106eb90876116ba565b600785015583546004546101009091046001600160a01b03169061070f90886116c6565b6004556107466001600160a01b037f00000000000000000000000000000000000000000000000000000000000000001682896116d2565b604080518981526001600160a01b03831660208201529081018390527f6fafb362fc9a68163ffac57b33b6971499e45dd16620645b03a4f8773bb6e8ba9060600160405180910390a1505060018055505050505050565b6000546001600160a01b031633146107f75760405162461bcd60e51b815260206004820181905260248201527f4f776e61626c653a2063616c6c6572206973206e6f7420746865206f776e6572604482015260640161049b565b6108016000611767565b565b6000546001600160a01b0316331461085d5760405162461bcd60e51b815260206004820181905260248201527f4f776e61626c653a2063616c6c6572206973206e6f7420746865206f776e6572604482015260640161049b565b6001600160a01b0388166108b35760405162461bcd60e51b815260206004820152601360248201527f696e76616c69642d62656e656669636961727900000000000000000000000000604482015260640161049b565b600085116109035760405162461bcd60e51b815260206004820152601060248201527f696e76616c69642d6475726174696f6e00000000000000000000000000000000604482015260640161049b565b600082116109535760405162461bcd60e51b815260206004820152600e60248201527f696e76616c69642d616d6f756e74000000000000000000000000000000000000604482015260640161049b565b60018410156109a45760405162461bcd60e51b815260206004820152601460248201527f696e76616c69642d736c6963652d706572696f64000000000000000000000000604482015260640161049b565b6109e533306109b385856116ba565b6001600160a01b037f0000000000000000000000000000000000000000000000000000000000000000169291906117cf565b604051630f7c469f60e41b81526001600160a01b0389166004820152600090309063f7c469f090602401602060405180830381865afa158015610a2c573d6000803e3d6000fd5b505050506040513d601f19601f82011682018060405250810190610a509190611b97565b90506000610a5e89896116ba565b90506040518061016001604052806001151581526020018b6001600160a01b031681526020018281526020018a8152602001888152602001878152602001861515815260200185815260200160008152602001600015158152602001848152506003600084815260200190815260200160002060008201518160000160006101000a81548160ff02191690831515021790555060208201518160000160016101000a8154816001600160a01b0302191690836001600160a01b0316021790555060408201518160010155606082015181600201556080820151816003015560a0820151816004015560c08201518160050160006101000a81548160ff02191690831515021790555060e0820151816006015561010082015181600701556101208201518160080160006101000a81548160ff0219169083151502179055506101408201518160090155905050610bbf846004546116ba90919063ffffffff16565b6004556002805460018181019092557f405787fa12a823e0f2b7631cc41b3ba8828b3321ca811111fa75cd3aa3bb5ace018390556001600160a01b038b1660009081526005602052604090205490610c189082906116ba565b6001600160a01b038c166000908152600560205260409020558315610cb557610c6b6001600160a01b037f0000000000000000000000000000000000000000000000000000000000000000168c866116d2565b604080518481526001600160a01b038d1660208201529081018590527f6b110a4da737d10e9eac39c1fa87ff3f08087be84aaf6e5275ea5477b902efc39060600160405180910390a15b604080518481526001600160a01b038d166020820152908101839052606081018b90526080810189905260a0810188905286151560c082015260e081018690526000610100820181905261012082015261014081018590527f38e6bf91cfa4bcaeb00a188bddca1c2e3878ef15b0493f3bfa996d830a8d2a94906101600160405180910390a15050505050505050505050565b610db460405180610160016040528060001515815260200160006001600160a01b03168152602001600081526020016000815260200160008152602001600081526020016000151581526020016000815260200160008152602001600015158152602001600081525090565b50600090815260036020818152604092839020835161016081018552815460ff808216151583526001600160a01b0361010092839004169483019490945260018301549582019590955260028201546060820152928101546080840152600481015460a084015260058101548216151560c0840152600681015460e0840152600781015493830193909352600883015416151561012082015260099091015461014082015290565b6000546001600160a01b03163314610eb65760405162461bcd60e51b815260206004820181905260248201527f4f776e61626c653a2063616c6c6572206973206e6f7420746865206f776e6572604482015260640161049b565b600081815260036020526040902054819060ff16610f165760405162461bcd60e51b815260206004820181905260248201527f76657374696e672d7363686564756c652d6e6f742d696e697469616c697a6564604482015260640161049b565b60008181526003602052604090206008015460ff1615610f785760405162461bcd60e51b815260206004820152601860248201527f76657374696e672d7363686564756c652d7265766f6b65640000000000000000604482015260640161049b565b6000828152600360205260409020600581015460ff16610fda5760405162461bcd60e51b815260206004820152600d60248201527f6e6f742d7265766f6361626c6500000000000000000000000000000000000000604482015260640161049b565b6040805161016081018252825460ff808216151583526001600160a01b03610100928390041660208401526001850154938301939093526002840154606083015260038401546080830152600484015460a083015260058401548316151560c0830152600684015460e0830152600784015490820152600883015490911615156101208201526009820154610140820152600090611077906115d5565b9050801561108957611089848261044c565b60006110a6836007015484600601546116c690919063ffffffff16565b6004549091506110b690826116c6565b60045560088301805460ff19166001179055801561116457611164306001600160a01b0316638da5cb5b6040518163ffffffff1660e01b8152600401602060405180830381865afa15801561110f573d6000803e3d6000fd5b505050506040513d601f19601f820116820180604052508101906111339190611bb0565b6001600160a01b037f00000000000000000000000000000000000000000000000000000000000000001690836116d2565b6040518581527f4b906f6cd846ce0fd07fc7efbec51a363761a25c96f718bcebf2f651935cccb19060200160405180910390a15050505050565b600260015414156111f15760405162461bcd60e51b815260206004820152601f60248201527f5265656e7472616e637947756172643a207265656e7472616e742063616c6c00604482015260640161049b565b6002600155600081815260036020526040902054819060ff166112565760405162461bcd60e51b815260206004820181905260248201527f76657374696e672d7363686564756c652d6e6f742d696e697469616c697a6564604482015260640161049b565b60008181526003602052604090206008015460ff16156112b85760405162461bcd60e51b815260206004820152601860248201527f76657374696e672d7363686564756c652d7265766f6b65640000000000000000604482015260640161049b565b6000828152600360208181526040808420815161016081018352815460ff808216151583526001600160a01b0361010092839004169583019590955260018301549382019390935260028201546060820152938101546080850152600481015460a085015260058101548316151560c0850152600681015460e08501526007810154918401919091526008810154909116151561012083015260098101546101408301529190611367906115d5565b9050611373848261044c565b5050600180555050565b600081815260036020526040812054829060ff166113dd5760405162461bcd60e51b815260206004820181905260248201527f76657374696e672d7363686564756c652d6e6f742d696e697469616c697a6564604482015260640161049b565b60008181526003602052604090206008015460ff161561143f5760405162461bcd60e51b815260206004820152601860248201527f76657374696e672d7363686564756c652d7265766f6b65640000000000000000604482015260640161049b565b600083815260036020818152604092839020835161016081018552815460ff808216151583526001600160a01b0361010092839004169483019490945260018301549582019590955260028201546060820152928101546080840152600481015460a084015260058101548216151560c0840152600681015460e0840152600781015493830193909352600883015416151561012082015260098201546101408201526114eb906115d5565b949350505050565b6000546001600160a01b0316331461154d5760405162461bcd60e51b815260206004820181905260248201527f4f776e61626c653a2063616c6c6572206973206e6f7420746865206f776e6572604482015260640161049b565b6001600160a01b0381166115c95760405162461bcd60e51b815260206004820152602660248201527f4f776e61626c653a206e6577206f776e657220697320746865207a65726f206160448201527f6464726573730000000000000000000000000000000000000000000000000000606482015260840161049b565b6115d281611767565b50565b604081015160009042908110806115ee57508261012001515b156115fc5750600092915050565b6080830151606084015161160f916116ba565b81106116305761010083015160e0840151611629916116c6565b9392505050565b60006116498460600151836116c690919063ffffffff16565b60a0850151909150600061165d838361180d565b9050600061166b8284611819565b90506000611694886080015161168e848b60e0015161181990919063ffffffff16565b9061180d565b90506116ae886101000151826116c690919063ffffffff16565b98975050505050505050565b60006116298284611be3565b60006116298284611bfb565b6040516001600160a01b03831660248201526044810182905261176290849063a9059cbb60e01b906064015b60408051601f198184030181529190526020810180517bffffffffffffffffffffffffffffffffffffffffffffffffffffffff167fffffffff0000000000000000000000000000000000000000000000000000000090931692909217909152611825565b505050565b600080546001600160a01b038381167fffffffffffffffffffffffff0000000000000000000000000000000000000000831681178455604051919092169283917f8be0079c531659141344cd1fd0a4f28419497f9722a3daafe3b4186f6b6457e09190a35050565b6040516001600160a01b03808516602483015283166044820152606481018290526118079085906323b872dd60e01b906084016116fe565b50505050565b60006116298284611c12565b60006116298284611c34565b600061187a826040518060400160405280602081526020017f5361666545524332303a206c6f772d6c6576656c2063616c6c206661696c6564815250856001600160a01b031661190a9092919063ffffffff16565b80519091501561176257808060200190518101906118989190611c53565b6117625760405162461bcd60e51b815260206004820152602a60248201527f5361666545524332303a204552433230206f7065726174696f6e20646964206e60448201527f6f74207375636365656400000000000000000000000000000000000000000000606482015260840161049b565b60606114eb848460008585843b6119635760405162461bcd60e51b815260206004820152601d60248201527f416464726573733a2063616c6c20746f206e6f6e2d636f6e7472616374000000604482015260640161049b565b600080866001600160a01b0316858760405161197f9190611c9c565b60006040518083038185875af1925050503d80600081146119bc576040519150601f19603f3d011682016040523d82523d6000602084013e6119c1565b606091505b50915091506119d18282866119dc565b979650505050505050565b606083156119eb575081611629565b8251156119fb5782518084602001fd5b8160405162461bcd60e51b815260040161049b9190611cb8565b6001600160a01b03811681146115d257600080fd5b600060208284031215611a3c57600080fd5b813561162981611a15565b600060208284031215611a5957600080fd5b5035919050565b60008060408385031215611a7357600080fd5b50508035926020909101359150565b80151581146115d257600080fd5b600080600080600080600080610100898b031215611aad57600080fd5b8835611ab881611a15565b97506020890135965060408901359550606089013594506080890135935060a0890135611ae481611a82565b979a969950949793969295929450505060c08201359160e0013590565b81511515815261016081016020830151611b2660208401826001600160a01b03169052565b5060408301516040830152606083015160608301526080830151608083015260a083015160a083015260c0830151611b6260c084018215159052565b5060e0838101519083015261010080840151908301526101208084015180151582850152505061014092830151919092015290565b600060208284031215611ba957600080fd5b5051919050565b600060208284031215611bc257600080fd5b815161162981611a15565b634e487b7160e01b600052601160045260246000fd5b60008219821115611bf657611bf6611bcd565b500190565b600082821015611c0d57611c0d611bcd565b500390565b600082611c2f57634e487b7160e01b600052601260045260246000fd5b500490565b6000816000190483118215151615611c4e57611c4e611bcd565b500290565b600060208284031215611c6557600080fd5b815161162981611a82565b60005b83811015611c8b578181015183820152602001611c73565b838111156118075750506000910152565b60008251611cae818460208701611c70565b9190910192915050565b6020815260008251806020840152611cd7816040850160208701611c70565b601f01601f1916919091016040019291505056fea164736f6c634300080c000a",
  "linkReferences": {},
  "deployedLinkReferences": {}
}