{
  "_format": "hh-sol-artifact-1",
  "contractName": "TokenVesting",
  "sourceName": "contracts/vesting/TokenVesting.sol",
  "abi": [
    {
      "inputs": [
        {
          "internalType": "address",
          "name": "token_",
          "type": "address"
        }
      ],
      "stateMutability": "nonpayable",
      "type": "constructor"
    },
    {
      "anonymous": false,
      "inputs": [
        {
          "indexed": false,
          "internalType": "bytes32",
          "name": "vestingScheduleId",
          "type": "bytes32"
        },
        {
          "indexed": false,
          "internalType": "address",
          "name": "beneficiary",
          "type": "address"
        },
        {
          "indexed": false,
          "internalType": "uint256",
          "name": "cliff",
          "type": "uint256"
        },
        {
          "indexed": false,
          "internalType": "uint256",
          "name": "start",
          "type": "uint256"
        },
        {
          "indexed": false,
          "internalType": "uint256",
          "name": "duration",
          "type": "uint256"
        },
        {
          "indexed": false,
          "internalType": "uint256",
          "name": "slicePeriodSeconds",
          "type": "uint256"
        },
        {
          "indexed": false,
          "internalType": "bool",
          "name": "revocable",
          "type": "bool"
        },
        {
          "indexed": false,
          "internalType": "uint256",
          "name": "amountTotal",
          "type": "uint256"
        },
        {
          "indexed": false,
          "internalType": "uint256",
          "name": "released",
          "type": "uint256"
        },
        {
          "indexed": false,
          "internalType": "bool",
          "name": "revoked",
          "type": "bool"
        },
        {
          "indexed": false,
          "internalType": "uint256",
          "name": "upFront",
          "type": "uint256"
        }
      ],
      "name": "AddVestingSchedule",
      "type": "event"
    },
    {
      "anonymous": false,
      "inputs": [
        {
          "indexed": true,
          "internalType": "address",
          "name": "previousOwner",
          "type": "address"
        },
        {
          "indexed": true,
          "internalType": "address",
          "name": "newOwner",
          "type": "address"
        }
      ],
      "name": "OwnershipTransferred",
      "type": "event"
    },
    {
      "anonymous": false,
      "inputs": [
        {
          "indexed": false,
          "internalType": "bytes32",
          "name": "vestingScheduleId",
          "type": "bytes32"
        },
        {
          "indexed": false,
          "internalType": "address",
          "name": "beneficiary",
          "type": "address"
        },
        {
          "indexed": false,
          "internalType": "uint256",
          "name": "amountReleased",
          "type": "uint256"
        },
        {
          "indexed": false,
          "internalType": "uint256",
          "name": "amount",
          "type": "uint256"
        }
      ],
      "name": "ReleaseVestedToken",
      "type": "event"
    },
    {
      "anonymous": false,
      "inputs": [
        {
          "indexed": false,
          "internalType": "uint256",
          "name": "amount",
          "type": "uint256"
        }
      ],
      "name": "Released",
      "type": "event"
    },
    {
      "anonymous": false,
      "inputs": [
        {
          "indexed": false,
          "internalType": "bytes32",
          "name": "vestingScheduleId",
          "type": "bytes32"
        }
      ],
      "name": "RevokeVestingShedule",
      "type": "event"
    },
    {
      "anonymous": false,
      "inputs": [],
      "name": "Revoked",
      "type": "event"
    },
    {
      "anonymous": false,
      "inputs": [
        {
          "indexed": false,
          "internalType": "bytes32",
          "name": "vestingScheduleId",
          "type": "bytes32"
        },
        {
          "indexed": false,
          "internalType": "address",
          "name": "beneficiary",
          "type": "address"
        },
        {
          "indexed": false,
          "internalType": "uint256",
          "name": "amount",
          "type": "uint256"
        }
      ],
      "name": "UpfrontTokenTransfer",
      "type": "event"
    },
    {
      "stateMutability": "payable",
      "type": "fallback"
    },
    {
      "inputs": [
        {
          "internalType": "address",
          "name": "holder",
          "type": "address"
        }
      ],
      "name": "computeNextVestingScheduleIdForHolder",
      "outputs": [
        {
          "internalType": "bytes32",
          "name": "",
          "type": "bytes32"
        }
      ],
      "stateMutability": "view",
      "type": "function"
    },
    {
      "inputs": [
        {
          "internalType": "bytes32",
          "name": "vestingScheduleId",
          "type": "bytes32"
        }
      ],
      "name": "computeReleasableAmount",
      "outputs": [
        {
          "internalType": "uint256",
          "name": "",
          "type": "uint256"
        }
      ],
      "stateMutability": "view",
      "type": "function"
    },
    {
      "inputs": [
        {
          "internalType": "address",
          "name": "_beneficiary",
          "type": "address"
        },
        {
          "internalType": "uint256",
          "name": "_start",
          "type": "uint256"
        },
        {
          "internalType": "uint256",
          "name": "_cliff",
          "type": "uint256"
        },
        {
          "internalType": "uint256",
          "name": "_duration",
          "type": "uint256"
        },
        {
          "internalType": "uint256",
          "name": "_slicePeriodSeconds",
          "type": "uint256"
        },
        {
          "internalType": "bool",
          "name": "_revocable",
          "type": "bool"
        },
        {
          "internalType": "uint256",
          "name": "_amount",
          "type": "uint256"
        },
        {
          "internalType": "uint256",
          "name": "_upFront",
          "type": "uint256"
        }
      ],
      "name": "createVestingSchedule",
      "outputs": [],
      "stateMutability": "nonpayable",
      "type": "function"
    },
    {
      "inputs": [
        {
          "internalType": "bytes32",
          "name": "vestingScheduleId",
          "type": "bytes32"
        }
      ],
      "name": "getVestingSchedule",
      "outputs": [
        {
          "components": [
            {
              "internalType": "bool",
              "name": "initialized",
              "type": "bool"
            },
            {
              "internalType": "address",
              "name": "beneficiary",
              "type": "address"
            },
            {
              "internalType": "uint256",
              "name": "cliff",
              "type": "uint256"
            },
            {
              "internalType": "uint256",
              "name": "start",
              "type": "uint256"
            },
            {
              "internalType": "uint256",
              "name": "duration",
              "type": "uint256"
            },
            {
              "internalType": "uint256",
              "name": "slicePeriodSeconds",
              "type": "uint256"
            },
            {
              "internalType": "bool",
              "name": "revocable",
              "type": "bool"
            },
            {
              "internalType": "uint256",
              "name": "amountTotal",
              "type": "uint256"
            },
            {
              "internalType": "uint256",
              "name": "released",
              "type": "uint256"
            },
            {
              "internalType": "bool",
              "name": "revoked",
              "type": "bool"
            },
            {
              "internalType": "uint256",
              "name": "upFront",
              "type": "uint256"
            }
          ],
          "internalType": "struct ITokenVesting.VestingSchedule",
          "name": "",
          "type": "tuple"
        }
      ],
      "stateMutability": "view",
      "type": "function"
    },
    {
      "inputs": [],
      "name": "getVestingSchedulesCount",
      "outputs": [
        {
          "internalType": "uint256",
          "name": "",
          "type": "uint256"
        }
      ],
      "stateMutability": "view",
      "type": "function"
    },
    {
      "inputs": [
        {
          "internalType": "address",
          "name": "",
          "type": "address"
        }
      ],
      "name": "holdersVestingCount",
      "outputs": [
        {
          "internalType": "uint256",
          "name": "",
          "type": "uint256"
        }
      ],
      "stateMutability": "view",
      "type": "function"
    },
    {
      "inputs": [],
      "name": "owner",
      "outputs": [
        {
          "internalType": "address",
          "name": "",
          "type": "address"
        }
      ],
      "stateMutability": "view",
      "type": "function"
    },
    {
      "inputs": [
        {
          "internalType": "bytes32",
          "name": "vestingScheduleId",
          "type": "bytes32"
        },
        {
          "internalType": "uint256",
          "name": "amount",
          "type": "uint256"
        }
      ],
      "name": "release",
      "outputs": [],
      "stateMutability": "nonpayable",
      "type": "function"
    },
    {
      "inputs": [
        {
          "internalType": "bytes32",
          "name": "vestingScheduleId",
          "type": "bytes32"
        }
      ],
      "name": "releaseAllVested",
      "outputs": [],
      "stateMutability": "nonpayable",
      "type": "function"
    },
    {
      "inputs": [],
      "name": "renounceOwnership",
      "outputs": [],
      "stateMutability": "nonpayable",
      "type": "function"
    },
    {
      "inputs": [
        {
          "internalType": "bytes32",
          "name": "vestingScheduleId",
          "type": "bytes32"
        }
      ],
      "name": "revoke",
      "outputs": [],
      "stateMutability": "nonpayable",
      "type": "function"
    },
    {
      "inputs": [],
      "name": "token",
      "outputs": [
        {
          "internalType": "contract IERC20",
          "name": "",
          "type": "address"
        }
      ],
      "stateMutability": "view",
      "type": "function"
    },
    {
      "inputs": [
        {
          "internalType": "address",
          "name": "newOwner",
          "type": "address"
        }
      ],
      "name": "transferOwnership",
      "outputs": [],
      "stateMutability": "nonpayable",
      "type": "function"
    },
    {
      "inputs": [
        {
          "internalType": "bytes32",
          "name": "",
          "type": "bytes32"
        }
      ],
      "name": "vestingSchedules",
      "outputs": [
        {
          "internalType": "bool",
          "name": "initialized",
          "type": "bool"
        },
        {
          "internalType": "address",
          "name": "beneficiary",
          "type": "address"
        },
        {
          "internalType": "uint256",
          "name": "cliff",
          "type": "uint256"
        },
        {
          "internalType": "uint256",
          "name": "start",
          "type": "uint256"
        },
        {
          "internalType": "uint256",
          "name": "duration",
          "type": "uint256"
        },
        {
          "internalType": "uint256",
          "name": "slicePeriodSeconds",
          "type": "uint256"
        },
        {
          "internalType": "bool",
          "name": "revocable",
          "type": "bool"
        },
        {
          "internalType": "uint256",
          "name": "amountTotal",
          "type": "uint256"
        },
        {
          "internalType": "uint256",
          "name": "released",
          "type": "uint256"
        },
        {
          "internalType": "bool",
          "name": "revoked",
          "type": "bool"
        },
        {
          "internalType": "uint256",
          "name": "upFront",
          "type": "uint256"
        }
      ],
      "stateMutability": "view",
      "type": "function"
    },
    {
      "inputs": [],
      "name": "vestingSchedulesTotalAmount",
      "outputs": [
        {
          "internalType": "uint256",
          "name": "",
          "type": "uint256"
        }
      ],
      "stateMutability": "view",
      "type": "function"
    },
    {
      "stateMutability": "payable",
      "type": "receive"
    }
  ],
  "bytecode": "0x60a06040523480156200001157600080fd5b5060405162001e2838038062001e28833981016040819052620000349162000100565b6200003f33620000b0565b600180556001600160a01b0381166200009e5760405162461bcd60e51b815260206004820152601560248201527f696e76616c69642d746f6b656e2d616464726573730000000000000000000000604482015260640160405180910390fd5b6001600160a01b031660805262000132565b600080546001600160a01b038381166001600160a01b0319831681178455604051919092169283917f8be0079c531659141344cd1fd0a4f28419497f9722a3daafe3b4186f6b6457e09190a35050565b6000602082840312156200011357600080fd5b81516001600160a01b03811681146200012b57600080fd5b9392505050565b608051611cbe6200016a600039600081816103e9015281816106de0152818161098301528181610c0a01526111030152611cbe6000f3fe6080604052600436106100e05760003560e01c80639d8535ad11610084578063ea1bb3d511610056578063ea1bb3d514610322578063f2fde38b14610342578063f7c469f014610362578063fc0c546a146103d757005b80639d8535ad1461029f5780639ef346b4146102b5578063b75c7dc6146102e2578063d1e9d36f1461030257005b806366afd8ef116100bd57806366afd8ef14610218578063715018a61461023857806387a8f0a71461024d5780638da5cb5b1461026d57005b806313083617146100e9578063471121d11461010d578063604178871461013a57005b366100e757005b005b3480156100f557600080fd5b506002545b6040519081526020015b60405180910390f35b34801561011957600080fd5b506100fa6101283660046119f0565b60056020526000908152604090205481565b34801561014657600080fd5b506101b7610155366004611a0d565b6003602081905260009182526040909120805460018201546002830154938301546004840154600585015460068601546007870154600888015460099098015460ff8089169a6101009099046001600160a01b0316999798979481169416908b565b604080519b15158c526001600160a01b03909a1660208c0152988a01979097526060890195909552608088019390935260a0870191909152151560c086015260e0850152610100840152151561012083015261014082015261016001610104565b34801561022457600080fd5b506100e7610233366004611a26565b61040b565b34801561024457600080fd5b506100e7610763565b34801561025957600080fd5b506100e7610268366004611a56565b6107c9565b34801561027957600080fd5b506000546001600160a01b03165b6040516001600160a01b039091168152602001610104565b3480156102ab57600080fd5b506100fa60045481565b3480156102c157600080fd5b506102d56102d0366004611a0d565b610d0e565b6040516101049190611ac7565b3480156102ee57600080fd5b506100e76102fd366004611a0d565b610e22565b34801561030e57600080fd5b506100e761031d366004611a0d565b611164565b34801561032e57600080fd5b506100fa61033d366004611a0d565b611343565b34801561034e57600080fd5b506100e761035d3660046119f0565b6114b9565b34801561036e57600080fd5b506100fa61037d3660046119f0565b6001600160a01b0381166000908152600560209081526040808320548151606086901b6bffffffffffffffffffffffff19168185015260348082019290925282518082039092018252605401909152805191012092915050565b3480156103e357600080fd5b506102877f000000000000000000000000000000000000000000000000000000000000000081565b600260015414156104635760405162461bcd60e51b815260206004820152601f60248201527f5265656e7472616e637947756172643a207265656e7472616e742063616c6c0060448201526064015b60405180910390fd5b6002600155600082815260036020526040902054829060ff166104c85760405162461bcd60e51b815260206004820181905260248201527f76657374696e672d7363686564756c652d6e6f742d696e697469616c697a6564604482015260640161045a565b60008181526003602052604090206008015460ff161561052a5760405162461bcd60e51b815260206004820152601860248201527f76657374696e672d7363686564756c652d7265766f6b65640000000000000000604482015260640161045a565b6000838152600360205260408120805491549091336001600160a01b036101009092048216811492919091161481806105605750805b6105ac5760405162461bcd60e51b815260206004820152600e60248201527f6e6f742d617574686f7269736564000000000000000000000000000000000000604482015260640161045a565b6040805161016081018252845460ff808216151583526001600160a01b03610100928390041660208401526001870154938301939093526002860154606083015260038601546080830152600486015460a083015260058601548316151560c0830152600686015460e08301526007860154908201526008850154909116151561012082015260098401546101408201526000906106499061159b565b90508581101561069b5760405162461bcd60e51b815260206004820152601960248201527f696e73756666696369656e742d7665737465642d746f6b656e00000000000000604482015260640161045a565b60078401546106aa9087611680565b600785015583546004546101009091046001600160a01b0316906106ce908861168c565b6004556107056001600160a01b037f0000000000000000000000000000000000000000000000000000000000000000168289611698565b604080518981526001600160a01b0383166020820152908101839052606081018890527f1de2cc6a7789c6cbac978da01df18241d3a5e1914b9896d342c537ff3fd22d6d9060800160405180910390a1505060018055505050505050565b6000546001600160a01b031633146107bd5760405162461bcd60e51b815260206004820181905260248201527f4f776e61626c653a2063616c6c6572206973206e6f7420746865206f776e6572604482015260640161045a565b6107c7600061172d565b565b6000546001600160a01b031633146108235760405162461bcd60e51b815260206004820181905260248201527f4f776e61626c653a2063616c6c6572206973206e6f7420746865206f776e6572604482015260640161045a565b6001600160a01b0388166108795760405162461bcd60e51b815260206004820152601360248201527f696e76616c69642d62656e656669636961727900000000000000000000000000604482015260640161045a565b600085116108c95760405162461bcd60e51b815260206004820152601060248201527f696e76616c69642d6475726174696f6e00000000000000000000000000000000604482015260640161045a565b600082116109195760405162461bcd60e51b815260206004820152600e60248201527f696e76616c69642d616d6f756e74000000000000000000000000000000000000604482015260640161045a565b600184101561096a5760405162461bcd60e51b815260206004820152601460248201527f696e76616c69642d736c6963652d706572696f64000000000000000000000000604482015260640161045a565b6109ab33306109798585611680565b6001600160a01b037f000000000000000000000000000000000000000000000000000000000000000016929190611795565b604051630f7c469f60e41b81526001600160a01b0389166004820152600090309063f7c469f090602401602060405180830381865afa1580156109f2573d6000803e3d6000fd5b505050506040513d601f19601f82011682018060405250810190610a169190611b5d565b90506000610a248989611680565b90506040518061016001604052806001151581526020018b6001600160a01b031681526020018281526020018a8152602001888152602001878152602001861515815260200185815260200160008152602001600015158152602001848152506003600084815260200190815260200160002060008201518160000160006101000a81548160ff02191690831515021790555060208201518160000160016101000a8154816001600160a01b0302191690836001600160a01b0316021790555060408201518160010155606082015181600201556080820151816003015560a0820151816004015560c08201518160050160006101000a81548160ff02191690831515021790555060e0820151816006015561010082015181600701556101208201518160080160006101000a81548160ff0219169083151502179055506101408201518160090155905050610b858460045461168090919063ffffffff16565b6004556002805460018181019092557f405787fa12a823e0f2b7631cc41b3ba8828b3321ca811111fa75cd3aa3bb5ace018390556001600160a01b038b1660009081526005602052604090205490610bde908290611680565b6001600160a01b038c166000908152600560205260409020558315610c7b57610c316001600160a01b037f0000000000000000000000000000000000000000000000000000000000000000168c86611698565b604080518481526001600160a01b038d1660208201529081018590527f6b110a4da737d10e9eac39c1fa87ff3f08087be84aaf6e5275ea5477b902efc39060600160405180910390a15b604080518481526001600160a01b038d166020820152908101839052606081018b90526080810189905260a0810188905286151560c082015260e081018690526000610100820181905261012082015261014081018590527f38e6bf91cfa4bcaeb00a188bddca1c2e3878ef15b0493f3bfa996d830a8d2a94906101600160405180910390a15050505050505050505050565b610d7a60405180610160016040528060001515815260200160006001600160a01b03168152602001600081526020016000815260200160008152602001600081526020016000151581526020016000815260200160008152602001600015158152602001600081525090565b50600090815260036020818152604092839020835161016081018552815460ff808216151583526001600160a01b0361010092839004169483019490945260018301549582019590955260028201546060820152928101546080840152600481015460a084015260058101548216151560c0840152600681015460e0840152600781015493830193909352600883015416151561012082015260099091015461014082015290565b6000546001600160a01b03163314610e7c5760405162461bcd60e51b815260206004820181905260248201527f4f776e61626c653a2063616c6c6572206973206e6f7420746865206f776e6572604482015260640161045a565b600081815260036020526040902054819060ff16610edc5760405162461bcd60e51b815260206004820181905260248201527f76657374696e672d7363686564756c652d6e6f742d696e697469616c697a6564604482015260640161045a565b60008181526003602052604090206008015460ff1615610f3e5760405162461bcd60e51b815260206004820152601860248201527f76657374696e672d7363686564756c652d7265766f6b65640000000000000000604482015260640161045a565b6000828152600360205260409020600581015460ff16610fa05760405162461bcd60e51b815260206004820152600d60248201527f6e6f742d7265766f6361626c6500000000000000000000000000000000000000604482015260640161045a565b6040805161016081018252825460ff808216151583526001600160a01b03610100928390041660208401526001850154938301939093526002840154606083015260038401546080830152600484015460a083015260058401548316151560c0830152600684015460e083015260078401549082015260088301549091161515610120820152600982015461014082015260009061103d9061159b565b9050801561104f5761104f848261040b565b600061106c8360070154846006015461168c90919063ffffffff16565b60045490915061107c908261168c565b60045560088301805460ff19166001179055801561112a5761112a306001600160a01b0316638da5cb5b6040518163ffffffff1660e01b8152600401602060405180830381865afa1580156110d5573d6000803e3d6000fd5b505050506040513d601f19601f820116820180604052508101906110f99190611b76565b6001600160a01b037f0000000000000000000000000000000000000000000000000000000000000000169083611698565b6040518581527f4b906f6cd846ce0fd07fc7efbec51a363761a25c96f718bcebf2f651935cccb19060200160405180910390a15050505050565b600260015414156111b75760405162461bcd60e51b815260206004820152601f60248201527f5265656e7472616e637947756172643a207265656e7472616e742063616c6c00604482015260640161045a565b6002600155600081815260036020526040902054819060ff1661121c5760405162461bcd60e51b815260206004820181905260248201527f76657374696e672d7363686564756c652d6e6f742d696e697469616c697a6564604482015260640161045a565b60008181526003602052604090206008015460ff161561127e5760405162461bcd60e51b815260206004820152601860248201527f76657374696e672d7363686564756c652d7265766f6b65640000000000000000604482015260640161045a565b6000828152600360208181526040808420815161016081018352815460ff808216151583526001600160a01b0361010092839004169583019590955260018301549382019390935260028201546060820152938101546080850152600481015460a085015260058101548316151560c0850152600681015460e0850152600781015491840191909152600881015490911615156101208301526009810154610140830152919061132d9061159b565b9050611339848261040b565b5050600180555050565b600081815260036020526040812054829060ff166113a35760405162461bcd60e51b815260206004820181905260248201527f76657374696e672d7363686564756c652d6e6f742d696e697469616c697a6564604482015260640161045a565b60008181526003602052604090206008015460ff16156114055760405162461bcd60e51b815260206004820152601860248201527f76657374696e672d7363686564756c652d7265766f6b65640000000000000000604482015260640161045a565b600083815260036020818152604092839020835161016081018552815460ff808216151583526001600160a01b0361010092839004169483019490945260018301549582019590955260028201546060820152928101546080840152600481015460a084015260058101548216151560c0840152600681015460e0840152600781015493830193909352600883015416151561012082015260098201546101408201526114b19061159b565b949350505050565b6000546001600160a01b031633146115135760405162461bcd60e51b815260206004820181905260248201527f4f776e61626c653a2063616c6c6572206973206e6f7420746865206f776e6572604482015260640161045a565b6001600160a01b03811661158f5760405162461bcd60e51b815260206004820152602660248201527f4f776e61626c653a206e6577206f776e657220697320746865207a65726f206160448201527f6464726573730000000000000000000000000000000000000000000000000000606482015260840161045a565b6115988161172d565b50565b604081015160009042908110806115b457508261012001515b156115c25750600092915050565b608083015160608401516115d591611680565b81106115f65761010083015160e08401516115ef9161168c565b9392505050565b600061160f84606001518361168c90919063ffffffff16565b60a0850151909150600061162383836117d3565b9050600061163182846117df565b9050600061165a8860800151611654848b60e001516117df90919063ffffffff16565b906117d3565b90506116748861010001518261168c90919063ffffffff16565b98975050505050505050565b60006115ef8284611ba9565b60006115ef8284611bc1565b6040516001600160a01b03831660248201526044810182905261172890849063a9059cbb60e01b906064015b60408051601f198184030181529190526020810180517bffffffffffffffffffffffffffffffffffffffffffffffffffffffff167fffffffff00000000000000000000000000000000000000000000000000000000909316929092179091526117eb565b505050565b600080546001600160a01b038381167fffffffffffffffffffffffff0000000000000000000000000000000000000000831681178455604051919092169283917f8be0079c531659141344cd1fd0a4f28419497f9722a3daafe3b4186f6b6457e09190a35050565b6040516001600160a01b03808516602483015283166044820152606481018290526117cd9085906323b872dd60e01b906084016116c4565b50505050565b60006115ef8284611bd8565b60006115ef8284611bfa565b6000611840826040518060400160405280602081526020017f5361666545524332303a206c6f772d6c6576656c2063616c6c206661696c6564815250856001600160a01b03166118d09092919063ffffffff16565b805190915015611728578080602001905181019061185e9190611c19565b6117285760405162461bcd60e51b815260206004820152602a60248201527f5361666545524332303a204552433230206f7065726174696f6e20646964206e60448201527f6f74207375636365656400000000000000000000000000000000000000000000606482015260840161045a565b60606114b1848460008585843b6119295760405162461bcd60e51b815260206004820152601d60248201527f416464726573733a2063616c6c20746f206e6f6e2d636f6e7472616374000000604482015260640161045a565b600080866001600160a01b031685876040516119459190611c62565b60006040518083038185875af1925050503d8060008114611982576040519150601f19603f3d011682016040523d82523d6000602084013e611987565b606091505b50915091506119978282866119a2565b979650505050505050565b606083156119b15750816115ef565b8251156119c15782518084602001fd5b8160405162461bcd60e51b815260040161045a9190611c7e565b6001600160a01b038116811461159857600080fd5b600060208284031215611a0257600080fd5b81356115ef816119db565b600060208284031215611a1f57600080fd5b5035919050565b60008060408385031215611a3957600080fd5b50508035926020909101359150565b801515811461159857600080fd5b600080600080600080600080610100898b031215611a7357600080fd5b8835611a7e816119db565b97506020890135965060408901359550606089013594506080890135935060a0890135611aaa81611a48565b979a969950949793969295929450505060c08201359160e0013590565b81511515815261016081016020830151611aec60208401826001600160a01b03169052565b5060408301516040830152606083015160608301526080830151608083015260a083015160a083015260c0830151611b2860c084018215159052565b5060e0838101519083015261010080840151908301526101208084015180151582850152505061014092830151919092015290565b600060208284031215611b6f57600080fd5b5051919050565b600060208284031215611b8857600080fd5b81516115ef816119db565b634e487b7160e01b600052601160045260246000fd5b60008219821115611bbc57611bbc611b93565b500190565b600082821015611bd357611bd3611b93565b500390565b600082611bf557634e487b7160e01b600052601260045260246000fd5b500490565b6000816000190483118215151615611c1457611c14611b93565b500290565b600060208284031215611c2b57600080fd5b81516115ef81611a48565b60005b83811015611c51578181015183820152602001611c39565b838111156117cd5750506000910152565b60008251611c74818460208701611c36565b9190910192915050565b6020815260008251806020840152611c9d816040850160208701611c36565b601f01601f1916919091016040019291505056fea164736f6c634300080c000a",
  "linkReferences": {},
  "deployedLinkReferences": {}
}